{
  "_format": "hh-sol-artifact-1",
  "contractName": "MyContract",
  "sourceName": "contracts/MyContract.sol",
  "abi": [
    {
      "inputs": [],
      "stateMutability": "nonpayable",
      "type": "constructor"
    },
    {
      "anonymous": false,
      "inputs": [
        {
          "indexed": true,
          "internalType": "address",
          "name": "previousOwner",
          "type": "address"
        },
        {
          "indexed": true,
          "internalType": "address",
          "name": "newOwner",
          "type": "address"
        }
      ],
      "name": "OwnershipTransferred",
      "type": "event"
    },
    {
      "anonymous": false,
      "inputs": [
        {
          "indexed": false,
          "internalType": "address",
          "name": "buyer",
          "type": "address"
        },
        {
          "indexed": false,
          "internalType": "uint256",
          "name": "amount",
          "type": "uint256"
        }
      ],
      "name": "Purchase",
      "type": "event"
    },
    {
      "inputs": [],
      "name": "getPrice",
      "outputs": [
        {
          "internalType": "uint256",
          "name": "",
          "type": "uint256"
        }
      ],
      "stateMutability": "view",
      "type": "function"
    },
    {
      "inputs": [],
      "name": "owner",
      "outputs": [
        {
          "internalType": "address",
          "name": "",
          "type": "address"
        }
      ],
      "stateMutability": "view",
      "type": "function"
    },
    {
      "inputs": [],
      "name": "price",
      "outputs": [
        {
          "internalType": "uint256",
          "name": "",
          "type": "uint256"
        }
      ],
      "stateMutability": "view",
      "type": "function"
    },
    {
      "inputs": [
        {
          "internalType": "uint256",
          "name": "amount",
          "type": "uint256"
        }
      ],
      "name": "purchase",
      "outputs": [],
      "stateMutability": "payable",
      "type": "function"
    },
    {
      "inputs": [],
      "name": "renounceOwnership",
      "outputs": [],
      "stateMutability": "nonpayable",
      "type": "function"
    },
    {
      "inputs": [
        {
          "internalType": "uint256",
          "name": "newPrice",
          "type": "uint256"
        }
      ],
      "name": "setPrice",
      "outputs": [],
      "stateMutability": "nonpayable",
      "type": "function"
    },
    {
      "inputs": [
        {
          "internalType": "address",
          "name": "newOwner",
          "type": "address"
        }
      ],
      "name": "transferOwnership",
      "outputs": [],
      "stateMutability": "nonpayable",
      "type": "function"
    },
    {
      "inputs": [],
      "name": "withdraw",
      "outputs": [],
      "stateMutability": "nonpayable",
      "type": "function"
    }
  ],
  "bytecode": "0x608060405234801561001057600080fd5b5061002d61002261004760201b60201c565b61004f60201b60201c565b60018081905550662386f26fc10000600281905550610113565b600033905090565b60008060009054906101000a900473ffffffffffffffffffffffffffffffffffffffff169050816000806101000a81548173ffffffffffffffffffffffffffffffffffffffff021916908373ffffffffffffffffffffffffffffffffffffffff1602179055508173ffffffffffffffffffffffffffffffffffffffff168173ffffffffffffffffffffffffffffffffffffffff167f8be0079c531659141344cd1fd0a4f28419497f9722a3daafe3b4186f6b6457e060405160405180910390a35050565b610a49806101226000396000f3fe60806040526004361061007b5760003560e01c806398d5fdca1161004e57806398d5fdca14610102578063a035b1fe1461012d578063efef39a114610158578063f2fde38b146101745761007b565b80633ccfd60b14610080578063715018a6146100975780638da5cb5b146100ae57806391b7f5ed146100d9575b600080fd5b34801561008c57600080fd5b5061009561019d565b005b3480156100a357600080fd5b506100ac61026b565b005b3480156100ba57600080fd5b506100c361027f565b6040516100d091906105da565b60405180910390f35b3480156100e557600080fd5b5061010060048036038101906100fb9190610630565b61028e565b005b34801561010e57600080fd5b506101176102a0565b604051610124919061066c565b60405180910390f35b34801561013957600080fd5b506101426102aa565b60405161014f919061066c565b60405180910390f35b610172600480360381019061016d9190610630565b6102b0565b005b34801561018057600080fd5b5061019b600480360381019061019691906106b3565b61034b565b005b6101a56103ce565b6101ad61044c565b60006101b761027f565b73ffffffffffffffffffffffffffffffffffffffff16476040516101da90610711565b60006040518083038185875af1925050503d8060008114610217576040519150601f19603f3d011682016040523d82523d6000602084013e61021c565b606091505b5050905080610260576040517f08c379a000000000000000000000000000000000000000000000000000000000815260040161025790610783565b60405180910390fd5b5061026961049b565b565b6102736103ce565b61027d60006104a4565b565b6000610289610568565b905090565b6102966103ce565b8060028190555050565b6000600254905090565b60025481565b6102b861044c565b806002546102c691906107d2565b3414610307576040517f08c379a00000000000000000000000000000000000000000000000000000000081526004016102fe90610860565b60405180910390fd5b7f2499a5330ab0979cc612135e7883ebc3cd5c9f7a8508f042540c34723348f6323382604051610338929190610880565b60405180910390a161034861049b565b50565b6103536103ce565b600073ffffffffffffffffffffffffffffffffffffffff168173ffffffffffffffffffffffffffffffffffffffff16036103c2576040517f08c379a00000000000000000000000000000000000000000000000000000000081526004016103b99061091b565b60405180910390fd5b6103cb816104a4565b50565b6103d6610591565b73ffffffffffffffffffffffffffffffffffffffff166103f461027f565b73ffffffffffffffffffffffffffffffffffffffff161461044a576040517f08c379a000000000000000000000000000000000000000000000000000000000815260040161044190610987565b60405180910390fd5b565b600260015403610491576040517f08c379a0000000000000000000000000000000000000000000000000000000008152600401610488906109f3565b60405180910390fd5b6002600181905550565b60018081905550565b60008060009054906101000a900473ffffffffffffffffffffffffffffffffffffffff169050816000806101000a81548173ffffffffffffffffffffffffffffffffffffffff021916908373ffffffffffffffffffffffffffffffffffffffff1602179055508173ffffffffffffffffffffffffffffffffffffffff168173ffffffffffffffffffffffffffffffffffffffff167f8be0079c531659141344cd1fd0a4f28419497f9722a3daafe3b4186f6b6457e060405160405180910390a35050565b60008060009054906101000a900473ffffffffffffffffffffffffffffffffffffffff16905090565b600033905090565b600073ffffffffffffffffffffffffffffffffffffffff82169050919050565b60006105c482610599565b9050919050565b6105d4816105b9565b82525050565b60006020820190506105ef60008301846105cb565b92915050565b600080fd5b6000819050919050565b61060d816105fa565b811461061857600080fd5b50565b60008135905061062a81610604565b92915050565b600060208284031215610646576106456105f5565b5b60006106548482850161061b565b91505092915050565b610666816105fa565b82525050565b6000602082019050610681600083018461065d565b92915050565b610690816105b9565b811461069b57600080fd5b50565b6000813590506106ad81610687565b92915050565b6000602082840312156106c9576106c86105f5565b5b60006106d78482850161069e565b91505092915050565b600081905092915050565b50565b60006106fb6000836106e0565b9150610706826106eb565b600082019050919050565b600061071c826106ee565b9150819050919050565b600082825260208201905092915050565b7f5472616e73666572206661696c65640000000000000000000000000000000000600082015250565b600061076d600f83610726565b915061077882610737565b602082019050919050565b6000602082019050818103600083015261079c81610760565b9050919050565b7f4e487b7100000000000000000000000000000000000000000000000000000000600052601160045260246000fd5b60006107dd826105fa565b91506107e8836105fa565b92508282026107f6816105fa565b9150828204841483151761080d5761080c6107a3565b5b5092915050565b7f496e636f7272656374207061796d656e7420616d6f756e740000000000000000600082015250565b600061084a601883610726565b915061085582610814565b602082019050919050565b600060208201905081810360008301526108798161083d565b9050919050565b600060408201905061089560008301856105cb565b6108a2602083018461065d565b9392505050565b7f4f776e61626c653a206e6577206f776e657220697320746865207a65726f206160008201527f6464726573730000000000000000000000000000000000000000000000000000602082015250565b6000610905602683610726565b9150610910826108a9565b604082019050919050565b60006020820190508181036000830152610934816108f8565b9050919050565b7f4f776e61626c653a2063616c6c6572206973206e6f7420746865206f776e6572600082015250565b6000610971602083610726565b915061097c8261093b565b602082019050919050565b600060208201905081810360008301526109a081610964565b9050919050565b7f5265656e7472616e637947756172643a207265656e7472616e742063616c6c00600082015250565b60006109dd601f83610726565b91506109e8826109a7565b602082019050919050565b60006020820190508181036000830152610a0c816109d0565b905091905056fea2646970667358221220a54935f39e1e67e3add3d5d8d075494bf021eef805964418d23e0b7ee9a2fc4b64736f6c63430008130033",
  "linkReferences": {},
  "deployedLinkReferences": {}
}