{"contracts/DLE.sol":{"DLE":{"abi":[{"inputs":[{"components":[{"internalType":"string","name":"name","type":"string"},{"internalType":"string","name":"symbol","type":"string"},{"internalType":"string","name":"location","type":"string"},{"internalType":"string","name":"coordinates","type":"string"},{"internalType":"uint256","name":"jurisdiction","type":"uint256"},{"internalType":"uint256","name":"oktmo","type":"uint256"},{"internalType":"string[]","name":"okvedCodes","type":"string[]"},{"internalType":"uint256","name":"kpp","type":"uint256"},{"internalType":"uint256","name":"quorumPercentage","type":"uint256"},{"internalType":"address[]","name":"initialPartners","type":"address[]"},{"internalType":"uint256[]","name":"initialAmounts","type":"uint256[]"},{"internalType":"uint256[]","name":"supportedChainIds","type":"uint256[]"}],"internalType":"struct DLE.DLEConfig","name":"config","type":"tuple"},{"internalType":"uint256","name":"_currentChainId","type":"uint256"}],"stateMutability":"nonpayable","type":"constructor"},{"inputs":[{"internalType":"address","name":"spender","type":"address"},{"internalType":"uint256","name":"allowance","type":"uint256"},{"internalType":"uint256","name":"needed","type":"uint256"}],"name":"ERC20InsufficientAllowance","type":"error"},{"inputs":[{"internalType":"address","name":"sender","type":"address"},{"internalType":"uint256","name":"balance","type":"uint256"},{"internalType":"uint256","name":"needed","type":"uint256"}],"name":"ERC20InsufficientBalance","type":"error"},{"inputs":[{"internalType":"address","name":"approver","type":"address"}],"name":"ERC20InvalidApprover","type":"error"},{"inputs":[{"internalType":"address","name":"receiver","type":"address"}],"name":"ERC20InvalidReceiver","type":"error"},{"inputs":[{"internalType":"address","name":"sender","type":"address"}],"name":"ERC20InvalidSender","type":"error"},{"inputs":[{"internalType":"address","name":"spender","type":"address"}],"name":"ERC20InvalidSpender","type":"error"},{"inputs":[],"name":"ReentrancyGuardReentrantCall","type":"error"},{"anonymous":false,"inputs":[{"indexed":true,"internalType":"address","name":"owner","type":"address"},{"indexed":true,"internalType":"address","name":"spender","type":"address"},{"indexed":false,"internalType":"uint256","name":"value","type":"uint256"}],"name":"Approval","type":"event"},{"anonymous":false,"inputs":[{"indexed":false,"internalType":"uint256","name":"proposalId","type":"uint256"},{"indexed":false,"internalType":"uint256","name":"fromChainId","type":"uint256"},{"indexed":false,"internalType":"uint256","name":"toChainId","type":"uint256"}],"name":"CrossChainExecutionSync","type":"event"},{"anonymous":false,"inputs":[{"indexed":false,"internalType":"uint256","name":"operationId","type":"uint256"},{"indexed":false,"internalType":"uint256","name":"fromChainId","type":"uint256"},{"indexed":false,"internalType":"uint256","name":"toChainId","type":"uint256"}],"name":"CrossChainMultiSigSync","type":"event"},{"anonymous":false,"inputs":[{"indexed":false,"internalType":"uint256","name":"proposalId","type":"uint256"},{"indexed":false,"internalType":"uint256","name":"fromChainId","type":"uint256"},{"indexed":false,"internalType":"uint256","name":"toChainId","type":"uint256"}],"name":"CrossChainVoteSync","type":"event"},{"anonymous":false,"inputs":[{"indexed":false,"internalType":"string","name":"name","type":"string"},{"indexed":false,"internalType":"string","name":"symbol","type":"string"},{"indexed":false,"internalType":"string","name":"location","type":"string"},{"indexed":false,"internalType":"string","name":"coordinates","type":"string"},{"indexed":false,"internalType":"uint256","name":"jurisdiction","type":"uint256"},{"indexed":false,"internalType":"uint256","name":"oktmo","type":"uint256"},{"indexed":false,"internalType":"string[]","name":"okvedCodes","type":"string[]"},{"indexed":false,"internalType":"uint256","name":"kpp","type":"uint256"},{"indexed":false,"internalType":"address","name":"tokenAddress","type":"address"},{"indexed":false,"internalType":"uint256[]","name":"supportedChainIds","type":"uint256[]"}],"name":"DLEInitialized","type":"event"},{"anonymous":false,"inputs":[{"indexed":false,"internalType":"address[]","name":"partners","type":"address[]"},{"indexed":false,"internalType":"uint256[]","name":"amounts","type":"uint256[]"}],"name":"InitialTokensDistributed","type":"event"},{"anonymous":false,"inputs":[{"indexed":false,"internalType":"bytes32","name":"moduleId","type":"bytes32"},{"indexed":false,"internalType":"address","name":"moduleAddress","type":"address"}],"name":"ModuleAdded","type":"event"},{"anonymous":false,"inputs":[{"indexed":false,"internalType":"bytes32","name":"moduleId","type":"bytes32"}],"name":"ModuleRemoved","type":"event"},{"anonymous":false,"inputs":[{"indexed":false,"internalType":"uint256","name":"operationId","type":"uint256"},{"indexed":false,"internalType":"bytes32","name":"operationHash","type":"bytes32"}],"name":"MultiSigExecuted","type":"event"},{"anonymous":false,"inputs":[{"indexed":false,"internalType":"uint256","name":"operationId","type":"uint256"},{"indexed":false,"internalType":"address","name":"initiator","type":"address"},{"indexed":false,"internalType":"bytes32","name":"operationHash","type":"bytes32"}],"name":"MultiSigOperationCreated","type":"event"},{"anonymous":false,"inputs":[{"indexed":false,"internalType":"uint256","name":"operationId","type":"uint256"},{"indexed":false,"internalType":"address","name":"signer","type":"address"},{"indexed":false,"internalType":"bool","name":"support","type":"bool"},{"indexed":false,"internalType":"uint256","name":"signaturePower","type":"uint256"}],"name":"MultiSigSigned","type":"event"},{"anonymous":false,"inputs":[{"indexed":false,"internalType":"uint256","name":"proposalId","type":"uint256"},{"indexed":false,"internalType":"address","name":"initiator","type":"address"},{"indexed":false,"internalType":"string","name":"description","type":"string"}],"name":"ProposalCreated","type":"event"},{"anonymous":false,"inputs":[{"indexed":false,"internalType":"uint256","name":"proposalId","type":"uint256"},{"indexed":false,"internalType":"bytes","name":"operation","type":"bytes"}],"name":"ProposalExecuted","type":"event"},{"anonymous":false,"inputs":[{"indexed":false,"internalType":"uint256","name":"proposalId","type":"uint256"},{"indexed":false,"internalType":"address","name":"voter","type":"address"},{"indexed":false,"internalType":"bool","name":"support","type":"bool"},{"indexed":false,"internalType":"uint256","name":"votingPower","type":"uint256"}],"name":"ProposalVoted","type":"event"},{"anonymous":false,"inputs":[{"indexed":false,"internalType":"uint256","name":"proposalId","type":"uint256"}],"name":"SyncCompleted","type":"event"},{"anonymous":false,"inputs":[{"indexed":true,"internalType":"address","name":"from","type":"address"},{"indexed":true,"internalType":"address","name":"to","type":"address"},{"indexed":false,"internalType":"uint256","name":"value","type":"uint256"}],"name":"Transfer","type":"event"},{"inputs":[{"internalType":"bytes32","name":"","type":"bytes32"}],"name":"activeModules","outputs":[{"internalType":"bool","name":"","type":"bool"}],"stateMutability":"view","type":"function"},{"inputs":[{"internalType":"bytes32","name":"_moduleId","type":"bytes32"},{"internalType":"address","name":"_moduleAddress","type":"address"}],"name":"addModule","outputs":[],"stateMutability":"nonpayable","type":"function"},{"inputs":[{"internalType":"address","name":"owner","type":"address"},{"internalType":"address","name":"spender","type":"address"}],"name":"allowance","outputs":[{"internalType":"uint256","name":"","type":"uint256"}],"stateMutability":"view","type":"function"},{"inputs":[{"internalType":"address","name":"spender","type":"address"},{"internalType":"uint256","name":"value","type":"uint256"}],"name":"approve","outputs":[{"internalType":"bool","name":"","type":"bool"}],"stateMutability":"nonpayable","type":"function"},{"inputs":[{"internalType":"address","name":"account","type":"address"}],"name":"balanceOf","outputs":[{"internalType":"uint256","name":"","type":"uint256"}],"stateMutability":"view","type":"function"},{"inputs":[{"internalType":"uint256","name":"_chainId","type":"uint256"}],"name":"checkChainConnection","outputs":[{"internalType":"bool","name":"isAvailable","type":"bool"}],"stateMutability":"view","type":"function"},{"inputs":[{"internalType":"uint256","name":"_operationId","type":"uint256"}],"name":"checkMultiSigResult","outputs":[{"internalType":"bool","name":"passed","type":"bool"},{"internalType":"bool","name":"quorumReached","type":"bool"}],"stateMutability":"view","type":"function"},{"inputs":[{"internalType":"uint256","name":"_proposalId","type":"uint256"}],"name":"checkProposalResult","outputs":[{"internalType":"bool","name":"passed","type":"bool"},{"internalType":"bool","name":"quorumReached","type":"bool"}],"stateMutability":"view","type":"function"},{"inputs":[{"internalType":"uint256","name":"_proposalId","type":"uint256"}],"name":"checkSyncReadiness","outputs":[{"internalType":"bool","name":"allChainsReady","type":"bool"}],"stateMutability":"view","type":"function"},{"inputs":[{"internalType":"bytes32","name":"_operationHash","type":"bytes32"},{"internalType":"uint256","name":"_duration","type":"uint256"}],"name":"createMultiSigOperation","outputs":[{"internalType":"uint256","name":"","type":"uint256"}],"stateMutability":"nonpayable","type":"function"},{"inputs":[{"internalType":"string","name":"_description","type":"string"},{"internalType":"uint256","name":"_duration","type":"uint256"},{"internalType":"bytes","name":"_operation","type":"bytes"},{"internalType":"uint256","name":"_governanceChainId","type":"uint256"}],"name":"createProposal","outputs":[{"internalType":"uint256","name":"","type":"uint256"}],"stateMutability":"nonpayable","type":"function"},{"inputs":[],"name":"currentChainId","outputs":[{"internalType":"uint256","name":"","type":"uint256"}],"stateMutability":"view","type":"function"},{"inputs":[],"name":"decimals","outputs":[{"internalType":"uint8","name":"","type":"uint8"}],"stateMutability":"view","type":"function"},{"inputs":[],"name":"dleInfo","outputs":[{"internalType":"string","name":"name","type":"string"},{"internalType":"string","name":"symbol","type":"string"},{"internalType":"string","name":"location","type":"string"},{"internalType":"string","name":"coordinates","type":"string"},{"internalType":"uint256","name":"jurisdiction","type":"uint256"},{"internalType":"uint256","name":"oktmo","type":"uint256"},{"internalType":"uint256","name":"kpp","type":"uint256"},{"internalType":"uint256","name":"creationTimestamp","type":"uint256"},{"internalType":"bool","name":"isActive","type":"bool"}],"stateMutability":"view","type":"function"},{"inputs":[{"internalType":"uint256","name":"_operationId","type":"uint256"}],"name":"executeMultiSigOperation","outputs":[],"stateMutability":"nonpayable","type":"function"},{"inputs":[{"internalType":"uint256","name":"_proposalId","type":"uint256"}],"name":"executeProposal","outputs":[],"stateMutability":"nonpayable","type":"function"},{"inputs":[{"internalType":"uint256","name":"","type":"uint256"}],"name":"executedMultiSig","outputs":[{"internalType":"bool","name":"","type":"bool"}],"stateMutability":"view","type":"function"},{"inputs":[{"internalType":"uint256","name":"","type":"uint256"}],"name":"executedProposals","outputs":[{"internalType":"bool","name":"","type":"bool"}],"stateMutability":"view","type":"function"},{"inputs":[],"name":"getCurrentChainId","outputs":[{"internalType":"uint256","name":"","type":"uint256"}],"stateMutability":"view","type":"function"},{"inputs":[],"name":"getDLEInfo","outputs":[{"components":[{"internalType":"string","name":"name","type":"string"},{"internalType":"string","name":"symbol","type":"string"},{"internalType":"string","name":"location","type":"string"},{"internalType":"string","name":"coordinates","type":"string"},{"internalType":"uint256","name":"jurisdiction","type":"uint256"},{"internalType":"uint256","name":"oktmo","type":"uint256"},{"internalType":"string[]","name":"okvedCodes","type":"string[]"},{"internalType":"uint256","name":"kpp","type":"uint256"},{"internalType":"uint256","name":"creationTimestamp","type":"uint256"},{"internalType":"bool","name":"isActive","type":"bool"}],"internalType":"struct DLE.DLEInfo","name":"","type":"tuple"}],"stateMutability":"view","type":"function"},{"inputs":[{"internalType":"bytes32","name":"_moduleId","type":"bytes32"}],"name":"getModuleAddress","outputs":[{"internalType":"address","name":"","type":"address"}],"stateMutability":"view","type":"function"},{"inputs":[],"name":"getSupportedChainCount","outputs":[{"internalType":"uint256","name":"","type":"uint256"}],"stateMutability":"pure","type":"function"},{"inputs":[{"internalType":"uint256","name":"_index","type":"uint256"}],"name":"getSupportedChainId","outputs":[{"internalType":"uint256","name":"","type":"uint256"}],"stateMutability":"pure","type":"function"},{"inputs":[{"internalType":"uint256","name":"_chainId","type":"uint256"}],"name":"isChainSupported","outputs":[{"internalType":"bool","name":"","type":"bool"}],"stateMutability":"view","type":"function"},{"inputs":[{"internalType":"bytes32","name":"_moduleId","type":"bytes32"}],"name":"isModuleActive","outputs":[{"internalType":"bool","name":"","type":"bool"}],"stateMutability":"view","type":"function"},{"inputs":[{"internalType":"bytes32","name":"","type":"bytes32"}],"name":"modules","outputs":[{"internalType":"address","name":"","type":"address"}],"stateMutability":"view","type":"function"},{"inputs":[],"name":"multiSigCounter","outputs":[{"internalType":"uint256","name":"","type":"uint256"}],"stateMutability":"view","type":"function"},{"inputs":[{"internalType":"uint256","name":"","type":"uint256"}],"name":"multiSigOperations","outputs":[{"internalType":"bytes32","name":"operationHash","type":"bytes32"},{"internalType":"uint256","name":"forSignatures","type":"uint256"},{"internalType":"uint256","name":"againstSignatures","type":"uint256"},{"internalType":"bool","name":"executed","type":"bool"},{"internalType":"uint256","name":"deadline","type":"uint256"},{"internalType":"address","name":"initiator","type":"address"}],"stateMutability":"view","type":"function"},{"inputs":[],"name":"name","outputs":[{"internalType":"string","name":"","type":"string"}],"stateMutability":"view","type":"function"},{"inputs":[],"name":"proposalCounter","outputs":[{"internalType":"uint256","name":"","type":"uint256"}],"stateMutability":"view","type":"function"},{"inputs":[{"internalType":"uint256","name":"","type":"uint256"}],"name":"proposals","outputs":[{"internalType":"uint256","name":"id","type":"uint256"},{"internalType":"string","name":"description","type":"string"},{"internalType":"uint256","name":"forVotes","type":"uint256"},{"internalType":"uint256","name":"againstVotes","type":"uint256"},{"internalType":"bool","name":"executed","type":"bool"},{"internalType":"uint256","name":"deadline","type":"uint256"},{"internalType":"address","name":"initiator","type":"address"},{"internalType":"bytes","name":"operation","type":"bytes"}],"stateMutability":"view","type":"function"},{"inputs":[],"name":"quorumPercentage","outputs":[{"internalType":"uint256","name":"","type":"uint256"}],"stateMutability":"view","type":"function"},{"inputs":[{"internalType":"bytes32","name":"_moduleId","type":"bytes32"}],"name":"removeModule","outputs":[],"stateMutability":"nonpayable","type":"function"},{"inputs":[{"internalType":"uint256","name":"_operationId","type":"uint256"},{"internalType":"bool","name":"_support","type":"bool"}],"name":"signMultiSigOperation","outputs":[],"stateMutability":"nonpayable","type":"function"},{"inputs":[{"internalType":"uint256","name":"","type":"uint256"}],"name":"supportedChains","outputs":[{"internalType":"bool","name":"","type":"bool"}],"stateMutability":"view","type":"function"},{"inputs":[],"name":"symbol","outputs":[{"internalType":"string","name":"","type":"string"}],"stateMutability":"view","type":"function"},{"inputs":[{"internalType":"uint256","name":"_proposalId","type":"uint256"},{"internalType":"uint256","name":"_fromChainId","type":"uint256"},{"internalType":"bytes","name":"","type":"bytes"}],"name":"syncExecutionFromChain","outputs":[],"stateMutability":"nonpayable","type":"function"},{"inputs":[{"internalType":"uint256","name":"_operationId","type":"uint256"},{"internalType":"uint256","name":"_fromChainId","type":"uint256"},{"internalType":"uint256","name":"_forSignatures","type":"uint256"},{"internalType":"uint256","name":"_againstSignatures","type":"uint256"},{"internalType":"bytes","name":"","type":"bytes"}],"name":"syncMultiSigFromChain","outputs":[],"stateMutability":"nonpayable","type":"function"},{"inputs":[{"internalType":"uint256","name":"_proposalId","type":"uint256"}],"name":"syncToAllChains","outputs":[],"stateMutability":"nonpayable","type":"function"},{"inputs":[{"internalType":"uint256","name":"_proposalId","type":"uint256"},{"internalType":"uint256","name":"_fromChainId","type":"uint256"},{"internalType":"uint256","name":"_forVotes","type":"uint256"},{"internalType":"uint256","name":"_againstVotes","type":"uint256"},{"internalType":"bytes","name":"","type":"bytes"}],"name":"syncVoteFromChain","outputs":[],"stateMutability":"nonpayable","type":"function"},{"inputs":[],"name":"totalSupply","outputs":[{"internalType":"uint256","name":"","type":"uint256"}],"stateMutability":"view","type":"function"},{"inputs":[{"internalType":"address","name":"to","type":"address"},{"internalType":"uint256","name":"value","type":"uint256"}],"name":"transfer","outputs":[{"internalType":"bool","name":"","type":"bool"}],"stateMutability":"nonpayable","type":"function"},{"inputs":[{"internalType":"address","name":"from","type":"address"},{"internalType":"address","name":"to","type":"address"},{"internalType":"uint256","name":"value","type":"uint256"}],"name":"transferFrom","outputs":[{"internalType":"bool","name":"","type":"bool"}],"stateMutability":"nonpayable","type":"function"},{"inputs":[{"internalType":"uint256","name":"_proposalId","type":"uint256"},{"internalType":"bool","name":"_support","type":"bool"}],"name":"vote","outputs":[],"stateMutability":"nonpayable","type":"function"}],"evm":{"bytecode":{"linkReferences":{},"object":"608060405234620011075762003e8380380390816200001e8162001168565b918239604081838101031262001107578051906001600160401b03821162001107576101809283838301828401031262001107576040519384016001600160401b0381118582101762000b7b57604052818301516001600160401b038111620011075762000094908284019085850101620011b3565b8452818301602001516001600160401b0381116200110757620000bf908284019085850101620011b3565b6020850152818301604001516001600160401b0381116200110757620000ed908284019085850101620011b3565b6040850152818301606001516001600160401b03811162001107576200011b908284019085850101620011b3565b60608501528183016080818101519086015260a0808201519086015260c001516001600160401b038111620011075783830101818301601f8201121562001107578051620001736200016d826200120a565b62001168565b9160208084848152019260051b820101918486018311620011075760208201905b83821062001134575050505060c085015281830160e08181015190860152610100808201519086015261012001516001600160401b0381116200110757818301601f8286860101011215620011075780848401015190620001f96200016d836200120a565b91602083828152019184860160208360051b838a8a01010101116200110757916020838888010101925b60208360051b828a8a0101010184106200110c575050505061012085015281830161014001516001600160401b03811162001107576200026b90828401908585010162001222565b6101408501528183016101600151926001600160401b03841162001107576020936200029d9284019184010162001222565b610160840152015181516020830151815191939092916001600160401b03811162000b7b57620002cf6003546200127f565b601f8111620010b4575b506020601f82116001146200104457819293949560009262001038575b50508160011b916000199060031b1c1916176003555b82516001600160401b03811162000b7b576200032a6004546200127f565b601f811162000fe5575b506020601f821160011462000f76578192939460009262000f6a575b50508160011b916000199060031b1c1916176004555b6001600555805191602082015160408301516060840151608085015160a08601519060c08701519260e088015194604051968761014081011060018060401b036101408a01111762000b7b5761014088016040528a8852602088015260408701526060860152608085015260a084015260c083015260e0820152426101008201526001610120820152835160018060401b03811162000b7b576200040c6006546200127f565b601f811162000f17575b506020601f821160011462000ea757819293949560009262000e9b575b50508160011b916000199060031b1c1916176006555b602081015180519093906001600160401b03811162000b7b576200046f6007546200127f565b601f811162000e48575b506020601f821160011462000dd857819293949560009262000dcc575b50508160011b916000199060031b1c1916176007555b604082015180519093906001600160401b03811162000b7b57620004d26008546200127f565b601f811162000d79575b506020601f821160011462000d0957819293949560009262000cfd575b50508160011b916000199060031b1c1916176008555b606083015180519093906001600160401b03811162000b7b57620005356009546200127f565b601f811162000caa575b506020601f821160011462000c3a57819293949560009262000c2e575b50508160011b916000199060031b1c1916176009555b6080810151600a5560a0810151600b5560c081015180519068010000000000000000821162000b7b57600c5482600c5580831062000b91575b50600c60009081527fdf6966c971051c3d54ec59162606531493a51404a002842f56009d7e5cf4a8c792916020015b82821062000a495786866101208760e0810151600d55610100810151600e550151151560ff8019600f5416911617600f5561010082015160105560135560005b61016082015190815181101562000660576200063b816200065a93620012e5565b5160005260186020526040600020600160ff19825416179055620012d5565b6200061a565b8261012081015151610140820151510362000a04576101208101515115620009bf5760005b6101208201518051821015620007f1576001600160a01b03908190620006ad908490620012e5565b511615620007bd57620006c682610140850151620012e5565b51156200078a57620006de82610120850151620012e5565b511690620006f281610140850151620012e5565b51918015620007715760025483810181116200075b577fddf252ad1be2c89b69c2b068fc378daa952ba7f163c4a11628f55a4df523b3ef60208562000755966000940160025584845283825260408420818154019055604051908152a3620012d5565b62000685565b634e487b7160e01b600052601160045260246000fd5b60405163ec442f0560e01b815260006004820152602490fd5b60405162461bcd60e51b815260206004820152600b60248201526a16995c9bc8185b5bdd5b9d60aa1b6044820152606490fd5b60405162461bcd60e51b815260206004820152600c60248201526b5a65726f206164647265737360a01b6044820152606490fd5b8261012081015161014082015190604051916040830160408452825180915260206060850193019060005b8181106200099f57867ff9e7aa11bcdcbb8ac33b5dba92fca799ef091e54c29270822065501d8edea1a587806200085c8989838203602085015262001310565b0390a1805160208201516040830151926060810151608082015190620008e160a084015191620008d260c086015198620008c361016060e089015198015198620008b46040519b6101408d526101408d019062001346565b908b820360208d015262001346565b9089820360408b015262001346565b90878203606089015262001346565b91608086015260a085015283810360c0850152845180825260208201916020808360051b8301019701926000915b8383106200096f577f11b248463a1620b36a975da8f250009f56fb5dd0e9d5027a90a834d0ee84d6f688806200095c8c8b8b60e08501523061010085015283820361012085015262001310565b0390a1604051612b1590816200136e8239f35b90919293976020806200098f600193601f198682030187528c5162001346565b9a0193019301919392906200090f565b82516001600160a01b03168552602094850194909201916001016200081c565b60405162461bcd60e51b815260206004820152601360248201527f4e6f20696e697469616c20706172746e657273000000000000000000000000006044820152606490fd5b60405162461bcd60e51b815260206004820152601660248201527f417272617973206c656e677468206d69736d61746368000000000000000000006044820152606490fd5b80518051906001600160401b03821162000b7b5762000a6986546200127f565b601f811162000b39575b50602090601f831160011462000ac457928260019493602093869560009262000ab8575b5050600019600383901b1c191690841b1787555b01940191019092620005da565b01519050388062000a97565b908660005260206000209160005b601f198516811062000b20575083602093600196938796938794601f1981161062000b06575b505050811b01875562000aab565b015160001960f88460031b161c1916905538808062000af8565b9192602060018192868501518155019401920162000ad2565b62000b6990876000526020600020601f850160051c8101916020861062000b70575b601f0160051c0190620012bc565b3862000a73565b909150819062000b5b565b634e487b7160e01b600052604160045260246000fd5b600c6000527fdf6966c971051c3d54ec59162606531493a51404a002842f56009d7e5cf4a8c7908382015b818301811062000bce575050620005ab565b8062000bdd600192546200127f565b8062000bec575b500162000bbc565b601f8111831462000c045750600081555b3862000be4565b60009082825262000c24601f60208420920160051c8201858301620012bc565b8183555562000bfd565b0151905038806200055c565b600960005260206000209060005b601f198416811062000c91575060019394959683601f1981161062000c77575b505050811b0160095562000572565b015160001960f88460031b161c1916905538808062000c68565b9091602060018192858b01518155019301910162000c48565b600960005262000cf6907f6e1540171b6c0c960b71a7020d9f60077f6af931a8bbf590da0223dacf75c7af601f840160051c8101916020851062000b7057601f0160051c0190620012bc565b386200053f565b015190503880620004f9565b600860005260206000209060005b601f198416811062000d60575060019394959683601f1981161062000d46575b505050811b016008556200050f565b015160001960f88460031b161c1916905538808062000d37565b9091602060018192858b01518155019301910162000d17565b600860005262000dc5907ff3f7a9fe364faab93b216da50a3214154f22a0a2b415b23a84c8169e8b636ee3601f840160051c8101916020851062000b7057601f0160051c0190620012bc565b38620004dc565b01519050388062000496565b600760005260206000209060005b601f198416811062000e2f575060019394959683601f1981161062000e15575b505050811b01600755620004ac565b015160001960f88460031b161c1916905538808062000e06565b9091602060018192858b01518155019301910162000de6565b600760005262000e94907fa66cc928b5edb82af9bd49922954155ab7b0942694bea4ce44661d9a8736c688601f840160051c8101916020851062000b7057601f0160051c0190620012bc565b3862000479565b01519050388062000433565b600660005260206000209060005b601f198416811062000efe575060019394959683601f1981161062000ee4575b505050811b0160065562000449565b015160001960f88460031b161c1916905538808062000ed5565b9091602060018192858b01518155019301910162000eb5565b600660005262000f63907ff652222313e28459528d920b65115c16c04f3efc82aaedc97be59f3f377c0d3f601f840160051c8101916020851062000b7057601f0160051c0190620012bc565b3862000416565b01519050388062000350565b600460005260206000209060005b601f198416811062000fcc5750600193949583601f1981161062000fb2575b505050811b0160045562000366565b015160001960f88460031b161c1916905538808062000fa3565b9091602060018192858a01518155019301910162000f84565b600460005262001031907f8a35acfbc15ff81a39ae7d344fd709f28e8600b4aa8c65c6b64bfe7fe36bd19b601f840160051c8101916020851062000b7057601f0160051c0190620012bc565b3862000334565b015190503880620002f6565b600360005260206000209060005b601f19841681106200109b575060019394959683601f1981161062001081575b505050811b016003556200030c565b015160001960f88460031b161c1916905538808062001072565b9091602060018192858b01518155019301910162001052565b600360005262001100907fc2575a0e9e593c00f959f8c92f12db2869c3395a3b0502d05e2516446f71f85b601f840160051c8101916020851062000b7057601f0160051c0190620012bc565b38620002d9565b600080fd5b8351916001600160a01b03831683036200110757602081819482935201940193915062000223565b81516001600160401b03811162001107576020916200115c8392838a8c0191880101620011b3565b81520191019062000194565b6040519190601f01601f191682016001600160401b0381118382101762000b7b57604052565b60005b838110620011a25750506000910152565b818101518382015260200162001191565b81601f82011215620011075780516001600160401b03811162000b7b57620011e5601f8201601f191660200162001168565b928184526020828401011162001107576200120791602080850191016200118e565b90565b6001600160401b03811162000b7b5760051b60200190565b9080601f830112156200110757815190620012416200016d836200120a565b9182938184526020808095019260051b82010192831162001107578301905b8282106200126f575050505090565b8151815290830190830162001260565b90600182811c92168015620012b1575b60208310146200129b57565b634e487b7160e01b600052602260045260246000fd5b91607f16916200128f565b818110620012c8575050565b60008155600101620012bc565b60001981146200075b5760010190565b8051821015620012fa5760209160051b010190565b634e487b7160e01b600052603260045260246000fd5b90815180825260208080930193019160005b82811062001331575050505090565b83518552938101939281019260010162001322565b9060209162001361815180928185528580860191016200118e565b601f01601f191601019056fe60808060405260048036101561001457600080fd5b60003560e01c918263013cf08b14611dda57508163044bc2bd14611cab578163057b207414611c9057816306fdde0314611bc2578163095ea7b314611b235781630c0512e914611b055781630d61b519146118ff57816318160ddd146118e1578163204c5d1f1461164e57816322dbefbb14610b3c57816323b872dd146115565781632ee09598146114bc578163313ce567146114a057816335324eee146113385781633b60288a146113095781634114509b146111ef578163456d10c1146111095781634b145793146107455781634de184f6146110e65781634fa76ec9146110eb5781635221c1f0146110e6578163548d496f146110b75781635cf0e8a4146110995781636cbadbfa1461109957816370a082311461105f5781637ce288ea14610f6b5781637e5a9b4714610f3c578163893d692a14610e205781638c7b04c914610e0257816395d89b4114610d175781639a49bdde14610cf2578163a9059cbb14610cc1578163af89d2c414610c92578163b00e073014610b6e578163b0b6cc1a14610b3c578163b359451014610774578163b3fe8bcb14610745578163c51cab3a146106d5578163c9d27afe1461054e578163ccd7a49014610388578163dd62ed3e14610337578163e49a62e914610310578163eced3dfb146102f4575063f2c26a471461020557600080fd5b346102ef5760003660031901126102ef576102a46040516102308161022981611edb565b03826121dd565b6040516102408161022981611f7f565b604051906102588261025181612006565b03836121dd565b60405191610270836102698161208d565b03846121dd565b600a5492600b546102ce600d54926102c0600e54956102b260ff600f5416986040519c8d9c8d610120908181520190612222565b8c810360208e015290612222565b908a820360408c0152612222565b9088820360608a0152612222565b94608087015260a086015260c085015260e084015215156101008301520390f35b600080fd5b346102ef5760003660031901126102ef57602090604051908152f35b346102ef5760203660031901126102ef5761032d6020913561278c565b6040519015158152f35b346102ef5760403660031901126102ef576103506122b8565b6103586122ce565b9060018060a01b038091166000526001602052604060002091166000526020526020604060002054604051908152f35b346102ef576103963661234c565b9061039f6125f5565b80600052602092601784526040600020906103bc825415156126c5565b8082015442101561051a576103d860ff60038401541615612711565b60068201903360005281865260ff604060002054166104e5573360005260008652604060002054156104ad57509361048e917f78b8e65c466df05ea5ddf0593b44648eca1f35c039f180e31257a6f1bdd005dc95336000526000835260406000205492526040600020600160ff198254161790558460001461049857600101610462828254612449565b90555b604080519384523360208501529315159383019390935260608201929092529081906080820190565b0390a16001600555005b6002016104a6828254612449565b9055610465565b60405162461bcd60e51b815290810186905260116024820152702737903a37b5b2b739903a379039b4b3b760791b6044820152606490fd5b60405162461bcd60e51b8152908101869052600e60248201526d105b1c9958591e481cda59db995960921b6044820152606490fd5b60405162461bcd60e51b8152908101859052600d60248201526c14da59db9a5b99c8195b991959609a1b6044820152606490fd5b346102ef5761055c3661234c565b906105656125f5565b80600052602092601684526040600020906105828383541461255d565b60058201544210156106a25761059e60ff8284015416156125a9565b60088201903360005281865260ff6040600020541661066e5733600052600086526040600020541561063657509361048e917f78975aaf742630489badd22949b88ac50eaaea576339ee05440b671a33bfb6a995336000526000835260406000205492526040600020600160ff198254161790558460001461062857600201610462828254612449565b6003016104a6828254612449565b60405162461bcd60e51b815290810186905260116024820152704e6f20746f6b656e7320746f20766f746560781b6044820152606490fd5b60405162461bcd60e51b8152908101869052600d60248201526c105b1c9958591e481d9bdd1959609a1b6044820152606490fd5b60405162461bcd60e51b8152908101859052600c60248201526b159bdd1a5b99c8195b99195960a21b6044820152606490fd5b346102ef5760203660031901126102ef578060c091356000526017602052604060002090815491600181015491600282015460ff6003840154169183015492600560018060a01b0391015416936040519586526020860152604085015215156060840152608083015260a0820152f35b346102ef5760203660031901126102ef57356000526015602052602060ff604060002054166040519015158152f35b346102ef5760803660031901126102ef57803567ffffffffffffffff918282116102ef57366023830112156102ef576107b7602492369084818501359101612263565b908235936044358181116102ef576107d2903690840161229a565b9460643595336000526020966000885260406000205415610aed576107f883151561246c565b806000526018885261081160ff604060002054166124b8565b6000526018875260ff6040600020541615610ab45760115495610833876124fa565b601155866000526016885260406000208781556001938482018851878111610aa057610869816108638454611ea1565b84612509565b8b8c601f8311600114610a2b5750918160079594926108bc94600091610a20575b50600019600383901b1c191690891b1790555b600060028401556000600384015588830160ff19815416905542612449565b600582015560068101336001600160601b0360a01b82541617905501948251948511610a0d5750506108f8836108f28654611ea1565b86612509565b8690601f841160011461098057928061096a959381937f7585f467599d0f008985f231af99293be388626ac16ca59505c2f8f88969cd639896600094610975575b50501b916000199060031b1c19161790555b6040519182918583523387840152606060408401526060830190612222565b0390a1604051908152f35b015192508a80610939565b90601f9392931983169185600052886000209260005b8a8282106109f9575050917f7585f467599d0f008985f231af99293be388626ac16ca59505c2f8f88969cd63979593918561096a989694106109e0575b505050811b01905561094b565b015160001960f88460031b161c191690558880806109d3565b838501518655948701949384019301610996565b604190634e487b7160e01b600052526000fd5b90508c01518f61088a565b8892918c601f1984168660005283600020936000905b828210610a855750509160079897959391856108bc98969410610a6c575b505050811b01905561089d565b015160001960f88460031b161c191690558f808e610a5f565b9284015185558c9690940193928201928f9290810190610a41565b8460418a634e487b7160e01b600052526000fd5b60405162461bcd60e51b815280850188905260138188015272436861696e206e6f7420617661696c61626c6560681b6044820152606490fd5b60405162461bcd60e51b81528086018990526023818901527f4d75737420686f6c6420746f6b656e7320746f206372656174652070726f706f6044820152621cd85b60ea1b6064820152608490fd5b346102ef5760203660031901126102ef57356000526014602052602060018060a01b0360406000205416604051908152f35b346102ef5760403660031901126102ef5780359060243533600052600060205260406000205415610c42576060602093600583610bcd7f8d5c76b09b9c1f4d0453d21436dcb0b568a50e9c0ae059e4d0ae8c95c71d07f095151561246c565b60125495610bda876124fa565b6012558660005260178852610c1160406000209285845560006001850155600060028501556003840160ff19815416905542612449565b9082015501336001600160601b0360a01b8254161790556040519084825233868301526040820152a1604051908152f35b60405162461bcd60e51b81526020818401526024808201527f4d75737420686f6c6420746f6b656e7320746f20637265617465206f706572616044820152633a34b7b760e11b6064820152608490fd5b346102ef5760203660031901126102ef5735600052601a602052602060ff604060002054166040519015158152f35b346102ef5760403660031901126102ef57610ce7610cdd6122b8565b602435903361236b565b602060405160018152f35b346102ef5760203660031901126102ef57610d0f602091356127ed565b604051908152f35b346102ef5760003660031901126102ef57604051906000908054610d3a81611ea1565b80855291600191808316908115610dd85750600114610d7c575b610d7885610d64818703826121dd565b604051918291602083526020830190612222565b0390f35b600090815292507f8a35acfbc15ff81a39ae7d344fd709f28e8600b4aa8c65c6b64bfe7fe36bd19b5b828410610dc0575050508101602001610d6482610d78610d54565b80546020858701810191909152909301928101610da5565b869550610d7896935060209250610d6494915060ff191682840152151560051b8201019293610d54565b346102ef5760003660031901126102ef576020601254604051908152f35b346102ef5760203660031901126102ef57803590816000526017602052604060002090815491610e518315156126c5565b600381019180835492610e6760ff851615612711565b01544210610f0457610e788561275d565b81610efc575b5015610ec1577f64cee5a70d662a7eef5b2a171daa51dc624f3d64a35d0855b385262b893dc5a5604086868660018760ff191617905582519182526020820152a1005b60649060206040519162461bcd60e51b8352820152601460248201527313dc195c985d1a5bdb881b9bdd081c185cdcd95960621b6044820152fd5b905086610e7e565b60649060206040519162461bcd60e51b8352820152601160248201527014da59db9a5b99c81b9bdd08195b991959607a1b6044820152fd5b346102ef5760203660031901126102ef57610f579035612668565b604080519215158352901515602083015290f35b346102ef5760203660031901126102ef57803590610f888261278c565b156110245760135460005b828110610fc7577f57df5a6a467271f04b10f7fe9e66d21dcd8ae7eaf079099d48959f24a53b6910602085604051908152a1005b807f42e60114b8bc5803b43a4bcd35572ece9a5e2cabb79a838a02d56a4c53e83313611017610ff861101f946127ed565b604051918291878a846040919493926060820195825260208201520152565b0390a16124fa565b610f93565b60649060206040519162461bcd60e51b835282015260146024820152734e6f7420616c6c20636861696e7320726561647960601b6044820152fd5b346102ef5760203660031901126102ef576001600160a01b036110806122b8565b1660005260006020526020604060002054604051908152f35b346102ef5760003660031901126102ef576020601354604051908152f35b346102ef5760203660031901126102ef57356000526018602052602060ff604060002054166040519015158152f35b61231f565b346102ef5760003660031901126102ef576020601054604051908152f35b346102ef577fca1838d50ca3156f1ace7cde39a081cc9c9a333af6fca55db71817f8717e1dcb611138366122e4565b508360009493945260166020526111ae6003604060002061115b8682541461255d565b86600052601860205261117560ff604060002054166124b8565b6009810194876000528560205261119460ff6040600020541615612618565b6111a360028301918254612449565b905501918254612449565b9055826000526020526040600020600160ff198254161790556111ea601354604051938493846040919493926060820195825260208201520152565b0390a1005b346102ef576020806003193601126102ef578135913360005260008252604060002054156112bd57826000526015825260ff60406000205416156112835750600082815260148252604080822080546001600160a01b03191690556015835290819020805460ff19169055519182527f4c7c76abe482a2c36ea52f1b999474c69f8b4afeeac5635f8aea2526864ba85391a1005b6064916040519162461bcd60e51b83528201526015602482015274135bd91d5b1948191bd95cc81b9bdd08195e1a5cdd605a1b6044820152fd5b6084916040519162461bcd60e51b8352820152602160248201527f4d75737420686f6c6420746f6b656e7320746f2072656d6f7665206d6f64756c6044820152606560f81b6064820152fd5b346102ef5760203660031901126102ef57356000526019602052602060ff604060002054166040519015158152f35b346102ef5760403660031901126102ef578035906113546122ce565b33600052602090600082526040600020541561145c576001600160a01b031691821561142b57836000526015825260ff604060002054166113f1577ff14475b19484bf096265507cc0c41cd3bf1994992088806830686e2d727227196040858585826000526014815283600020826001600160601b0360a01b8254161790556015815283600020600160ff198254161790558351928352820152a1005b6064916040519162461bcd60e51b835282015260156024820152744d6f64756c6520616c72656164792065786973747360581b6044820152fd5b6064916040519162461bcd60e51b8352820152600c60248201526b5a65726f206164647265737360a01b6044820152fd5b60405162461bcd60e51b8152808401839052601e60248201527f4d75737420686f6c6420746f6b656e7320746f20616464206d6f64756c6500006044820152606490fd5b346102ef5760003660031901126102ef57602060405160128152f35b346102ef577fe379b3deb66ddfa7962a2bdf35e9a08b5bed672c9da3ecf7cc6174d253c6dfe56114eb366122e4565b508360009493945260176020526111ae6002604060002061150e815415156126c5565b86600052601860205261152860ff604060002054166124b8565b6007810194876000528560205261154760ff6040600020541615612618565b6111a360018301918254612449565b346102ef5760603660031901126102ef5761156f6122b8565b6115776122ce565b6044359160018060a01b0381168060005260016020526040600020336000526020526040600020549460001986106115b6575b5050610ce7935061236b565b84861061162257811561160a5733156115f25750610ce794849160005260016020526040600020336000526020520360406000205584806115aa565b602490600060405191634a1406b160e11b8352820152fd5b60249060006040519163e602df0560e01b8352820152fd5b60408051637dc7a0d960e11b815233928101928352602083018890529082018690529081906060010390fd5b346102ef5760003660031901126102ef576000610120604051611670816121aa565b6060815260606020820152606060408201526060808201528260808201528260a0820152606060c08201528260e0820152826101008201520152604051906116b7826121aa565b6040516116c78161022981611edb565b82526040516116d98161022981611f7f565b60208301526040516116ee8161022981612006565b6040830152604051611703816102298161208d565b6060830152600a546080830152600b5460a0830152600c549067ffffffffffffffff82116118cc57506040519061174060208260051b01836121dd565b80825260208201600c6000527fdf6966c971051c3d54ec59162606531493a51404a002842f56009d7e5cf4a8c76000915b8383106118a757858560c0820152600d5460e0820152600e5461010082015260ff600f54161515610120820152604051602081526118086117f26117dc6117c685516101406020870152610160860190612222565b6020860151858203601f19016040870152612222565b6040850151848203601f19016060860152612222565b6060840151838203601f19016080850152612222565b608083015160a083015260a083015160c083015260c083015190601f198382030160e0840152815180825260208201916020808360051b8301019401926000915b83831061187a578680876101208b60e081015161010085015261010081015182850152015115156101408301520390f35b9091929394602080611898600193601f198682030187528951612222565b97019301930191939290611849565b6001602081926040516118be816102298189612114565b815201920192019190611771565b604190634e487b7160e01b6000525260246000fd5b346102ef5760003660031901126102ef576020600254604051908152f35b346102ef576020806003193601126102ef57813591826000526016825260406000209161192e8484541461255d565b8183019283549261194260ff8516156125a9565b60058201544210611ace5761195686612668565b81611ac6575b5015611a8c57506007906001948560ff19809616179055019261198e604051611989816102298189612114565b612884565b60405194855260408286015260009380546119a881611ea1565b948560408901528382169182600014611a465750506001146119ed575b7fbadbd87941bb6424ed4aa4719bf01a3319b64480e49f89018c718603239553d286860387a1005b60009081528281209094505b838510611a3257505050508101606001817fbadbd87941bb6424ed4aa4719bf01a3319b64480e49f89018c718603239553d284806119c5565b8054868601606001529382019381016119f9565b91509150869550606093507fbadbd87941bb6424ed4aa4719bf01a3319b64480e49f89018c718603239553d2969492501682840152151560051b820101919284806119c5565b60405162461bcd60e51b81529081018390526013602482015272141c9bdc1bdcd85b081b9bdd081c185cdcd959606a1b6044820152606490fd5b90508761195c565b60405162461bcd60e51b8152908101839052601060248201526f159bdd1a5b99c81b9bdd08195b99195960821b6044820152606490fd5b346102ef5760003660031901126102ef576020601154604051908152f35b346102ef5760403660031901126102ef57611b3c6122b8565b602435903315611baa576001600160a01b03169182156115f25750336000526001602052604060002082600052602052806040600020556040519081527f8c5be1e5ebec7d5bd14f71427d1e84f3dd0314c0f7b2291e5b200ac8c7c3b92560203392a3602060405160018152f35b60405163e602df0560e01b8152600081850152602490fd5b346102ef5760003660031901126102ef576040516000600354611be481611ea1565b80845290600190818116908115611c695750600114611c0e575b610d7884610d64818603826121dd565b6003600090815292507fc2575a0e9e593c00f959f8c92f12db2869c3395a3b0502d05e2516446f71f85b5b828410611c51575050508101602001610d6482611bfe565b80546020858701810191909152909301928101611c39565b60ff191660208087019190915292151560051b85019092019250610d649150839050611bfe565b346102ef5760203660031901126102ef57610f57903561275d565b346102ef5760603660031901126102ef57602435813560443567ffffffffffffffff81116102ef57611ce0903690850161229a565b50816000526018602052611cfb60ff604060002054166124b8565b80600052601960205260ff60406000205416611da3577f42e60114b8bc5803b43a4bcd35572ece9a5e2cabb79a838a02d56a4c53e8331392508060005260196020526040600020600160ff198254161790556016602052604060002081815414611d84575b506111ea601354604051938493846040919493926060820195825260208201520152565b6007611989611d9d926102296040518094819301612114565b83611d60565b60405162461bcd60e51b8152602081850152601060248201526f105b1c9958591e48195e1958dd5d195960821b6044820152606490fd5b90346102ef5760203660031901126102ef5780356000526016602052610d786040600020916007835493611e1c86611e158160018501612114565b03876121dd565b60028101549260ff60038301549183015416600583015491611e5c60018060a01b0360068601541694611e556040518098819301612114565b03866121dd565b611e78604051998a998a526101008060208c01528a0190612222565b95604089015260608801521515608087015260a086015260c085015283820360e0850152612222565b90600182811c92168015611ed1575b6020831014611ebb57565b634e487b7160e01b600052602260045260246000fd5b91607f1691611eb0565b60065460009291611eeb82611ea1565b80825291600190818116908115611f625750600114611f0957505050565b9192935060066000527ff652222313e28459528d920b65115c16c04f3efc82aaedc97be59f3f377c0d3f916000925b848410611f4a57505060209250010190565b80546020858501810191909152909301928101611f38565b915050602093945060ff929192191683830152151560051b010190565b60075460009291611f8f82611ea1565b80825291600190818116908115611f625750600114611fad57505050565b9192935060076000527fa66cc928b5edb82af9bd49922954155ab7b0942694bea4ce44661d9a8736c688916000925b848410611fee57505060209250010190565b80546020858501810191909152909301928101611fdc565b6008546000929161201682611ea1565b80825291600190818116908115611f62575060011461203457505050565b9192935060086000527ff3f7a9fe364faab93b216da50a3214154f22a0a2b415b23a84c8169e8b636ee3916000925b84841061207557505060209250010190565b80546020858501810191909152909301928101612063565b6009546000929161209d82611ea1565b80825291600190818116908115611f6257506001146120bb57505050565b9192935060096000527f6e1540171b6c0c960b71a7020d9f60077f6af931a8bbf590da0223dacf75c7af916000925b8484106120fc57505060209250010190565b805460208585018101919091529093019281016120ea565b906000929180549161212583611ea1565b9182825260019384811690816000146121875750600114612147575b50505050565b90919394506000526020928360002092846000945b838610612173575050505001019038808080612141565b80548587018301529401938590820161215c565b9294505050602093945060ff191683830152151560051b01019038808080612141565b610140810190811067ffffffffffffffff8211176121c757604052565b634e487b7160e01b600052604160045260246000fd5b90601f8019910116810190811067ffffffffffffffff8211176121c757604052565b60005b8381106122125750506000910152565b8181015183820152602001612202565b9060209161223b815180928185528580860191016121ff565b601f01601f1916010190565b67ffffffffffffffff81116121c757601f01601f191660200190565b92919261226f82612247565b9161227d60405193846121dd565b8294818452818301116102ef578281602093846000960137010152565b9080601f830112156102ef578160206122b593359101612263565b90565b600435906001600160a01b03821682036102ef57565b602435906001600160a01b03821682036102ef57565b60a06003198201126102ef57600435916024359160443591606435916084359067ffffffffffffffff82116102ef576122b59160040161229a565b346102ef5760203660031901126102ef57602061032d600435600052601860205260ff6040600020541690565b60409060031901126102ef576004359060243580151581036102ef5790565b916001600160a01b03808416928315612430571692831561241757600090838252816020526040822054908382106123e5575091604082827fddf252ad1be2c89b69c2b068fc378daa952ba7f163c4a11628f55a4df523b3ef958760209652828652038282205586815220818154019055604051908152a3565b60405163391434e360e21b81526001600160a01b03919091166004820152602481019190915260448101839052606490fd5b60405163ec442f0560e01b815260006004820152602490fd5b604051634b637e8f60e11b815260006004820152602490fd5b9190820180921161245657565b634e487b7160e01b600052601160045260246000fd5b1561247357565b60405162461bcd60e51b815260206004820152601960248201527f4475726174696f6e206d75737420626520706f736974697665000000000000006044820152606490fd5b156124bf57565b60405162461bcd60e51b815260206004820152601360248201527210da185a5b881b9bdd081cdd5c1c1bdc9d1959606a1b6044820152606490fd5b60001981146124565760010190565b90601f811161251757505050565b600091825260208220906020601f850160051c83019410612553575b601f0160051c01915b82811061254857505050565b81815560010161253c565b9092508290612533565b1561256457565b60405162461bcd60e51b815260206004820152601760248201527f50726f706f73616c20646f6573206e6f742065786973740000000000000000006044820152606490fd5b156125b057565b60405162461bcd60e51b815260206004820152601960248201527f50726f706f73616c20616c7265616479206578656375746564000000000000006044820152606490fd5b600260055414612606576002600555565b604051633ee5aeb560e01b8152600490fd5b1561261f57565b60405162461bcd60e51b815260206004820152600e60248201526d105b1c9958591e481cde5b98d95960921b6044820152606490fd5b8181029291811591840414171561245657565b9081600052601660205261268360406000209283541461255d565b60036002830154920154916126988382612449565b60646126a960025460105490612655565b041115928391826126bb575b50509190565b11905038806126b5565b156126cc57565b60405162461bcd60e51b815260206004820152601860248201527f4f7065726174696f6e20646f6573206e6f7420657869737400000000000000006044820152606490fd5b1561271857565b60405162461bcd60e51b815260206004820152601a60248201527f4f7065726174696f6e20616c72656164792065786563757465640000000000006044820152606490fd5b6000526017602052604060002090612777825415156126c5565b60026001830154920154916126988382612449565b6127a5600091808352601660205260408320541461255d565b805b600481106127b6575050600190565b6127d66127c2826127ed565b600052601860205260ff6040600020541690565b156127e9576127e4906124fa565b6127a7565b5090565b80156128575760018114612851576002811461284b576003146128455760405162461bcd60e51b8152602060048201526013602482015272092dcecc2d8d2c840c6d0c2d2dc40d2dcc8caf606b1b6044820152606490fd5b61a4b190565b50603890565b50608990565b50600190565b91908260409103126102ef5781516001600160a01b03811681036102ef5760209092015190565b80518101906020908082840193604091829103126102ef57818301516001600160e01b0319811692908390036102ef57818101519067ffffffffffffffff82116102ef57019184603f840112156102ef5783830151926128e384612247565b936128f0845195866121dd565b808552858501968482840101116102ef57868461290d93016121ff565b63a9059cbb60e01b8103612942575050916129309183612940945101019061285d565b906001600160a01b03163361236b565b565b909391906340c10f1960e01b81036129d95750908282612965935101019061285d565b6001600160a01b039091169283156129c25791816000936129a97fddf252ad1be2c89b69c2b068fc378daa952ba7f163c4a11628f55a4df523b3ef94600254612449565b60025585855284835280852082815401905551908152a3565b5163ec442f0560e01b815260006004820152602490fd5b939493632770a7eb60e21b03612aa7579082826129f9935101019061285d565b916001600160a01b03909116908115612a8f576000928284528382528584205495818710612a615781859697857fddf252ad1be2c89b69c2b068fc378daa952ba7f163c4a11628f55a4df523b3ef9697528785520381872055816002540360025551908152a3565b5163391434e360e21b81526001600160a01b0384166004820152602481018790526044810191909152606490fd5b8451634b637e8f60e11b815260006004820152602490fd5b845162461bcd60e51b81526004810184905260116024820152702ab735b737bbb71037b832b930ba34b7b760791b6044820152606490fdfea26469706673582212200e003730d00266375259274b7ce87a5cf38ca28d407c876977216eb1d0bff04464736f6c63430008140033","opcodes":"PUSH1 0x80 PUSH1 0x40 MSTORE CALLVALUE PUSH3 0x1107 JUMPI PUSH3 0x3E83 DUP1 CODESIZE SUB SWAP1 DUP2 PUSH3 0x1E DUP2 PUSH3 0x1168 JUMP JUMPDEST SWAP2 DUP3 CODECOPY PUSH1 0x40 DUP2 DUP4 DUP2 ADD SUB SLT PUSH3 0x1107 JUMPI DUP1 MLOAD SWAP1 PUSH1 0x1 PUSH1 0x1 PUSH1 0x40 SHL SUB DUP3 GT PUSH3 0x1107 JUMPI PUSH2 0x180 SWAP3 DUP4 DUP4 DUP4 ADD DUP3 DUP5 ADD SUB SLT PUSH3 0x1107 JUMPI PUSH1 0x40 MLOAD SWAP4 DUP5 ADD PUSH1 0x1 PUSH1 0x1 PUSH1 0x40 SHL SUB DUP2 GT DUP6 DUP3 LT OR PUSH3 0xB7B JUMPI PUSH1 0x40 MSTORE DUP2 DUP4 ADD MLOAD PUSH1 0x1 PUSH1 0x1 PUSH1 0x40 SHL SUB DUP2 GT PUSH3 0x1107 JUMPI PUSH3 0x94 SWAP1 DUP3 DUP5 ADD SWAP1 DUP6 DUP6 ADD ADD PUSH3 0x11B3 JUMP JUMPDEST DUP5 MSTORE DUP2 DUP4 ADD PUSH1 0x20 ADD MLOAD PUSH1 0x1 PUSH1 0x1 PUSH1 0x40 SHL SUB DUP2 GT PUSH3 0x1107 JUMPI PUSH3 0xBF SWAP1 DUP3 DUP5 ADD SWAP1 DUP6 DUP6 ADD ADD PUSH3 0x11B3 JUMP JUMPDEST PUSH1 0x20 DUP6 ADD MSTORE DUP2 DUP4 ADD PUSH1 0x40 ADD MLOAD PUSH1 0x1 PUSH1 0x1 PUSH1 0x40 SHL SUB DUP2 GT PUSH3 0x1107 JUMPI PUSH3 0xED SWAP1 DUP3 DUP5 ADD SWAP1 DUP6 DUP6 ADD ADD PUSH3 0x11B3 JUMP JUMPDEST PUSH1 0x40 DUP6 ADD MSTORE DUP2 DUP4 ADD PUSH1 0x60 ADD MLOAD PUSH1 0x1 PUSH1 0x1 PUSH1 0x40 SHL SUB DUP2 GT PUSH3 0x1107 JUMPI PUSH3 0x11B SWAP1 DUP3 DUP5 ADD SWAP1 DUP6 DUP6 ADD ADD PUSH3 0x11B3 JUMP JUMPDEST PUSH1 0x60 DUP6 ADD MSTORE DUP2 DUP4 ADD PUSH1 0x80 DUP2 DUP2 ADD MLOAD SWAP1 DUP7 ADD MSTORE PUSH1 0xA0 DUP1 DUP3 ADD MLOAD SWAP1 DUP7 ADD MSTORE PUSH1 0xC0 ADD MLOAD PUSH1 0x1 PUSH1 0x1 PUSH1 0x40 SHL SUB DUP2 GT PUSH3 0x1107 JUMPI DUP4 DUP4 ADD ADD DUP2 DUP4 ADD PUSH1 0x1F DUP3 ADD SLT ISZERO PUSH3 0x1107 JUMPI DUP1 MLOAD PUSH3 0x173 PUSH3 0x16D DUP3 PUSH3 0x120A JUMP JUMPDEST PUSH3 0x1168 JUMP JUMPDEST SWAP2 PUSH1 0x20 DUP1 DUP5 DUP5 DUP2 MSTORE ADD SWAP3 PUSH1 0x5 SHL DUP3 ADD ADD SWAP2 DUP5 DUP7 ADD DUP4 GT PUSH3 0x1107 JUMPI PUSH1 0x20 DUP3 ADD SWAP1 JUMPDEST DUP4 DUP3 LT PUSH3 0x1134 JUMPI POP POP POP POP PUSH1 0xC0 DUP6 ADD MSTORE DUP2 DUP4 ADD PUSH1 0xE0 DUP2 DUP2 ADD MLOAD SWAP1 DUP7 ADD MSTORE PUSH2 0x100 DUP1 DUP3 ADD MLOAD SWAP1 DUP7 ADD MSTORE PUSH2 0x120 ADD MLOAD PUSH1 0x1 PUSH1 0x1 PUSH1 0x40 SHL SUB DUP2 GT PUSH3 0x1107 JUMPI DUP2 DUP4 ADD PUSH1 0x1F DUP3 DUP7 DUP7 ADD ADD ADD SLT ISZERO PUSH3 0x1107 JUMPI DUP1 DUP5 DUP5 ADD ADD MLOAD SWAP1 PUSH3 0x1F9 PUSH3 0x16D DUP4 PUSH3 0x120A JUMP JUMPDEST SWAP2 PUSH1 0x20 DUP4 DUP3 DUP2 MSTORE ADD SWAP2 DUP5 DUP7 ADD PUSH1 0x20 DUP4 PUSH1 0x5 SHL DUP4 DUP11 DUP11 ADD ADD ADD ADD GT PUSH3 0x1107 JUMPI SWAP2 PUSH1 0x20 DUP4 DUP9 DUP9 ADD ADD ADD SWAP3 JUMPDEST PUSH1 0x20 DUP4 PUSH1 0x5 SHL DUP3 DUP11 DUP11 ADD ADD ADD ADD DUP5 LT PUSH3 0x110C JUMPI POP POP POP POP PUSH2 0x120 DUP6 ADD MSTORE DUP2 DUP4 ADD PUSH2 0x140 ADD MLOAD PUSH1 0x1 PUSH1 0x1 PUSH1 0x40 SHL SUB DUP2 GT PUSH3 0x1107 JUMPI PUSH3 0x26B SWAP1 DUP3 DUP5 ADD SWAP1 DUP6 DUP6 ADD ADD PUSH3 0x1222 JUMP JUMPDEST PUSH2 0x140 DUP6 ADD MSTORE DUP2 DUP4 ADD PUSH2 0x160 ADD MLOAD SWAP3 PUSH1 0x1 PUSH1 0x1 PUSH1 0x40 SHL SUB DUP5 GT PUSH3 0x1107 JUMPI PUSH1 0x20 SWAP4 PUSH3 0x29D SWAP3 DUP5 ADD SWAP2 DUP5 ADD ADD PUSH3 0x1222 JUMP JUMPDEST PUSH2 0x160 DUP5 ADD MSTORE ADD MLOAD DUP2 MLOAD PUSH1 0x20 DUP4 ADD MLOAD DUP2 MLOAD SWAP2 SWAP4 SWAP1 SWAP3 SWAP2 PUSH1 0x1 PUSH1 0x1 PUSH1 0x40 SHL SUB DUP2 GT PUSH3 0xB7B JUMPI PUSH3 0x2CF PUSH1 0x3 SLOAD PUSH3 0x127F JUMP JUMPDEST PUSH1 0x1F DUP2 GT PUSH3 0x10B4 JUMPI JUMPDEST POP PUSH1 0x20 PUSH1 0x1F DUP3 GT PUSH1 0x1 EQ PUSH3 0x1044 JUMPI DUP2 SWAP3 SWAP4 SWAP5 SWAP6 PUSH1 0x0 SWAP3 PUSH3 0x1038 JUMPI JUMPDEST POP POP DUP2 PUSH1 0x1 SHL SWAP2 PUSH1 0x0 NOT SWAP1 PUSH1 0x3 SHL SHR NOT AND OR PUSH1 0x3 SSTORE JUMPDEST DUP3 MLOAD PUSH1 0x1 PUSH1 0x1 PUSH1 0x40 SHL SUB DUP2 GT PUSH3 0xB7B JUMPI PUSH3 0x32A PUSH1 0x4 SLOAD PUSH3 0x127F JUMP JUMPDEST PUSH1 0x1F DUP2 GT PUSH3 0xFE5 JUMPI JUMPDEST POP PUSH1 0x20 PUSH1 0x1F DUP3 GT PUSH1 0x1 EQ PUSH3 0xF76 JUMPI DUP2 SWAP3 SWAP4 SWAP5 PUSH1 0x0 SWAP3 PUSH3 0xF6A JUMPI JUMPDEST POP POP DUP2 PUSH1 0x1 SHL SWAP2 PUSH1 0x0 NOT SWAP1 PUSH1 0x3 SHL SHR NOT AND OR PUSH1 0x4 SSTORE JUMPDEST PUSH1 0x1 PUSH1 0x5 SSTORE DUP1 MLOAD SWAP2 PUSH1 0x20 DUP3 ADD MLOAD PUSH1 0x40 DUP4 ADD MLOAD PUSH1 0x60 DUP5 ADD MLOAD PUSH1 0x80 DUP6 ADD MLOAD PUSH1 0xA0 DUP7 ADD MLOAD SWAP1 PUSH1 0xC0 DUP8 ADD MLOAD SWAP3 PUSH1 0xE0 DUP9 ADD MLOAD SWAP5 PUSH1 0x40 MLOAD SWAP7 DUP8 PUSH2 0x140 DUP2 ADD LT PUSH1 0x1 DUP1 PUSH1 0x40 SHL SUB PUSH2 0x140 DUP11 ADD GT OR PUSH3 0xB7B JUMPI PUSH2 0x140 DUP9 ADD PUSH1 0x40 MSTORE DUP11 DUP9 MSTORE PUSH1 0x20 DUP9 ADD MSTORE PUSH1 0x40 DUP8 ADD MSTORE PUSH1 0x60 DUP7 ADD MSTORE PUSH1 0x80 DUP6 ADD MSTORE PUSH1 0xA0 DUP5 ADD MSTORE PUSH1 0xC0 DUP4 ADD MSTORE PUSH1 0xE0 DUP3 ADD MSTORE TIMESTAMP PUSH2 0x100 DUP3 ADD MSTORE PUSH1 0x1 PUSH2 0x120 DUP3 ADD MSTORE DUP4 MLOAD PUSH1 0x1 DUP1 PUSH1 0x40 SHL SUB DUP2 GT PUSH3 0xB7B JUMPI PUSH3 0x40C PUSH1 0x6 SLOAD PUSH3 0x127F JUMP JUMPDEST PUSH1 0x1F DUP2 GT PUSH3 0xF17 JUMPI JUMPDEST POP PUSH1 0x20 PUSH1 0x1F DUP3 GT PUSH1 0x1 EQ PUSH3 0xEA7 JUMPI DUP2 SWAP3 SWAP4 SWAP5 SWAP6 PUSH1 0x0 SWAP3 PUSH3 0xE9B JUMPI JUMPDEST POP POP DUP2 PUSH1 0x1 SHL SWAP2 PUSH1 0x0 NOT SWAP1 PUSH1 0x3 SHL SHR NOT AND OR PUSH1 0x6 SSTORE JUMPDEST PUSH1 0x20 DUP2 ADD MLOAD DUP1 MLOAD SWAP1 SWAP4 SWAP1 PUSH1 0x1 PUSH1 0x1 PUSH1 0x40 SHL SUB DUP2 GT PUSH3 0xB7B JUMPI PUSH3 0x46F PUSH1 0x7 SLOAD PUSH3 0x127F JUMP JUMPDEST PUSH1 0x1F DUP2 GT PUSH3 0xE48 JUMPI JUMPDEST POP PUSH1 0x20 PUSH1 0x1F DUP3 GT PUSH1 0x1 EQ PUSH3 0xDD8 JUMPI DUP2 SWAP3 SWAP4 SWAP5 SWAP6 PUSH1 0x0 SWAP3 PUSH3 0xDCC JUMPI JUMPDEST POP POP DUP2 PUSH1 0x1 SHL SWAP2 PUSH1 0x0 NOT SWAP1 PUSH1 0x3 SHL SHR NOT AND OR PUSH1 0x7 SSTORE JUMPDEST PUSH1 0x40 DUP3 ADD MLOAD DUP1 MLOAD SWAP1 SWAP4 SWAP1 PUSH1 0x1 PUSH1 0x1 PUSH1 0x40 SHL SUB DUP2 GT PUSH3 0xB7B JUMPI PUSH3 0x4D2 PUSH1 0x8 SLOAD PUSH3 0x127F JUMP JUMPDEST PUSH1 0x1F DUP2 GT PUSH3 0xD79 JUMPI JUMPDEST POP PUSH1 0x20 PUSH1 0x1F DUP3 GT PUSH1 0x1 EQ PUSH3 0xD09 JUMPI DUP2 SWAP3 SWAP4 SWAP5 SWAP6 PUSH1 0x0 SWAP3 PUSH3 0xCFD JUMPI JUMPDEST POP POP DUP2 PUSH1 0x1 SHL SWAP2 PUSH1 0x0 NOT SWAP1 PUSH1 0x3 SHL SHR NOT AND OR PUSH1 0x8 SSTORE JUMPDEST PUSH1 0x60 DUP4 ADD MLOAD DUP1 MLOAD SWAP1 SWAP4 SWAP1 PUSH1 0x1 PUSH1 0x1 PUSH1 0x40 SHL SUB DUP2 GT PUSH3 0xB7B JUMPI PUSH3 0x535 PUSH1 0x9 SLOAD PUSH3 0x127F JUMP JUMPDEST PUSH1 0x1F DUP2 GT PUSH3 0xCAA JUMPI JUMPDEST POP PUSH1 0x20 PUSH1 0x1F DUP3 GT PUSH1 0x1 EQ PUSH3 0xC3A JUMPI DUP2 SWAP3 SWAP4 SWAP5 SWAP6 PUSH1 0x0 SWAP3 PUSH3 0xC2E JUMPI JUMPDEST POP POP DUP2 PUSH1 0x1 SHL SWAP2 PUSH1 0x0 NOT SWAP1 PUSH1 0x3 SHL SHR NOT AND OR PUSH1 0x9 SSTORE JUMPDEST PUSH1 0x80 DUP2 ADD MLOAD PUSH1 0xA SSTORE PUSH1 0xA0 DUP2 ADD MLOAD PUSH1 0xB SSTORE PUSH1 0xC0 DUP2 ADD MLOAD DUP1 MLOAD SWAP1 PUSH9 0x10000000000000000 DUP3 GT PUSH3 0xB7B JUMPI PUSH1 0xC SLOAD DUP3 PUSH1 0xC SSTORE DUP1 DUP4 LT PUSH3 0xB91 JUMPI JUMPDEST POP PUSH1 0xC PUSH1 0x0 SWAP1 DUP2 MSTORE PUSH32 0xDF6966C971051C3D54EC59162606531493A51404A002842F56009D7E5CF4A8C7 SWAP3 SWAP2 PUSH1 0x20 ADD JUMPDEST DUP3 DUP3 LT PUSH3 0xA49 JUMPI DUP7 DUP7 PUSH2 0x120 DUP8 PUSH1 0xE0 DUP2 ADD MLOAD PUSH1 0xD SSTORE PUSH2 0x100 DUP2 ADD MLOAD PUSH1 0xE SSTORE ADD MLOAD ISZERO ISZERO PUSH1 0xFF DUP1 NOT PUSH1 0xF SLOAD AND SWAP2 AND OR PUSH1 0xF SSTORE PUSH2 0x100 DUP3 ADD MLOAD PUSH1 0x10 SSTORE PUSH1 0x13 SSTORE PUSH1 0x0 JUMPDEST PUSH2 0x160 DUP3 ADD MLOAD SWAP1 DUP2 MLOAD DUP2 LT ISZERO PUSH3 0x660 JUMPI PUSH3 0x63B DUP2 PUSH3 0x65A SWAP4 PUSH3 0x12E5 JUMP JUMPDEST MLOAD PUSH1 0x0 MSTORE PUSH1 0x18 PUSH1 0x20 MSTORE PUSH1 0x40 PUSH1 0x0 KECCAK256 PUSH1 0x1 PUSH1 0xFF NOT DUP3 SLOAD AND OR SWAP1 SSTORE PUSH3 0x12D5 JUMP JUMPDEST PUSH3 0x61A JUMP JUMPDEST DUP3 PUSH2 0x120 DUP2 ADD MLOAD MLOAD PUSH2 0x140 DUP3 ADD MLOAD MLOAD SUB PUSH3 0xA04 JUMPI PUSH2 0x120 DUP2 ADD MLOAD MLOAD ISZERO PUSH3 0x9BF JUMPI PUSH1 0x0 JUMPDEST PUSH2 0x120 DUP3 ADD MLOAD DUP1 MLOAD DUP3 LT ISZERO PUSH3 0x7F1 JUMPI PUSH1 0x1 PUSH1 0x1 PUSH1 0xA0 SHL SUB SWAP1 DUP2 SWAP1 PUSH3 0x6AD SWAP1 DUP5 SWAP1 PUSH3 0x12E5 JUMP JUMPDEST MLOAD AND ISZERO PUSH3 0x7BD JUMPI PUSH3 0x6C6 DUP3 PUSH2 0x140 DUP6 ADD MLOAD PUSH3 0x12E5 JUMP JUMPDEST MLOAD ISZERO PUSH3 0x78A JUMPI PUSH3 0x6DE DUP3 PUSH2 0x120 DUP6 ADD MLOAD PUSH3 0x12E5 JUMP JUMPDEST MLOAD AND SWAP1 PUSH3 0x6F2 DUP2 PUSH2 0x140 DUP6 ADD MLOAD PUSH3 0x12E5 JUMP JUMPDEST MLOAD SWAP2 DUP1 ISZERO PUSH3 0x771 JUMPI PUSH1 0x2 SLOAD DUP4 DUP2 ADD DUP2 GT PUSH3 0x75B JUMPI PUSH32 0xDDF252AD1BE2C89B69C2B068FC378DAA952BA7F163C4A11628F55A4DF523B3EF PUSH1 0x20 DUP6 PUSH3 0x755 SWAP7 PUSH1 0x0 SWAP5 ADD PUSH1 0x2 SSTORE DUP5 DUP5 MSTORE DUP4 DUP3 MSTORE PUSH1 0x40 DUP5 KECCAK256 DUP2 DUP2 SLOAD ADD SWAP1 SSTORE PUSH1 0x40 MLOAD SWAP1 DUP2 MSTORE LOG3 PUSH3 0x12D5 JUMP JUMPDEST PUSH3 0x685 JUMP JUMPDEST PUSH4 0x4E487B71 PUSH1 0xE0 SHL PUSH1 0x0 MSTORE PUSH1 0x11 PUSH1 0x4 MSTORE PUSH1 0x24 PUSH1 0x0 REVERT JUMPDEST PUSH1 0x40 MLOAD PUSH4 0xEC442F05 PUSH1 0xE0 SHL DUP2 MSTORE PUSH1 0x0 PUSH1 0x4 DUP3 ADD MSTORE PUSH1 0x24 SWAP1 REVERT JUMPDEST PUSH1 0x40 MLOAD PUSH3 0x461BCD PUSH1 0xE5 SHL DUP2 MSTORE PUSH1 0x20 PUSH1 0x4 DUP3 ADD MSTORE PUSH1 0xB PUSH1 0x24 DUP3 ADD MSTORE PUSH11 0x16995C9BC8185B5BDD5B9D PUSH1 0xAA SHL PUSH1 0x44 DUP3 ADD MSTORE PUSH1 0x64 SWAP1 REVERT JUMPDEST PUSH1 0x40 MLOAD PUSH3 0x461BCD PUSH1 0xE5 SHL DUP2 MSTORE PUSH1 0x20 PUSH1 0x4 DUP3 ADD MSTORE PUSH1 0xC PUSH1 0x24 DUP3 ADD MSTORE PUSH12 0x5A65726F2061646472657373 PUSH1 0xA0 SHL PUSH1 0x44 DUP3 ADD MSTORE PUSH1 0x64 SWAP1 REVERT JUMPDEST DUP3 PUSH2 0x120 DUP2 ADD MLOAD PUSH2 0x140 DUP3 ADD MLOAD SWAP1 PUSH1 0x40 MLOAD SWAP2 PUSH1 0x40 DUP4 ADD PUSH1 0x40 DUP5 MSTORE DUP3 MLOAD DUP1 SWAP2 MSTORE PUSH1 0x20 PUSH1 0x60 DUP6 ADD SWAP4 ADD SWAP1 PUSH1 0x0 JUMPDEST DUP2 DUP2 LT PUSH3 0x99F JUMPI DUP7 PUSH32 0xF9E7AA11BCDCBB8AC33B5DBA92FCA799EF091E54C29270822065501D8EDEA1A5 DUP8 DUP1 PUSH3 0x85C DUP10 DUP10 DUP4 DUP3 SUB PUSH1 0x20 DUP6 ADD MSTORE PUSH3 0x1310 JUMP JUMPDEST SUB SWAP1 LOG1 DUP1 MLOAD PUSH1 0x20 DUP3 ADD MLOAD PUSH1 0x40 DUP4 ADD MLOAD SWAP3 PUSH1 0x60 DUP2 ADD MLOAD PUSH1 0x80 DUP3 ADD MLOAD SWAP1 PUSH3 0x8E1 PUSH1 0xA0 DUP5 ADD MLOAD SWAP2 PUSH3 0x8D2 PUSH1 0xC0 DUP7 ADD MLOAD SWAP9 PUSH3 0x8C3 PUSH2 0x160 PUSH1 0xE0 DUP10 ADD MLOAD SWAP9 ADD MLOAD SWAP9 PUSH3 0x8B4 PUSH1 0x40 MLOAD SWAP12 PUSH2 0x140 DUP14 MSTORE PUSH2 0x140 DUP14 ADD SWAP1 PUSH3 0x1346 JUMP JUMPDEST SWAP1 DUP12 DUP3 SUB PUSH1 0x20 DUP14 ADD MSTORE PUSH3 0x1346 JUMP JUMPDEST SWAP1 DUP10 DUP3 SUB PUSH1 0x40 DUP12 ADD MSTORE PUSH3 0x1346 JUMP JUMPDEST SWAP1 DUP8 DUP3 SUB PUSH1 0x60 DUP10 ADD MSTORE PUSH3 0x1346 JUMP JUMPDEST SWAP2 PUSH1 0x80 DUP7 ADD MSTORE PUSH1 0xA0 DUP6 ADD MSTORE DUP4 DUP2 SUB PUSH1 0xC0 DUP6 ADD MSTORE DUP5 MLOAD DUP1 DUP3 MSTORE PUSH1 0x20 DUP3 ADD SWAP2 PUSH1 0x20 DUP1 DUP4 PUSH1 0x5 SHL DUP4 ADD ADD SWAP8 ADD SWAP3 PUSH1 0x0 SWAP2 JUMPDEST DUP4 DUP4 LT PUSH3 0x96F JUMPI PUSH32 0x11B248463A1620B36A975DA8F250009F56FB5DD0E9D5027A90A834D0EE84D6F6 DUP9 DUP1 PUSH3 0x95C DUP13 DUP12 DUP12 PUSH1 0xE0 DUP6 ADD MSTORE ADDRESS PUSH2 0x100 DUP6 ADD MSTORE DUP4 DUP3 SUB PUSH2 0x120 DUP6 ADD MSTORE PUSH3 0x1310 JUMP JUMPDEST SUB SWAP1 LOG1 PUSH1 0x40 MLOAD PUSH2 0x2B15 SWAP1 DUP2 PUSH3 0x136E DUP3 CODECOPY RETURN JUMPDEST SWAP1 SWAP2 SWAP3 SWAP4 SWAP8 PUSH1 0x20 DUP1 PUSH3 0x98F PUSH1 0x1 SWAP4 PUSH1 0x1F NOT DUP7 DUP3 SUB ADD DUP8 MSTORE DUP13 MLOAD PUSH3 0x1346 JUMP JUMPDEST SWAP11 ADD SWAP4 ADD SWAP4 ADD SWAP2 SWAP4 SWAP3 SWAP1 PUSH3 0x90F JUMP JUMPDEST DUP3 MLOAD PUSH1 0x1 PUSH1 0x1 PUSH1 0xA0 SHL SUB AND DUP6 MSTORE PUSH1 0x20 SWAP5 DUP6 ADD SWAP5 SWAP1 SWAP3 ADD SWAP2 PUSH1 0x1 ADD PUSH3 0x81C JUMP JUMPDEST PUSH1 0x40 MLOAD PUSH3 0x461BCD PUSH1 0xE5 SHL DUP2 MSTORE PUSH1 0x20 PUSH1 0x4 DUP3 ADD MSTORE PUSH1 0x13 PUSH1 0x24 DUP3 ADD MSTORE PUSH32 0x4E6F20696E697469616C20706172746E65727300000000000000000000000000 PUSH1 0x44 DUP3 ADD MSTORE PUSH1 0x64 SWAP1 REVERT JUMPDEST PUSH1 0x40 MLOAD PUSH3 0x461BCD PUSH1 0xE5 SHL DUP2 MSTORE PUSH1 0x20 PUSH1 0x4 DUP3 ADD MSTORE PUSH1 0x16 PUSH1 0x24 DUP3 ADD MSTORE PUSH32 0x417272617973206C656E677468206D69736D6174636800000000000000000000 PUSH1 0x44 DUP3 ADD MSTORE PUSH1 0x64 SWAP1 REVERT JUMPDEST DUP1 MLOAD DUP1 MLOAD SWAP1 PUSH1 0x1 PUSH1 0x1 PUSH1 0x40 SHL SUB DUP3 GT PUSH3 0xB7B JUMPI PUSH3 0xA69 DUP7 SLOAD PUSH3 0x127F JUMP JUMPDEST PUSH1 0x1F DUP2 GT PUSH3 0xB39 JUMPI JUMPDEST POP PUSH1 0x20 SWAP1 PUSH1 0x1F DUP4 GT PUSH1 0x1 EQ PUSH3 0xAC4 JUMPI SWAP3 DUP3 PUSH1 0x1 SWAP5 SWAP4 PUSH1 0x20 SWAP4 DUP7 SWAP6 PUSH1 0x0 SWAP3 PUSH3 0xAB8 JUMPI JUMPDEST POP POP PUSH1 0x0 NOT PUSH1 0x3 DUP4 SWAP1 SHL SHR NOT AND SWAP1 DUP5 SHL OR DUP8 SSTORE JUMPDEST ADD SWAP5 ADD SWAP2 ADD SWAP1 SWAP3 PUSH3 0x5DA JUMP JUMPDEST ADD MLOAD SWAP1 POP CODESIZE DUP1 PUSH3 0xA97 JUMP JUMPDEST SWAP1 DUP7 PUSH1 0x0 MSTORE PUSH1 0x20 PUSH1 0x0 KECCAK256 SWAP2 PUSH1 0x0 JUMPDEST PUSH1 0x1F NOT DUP6 AND DUP2 LT PUSH3 0xB20 JUMPI POP DUP4 PUSH1 0x20 SWAP4 PUSH1 0x1 SWAP7 SWAP4 DUP8 SWAP7 SWAP4 DUP8 SWAP5 PUSH1 0x1F NOT DUP2 AND LT PUSH3 0xB06 JUMPI JUMPDEST POP POP POP DUP2 SHL ADD DUP8 SSTORE PUSH3 0xAAB JUMP JUMPDEST ADD MLOAD PUSH1 0x0 NOT PUSH1 0xF8 DUP5 PUSH1 0x3 SHL AND SHR NOT AND SWAP1 SSTORE CODESIZE DUP1 DUP1 PUSH3 0xAF8 JUMP JUMPDEST SWAP2 SWAP3 PUSH1 0x20 PUSH1 0x1 DUP2 SWAP3 DUP7 DUP6 ADD MLOAD DUP2 SSTORE ADD SWAP5 ADD SWAP3 ADD PUSH3 0xAD2 JUMP JUMPDEST PUSH3 0xB69 SWAP1 DUP8 PUSH1 0x0 MSTORE PUSH1 0x20 PUSH1 0x0 KECCAK256 PUSH1 0x1F DUP6 ADD PUSH1 0x5 SHR DUP2 ADD SWAP2 PUSH1 0x20 DUP7 LT PUSH3 0xB70 JUMPI JUMPDEST PUSH1 0x1F ADD PUSH1 0x5 SHR ADD SWAP1 PUSH3 0x12BC JUMP JUMPDEST CODESIZE PUSH3 0xA73 JUMP JUMPDEST SWAP1 SWAP2 POP DUP2 SWAP1 PUSH3 0xB5B JUMP JUMPDEST PUSH4 0x4E487B71 PUSH1 0xE0 SHL PUSH1 0x0 MSTORE PUSH1 0x41 PUSH1 0x4 MSTORE PUSH1 0x24 PUSH1 0x0 REVERT JUMPDEST PUSH1 0xC PUSH1 0x0 MSTORE PUSH32 0xDF6966C971051C3D54EC59162606531493A51404A002842F56009D7E5CF4A8C7 SWAP1 DUP4 DUP3 ADD JUMPDEST DUP2 DUP4 ADD DUP2 LT PUSH3 0xBCE JUMPI POP POP PUSH3 0x5AB JUMP JUMPDEST DUP1 PUSH3 0xBDD PUSH1 0x1 SWAP3 SLOAD PUSH3 0x127F JUMP JUMPDEST DUP1 PUSH3 0xBEC JUMPI JUMPDEST POP ADD PUSH3 0xBBC JUMP JUMPDEST PUSH1 0x1F DUP2 GT DUP4 EQ PUSH3 0xC04 JUMPI POP PUSH1 0x0 DUP2 SSTORE JUMPDEST CODESIZE PUSH3 0xBE4 JUMP JUMPDEST PUSH1 0x0 SWAP1 DUP3 DUP3 MSTORE PUSH3 0xC24 PUSH1 0x1F PUSH1 0x20 DUP5 KECCAK256 SWAP3 ADD PUSH1 0x5 SHR DUP3 ADD DUP6 DUP4 ADD PUSH3 0x12BC JUMP JUMPDEST DUP2 DUP4 SSTORE SSTORE PUSH3 0xBFD JUMP JUMPDEST ADD MLOAD SWAP1 POP CODESIZE DUP1 PUSH3 0x55C JUMP JUMPDEST PUSH1 0x9 PUSH1 0x0 MSTORE PUSH1 0x20 PUSH1 0x0 KECCAK256 SWAP1 PUSH1 0x0 JUMPDEST PUSH1 0x1F NOT DUP5 AND DUP2 LT PUSH3 0xC91 JUMPI POP PUSH1 0x1 SWAP4 SWAP5 SWAP6 SWAP7 DUP4 PUSH1 0x1F NOT DUP2 AND LT PUSH3 0xC77 JUMPI JUMPDEST POP POP POP DUP2 SHL ADD PUSH1 0x9 SSTORE PUSH3 0x572 JUMP JUMPDEST ADD MLOAD PUSH1 0x0 NOT PUSH1 0xF8 DUP5 PUSH1 0x3 SHL AND SHR NOT AND SWAP1 SSTORE CODESIZE DUP1 DUP1 PUSH3 0xC68 JUMP JUMPDEST SWAP1 SWAP2 PUSH1 0x20 PUSH1 0x1 DUP2 SWAP3 DUP6 DUP12 ADD MLOAD DUP2 SSTORE ADD SWAP4 ADD SWAP2 ADD PUSH3 0xC48 JUMP JUMPDEST PUSH1 0x9 PUSH1 0x0 MSTORE PUSH3 0xCF6 SWAP1 PUSH32 0x6E1540171B6C0C960B71A7020D9F60077F6AF931A8BBF590DA0223DACF75C7AF PUSH1 0x1F DUP5 ADD PUSH1 0x5 SHR DUP2 ADD SWAP2 PUSH1 0x20 DUP6 LT PUSH3 0xB70 JUMPI PUSH1 0x1F ADD PUSH1 0x5 SHR ADD SWAP1 PUSH3 0x12BC JUMP JUMPDEST CODESIZE PUSH3 0x53F JUMP JUMPDEST ADD MLOAD SWAP1 POP CODESIZE DUP1 PUSH3 0x4F9 JUMP JUMPDEST PUSH1 0x8 PUSH1 0x0 MSTORE PUSH1 0x20 PUSH1 0x0 KECCAK256 SWAP1 PUSH1 0x0 JUMPDEST PUSH1 0x1F NOT DUP5 AND DUP2 LT PUSH3 0xD60 JUMPI POP PUSH1 0x1 SWAP4 SWAP5 SWAP6 SWAP7 DUP4 PUSH1 0x1F NOT DUP2 AND LT PUSH3 0xD46 JUMPI JUMPDEST POP POP POP DUP2 SHL ADD PUSH1 0x8 SSTORE PUSH3 0x50F JUMP JUMPDEST ADD MLOAD PUSH1 0x0 NOT PUSH1 0xF8 DUP5 PUSH1 0x3 SHL AND SHR NOT AND SWAP1 SSTORE CODESIZE DUP1 DUP1 PUSH3 0xD37 JUMP JUMPDEST SWAP1 SWAP2 PUSH1 0x20 PUSH1 0x1 DUP2 SWAP3 DUP6 DUP12 ADD MLOAD DUP2 SSTORE ADD SWAP4 ADD SWAP2 ADD PUSH3 0xD17 JUMP JUMPDEST PUSH1 0x8 PUSH1 0x0 MSTORE PUSH3 0xDC5 SWAP1 PUSH32 0xF3F7A9FE364FAAB93B216DA50A3214154F22A0A2B415B23A84C8169E8B636EE3 PUSH1 0x1F DUP5 ADD PUSH1 0x5 SHR DUP2 ADD SWAP2 PUSH1 0x20 DUP6 LT PUSH3 0xB70 JUMPI PUSH1 0x1F ADD PUSH1 0x5 SHR ADD SWAP1 PUSH3 0x12BC JUMP JUMPDEST CODESIZE PUSH3 0x4DC JUMP JUMPDEST ADD MLOAD SWAP1 POP CODESIZE DUP1 PUSH3 0x496 JUMP JUMPDEST PUSH1 0x7 PUSH1 0x0 MSTORE PUSH1 0x20 PUSH1 0x0 KECCAK256 SWAP1 PUSH1 0x0 JUMPDEST PUSH1 0x1F NOT DUP5 AND DUP2 LT PUSH3 0xE2F JUMPI POP PUSH1 0x1 SWAP4 SWAP5 SWAP6 SWAP7 DUP4 PUSH1 0x1F NOT DUP2 AND LT PUSH3 0xE15 JUMPI JUMPDEST POP POP POP DUP2 SHL ADD PUSH1 0x7 SSTORE PUSH3 0x4AC JUMP JUMPDEST ADD MLOAD PUSH1 0x0 NOT PUSH1 0xF8 DUP5 PUSH1 0x3 SHL AND SHR NOT AND SWAP1 SSTORE CODESIZE DUP1 DUP1 PUSH3 0xE06 JUMP JUMPDEST SWAP1 SWAP2 PUSH1 0x20 PUSH1 0x1 DUP2 SWAP3 DUP6 DUP12 ADD MLOAD DUP2 SSTORE ADD SWAP4 ADD SWAP2 ADD PUSH3 0xDE6 JUMP JUMPDEST PUSH1 0x7 PUSH1 0x0 MSTORE PUSH3 0xE94 SWAP1 PUSH32 0xA66CC928B5EDB82AF9BD49922954155AB7B0942694BEA4CE44661D9A8736C688 PUSH1 0x1F DUP5 ADD PUSH1 0x5 SHR DUP2 ADD SWAP2 PUSH1 0x20 DUP6 LT PUSH3 0xB70 JUMPI PUSH1 0x1F ADD PUSH1 0x5 SHR ADD SWAP1 PUSH3 0x12BC JUMP JUMPDEST CODESIZE PUSH3 0x479 JUMP JUMPDEST ADD MLOAD SWAP1 POP CODESIZE DUP1 PUSH3 0x433 JUMP JUMPDEST PUSH1 0x6 PUSH1 0x0 MSTORE PUSH1 0x20 PUSH1 0x0 KECCAK256 SWAP1 PUSH1 0x0 JUMPDEST PUSH1 0x1F NOT DUP5 AND DUP2 LT PUSH3 0xEFE JUMPI POP PUSH1 0x1 SWAP4 SWAP5 SWAP6 SWAP7 DUP4 PUSH1 0x1F NOT DUP2 AND LT PUSH3 0xEE4 JUMPI JUMPDEST POP POP POP DUP2 SHL ADD PUSH1 0x6 SSTORE PUSH3 0x449 JUMP JUMPDEST ADD MLOAD PUSH1 0x0 NOT PUSH1 0xF8 DUP5 PUSH1 0x3 SHL AND SHR NOT AND SWAP1 SSTORE CODESIZE DUP1 DUP1 PUSH3 0xED5 JUMP JUMPDEST SWAP1 SWAP2 PUSH1 0x20 PUSH1 0x1 DUP2 SWAP3 DUP6 DUP12 ADD MLOAD DUP2 SSTORE ADD SWAP4 ADD SWAP2 ADD PUSH3 0xEB5 JUMP JUMPDEST PUSH1 0x6 PUSH1 0x0 MSTORE PUSH3 0xF63 SWAP1 PUSH32 0xF652222313E28459528D920B65115C16C04F3EFC82AAEDC97BE59F3F377C0D3F PUSH1 0x1F DUP5 ADD PUSH1 0x5 SHR DUP2 ADD SWAP2 PUSH1 0x20 DUP6 LT PUSH3 0xB70 JUMPI PUSH1 0x1F ADD PUSH1 0x5 SHR ADD SWAP1 PUSH3 0x12BC JUMP JUMPDEST CODESIZE PUSH3 0x416 JUMP JUMPDEST ADD MLOAD SWAP1 POP CODESIZE DUP1 PUSH3 0x350 JUMP JUMPDEST PUSH1 0x4 PUSH1 0x0 MSTORE PUSH1 0x20 PUSH1 0x0 KECCAK256 SWAP1 PUSH1 0x0 JUMPDEST PUSH1 0x1F NOT DUP5 AND DUP2 LT PUSH3 0xFCC JUMPI POP PUSH1 0x1 SWAP4 SWAP5 SWAP6 DUP4 PUSH1 0x1F NOT DUP2 AND LT PUSH3 0xFB2 JUMPI JUMPDEST POP POP POP DUP2 SHL ADD PUSH1 0x4 SSTORE PUSH3 0x366 JUMP JUMPDEST ADD MLOAD PUSH1 0x0 NOT PUSH1 0xF8 DUP5 PUSH1 0x3 SHL AND SHR NOT AND SWAP1 SSTORE CODESIZE DUP1 DUP1 PUSH3 0xFA3 JUMP JUMPDEST SWAP1 SWAP2 PUSH1 0x20 PUSH1 0x1 DUP2 SWAP3 DUP6 DUP11 ADD MLOAD DUP2 SSTORE ADD SWAP4 ADD SWAP2 ADD PUSH3 0xF84 JUMP JUMPDEST PUSH1 0x4 PUSH1 0x0 MSTORE PUSH3 0x1031 SWAP1 PUSH32 0x8A35ACFBC15FF81A39AE7D344FD709F28E8600B4AA8C65C6B64BFE7FE36BD19B PUSH1 0x1F DUP5 ADD PUSH1 0x5 SHR DUP2 ADD SWAP2 PUSH1 0x20 DUP6 LT PUSH3 0xB70 JUMPI PUSH1 0x1F ADD PUSH1 0x5 SHR ADD SWAP1 PUSH3 0x12BC JUMP JUMPDEST CODESIZE PUSH3 0x334 JUMP JUMPDEST ADD MLOAD SWAP1 POP CODESIZE DUP1 PUSH3 0x2F6 JUMP JUMPDEST PUSH1 0x3 PUSH1 0x0 MSTORE PUSH1 0x20 PUSH1 0x0 KECCAK256 SWAP1 PUSH1 0x0 JUMPDEST PUSH1 0x1F NOT DUP5 AND DUP2 LT PUSH3 0x109B JUMPI POP PUSH1 0x1 SWAP4 SWAP5 SWAP6 SWAP7 DUP4 PUSH1 0x1F NOT DUP2 AND LT PUSH3 0x1081 JUMPI JUMPDEST POP POP POP DUP2 SHL ADD PUSH1 0x3 SSTORE PUSH3 0x30C JUMP JUMPDEST ADD MLOAD PUSH1 0x0 NOT PUSH1 0xF8 DUP5 PUSH1 0x3 SHL AND SHR NOT AND SWAP1 SSTORE CODESIZE DUP1 DUP1 PUSH3 0x1072 JUMP JUMPDEST SWAP1 SWAP2 PUSH1 0x20 PUSH1 0x1 DUP2 SWAP3 DUP6 DUP12 ADD MLOAD DUP2 SSTORE ADD SWAP4 ADD SWAP2 ADD PUSH3 0x1052 JUMP JUMPDEST PUSH1 0x3 PUSH1 0x0 MSTORE PUSH3 0x1100 SWAP1 PUSH32 0xC2575A0E9E593C00F959F8C92F12DB2869C3395A3B0502D05E2516446F71F85B PUSH1 0x1F DUP5 ADD PUSH1 0x5 SHR DUP2 ADD SWAP2 PUSH1 0x20 DUP6 LT PUSH3 0xB70 JUMPI PUSH1 0x1F ADD PUSH1 0x5 SHR ADD SWAP1 PUSH3 0x12BC JUMP JUMPDEST CODESIZE PUSH3 0x2D9 JUMP JUMPDEST PUSH1 0x0 DUP1 REVERT JUMPDEST DUP4 MLOAD SWAP2 PUSH1 0x1 PUSH1 0x1 PUSH1 0xA0 SHL SUB DUP4 AND DUP4 SUB PUSH3 0x1107 JUMPI PUSH1 0x20 DUP2 DUP2 SWAP5 DUP3 SWAP4 MSTORE ADD SWAP5 ADD SWAP4 SWAP2 POP PUSH3 0x223 JUMP JUMPDEST DUP2 MLOAD PUSH1 0x1 PUSH1 0x1 PUSH1 0x40 SHL SUB DUP2 GT PUSH3 0x1107 JUMPI PUSH1 0x20 SWAP2 PUSH3 0x115C DUP4 SWAP3 DUP4 DUP11 DUP13 ADD SWAP2 DUP9 ADD ADD PUSH3 0x11B3 JUMP JUMPDEST DUP2 MSTORE ADD SWAP2 ADD SWAP1 PUSH3 0x194 JUMP JUMPDEST PUSH1 0x40 MLOAD SWAP2 SWAP1 PUSH1 0x1F ADD PUSH1 0x1F NOT AND DUP3 ADD PUSH1 0x1 PUSH1 0x1 PUSH1 0x40 SHL SUB DUP2 GT DUP4 DUP3 LT OR PUSH3 0xB7B JUMPI PUSH1 0x40 MSTORE JUMP JUMPDEST PUSH1 0x0 JUMPDEST DUP4 DUP2 LT PUSH3 0x11A2 JUMPI POP POP PUSH1 0x0 SWAP2 ADD MSTORE JUMP JUMPDEST DUP2 DUP2 ADD MLOAD DUP4 DUP3 ADD MSTORE PUSH1 0x20 ADD PUSH3 0x1191 JUMP JUMPDEST DUP2 PUSH1 0x1F DUP3 ADD SLT ISZERO PUSH3 0x1107 JUMPI DUP1 MLOAD PUSH1 0x1 PUSH1 0x1 PUSH1 0x40 SHL SUB DUP2 GT PUSH3 0xB7B JUMPI PUSH3 0x11E5 PUSH1 0x1F DUP3 ADD PUSH1 0x1F NOT AND PUSH1 0x20 ADD PUSH3 0x1168 JUMP JUMPDEST SWAP3 DUP2 DUP5 MSTORE PUSH1 0x20 DUP3 DUP5 ADD ADD GT PUSH3 0x1107 JUMPI PUSH3 0x1207 SWAP2 PUSH1 0x20 DUP1 DUP6 ADD SWAP2 ADD PUSH3 0x118E JUMP JUMPDEST SWAP1 JUMP JUMPDEST PUSH1 0x1 PUSH1 0x1 PUSH1 0x40 SHL SUB DUP2 GT PUSH3 0xB7B JUMPI PUSH1 0x5 SHL PUSH1 0x20 ADD SWAP1 JUMP JUMPDEST SWAP1 DUP1 PUSH1 0x1F DUP4 ADD SLT ISZERO PUSH3 0x1107 JUMPI DUP2 MLOAD SWAP1 PUSH3 0x1241 PUSH3 0x16D DUP4 PUSH3 0x120A JUMP JUMPDEST SWAP2 DUP3 SWAP4 DUP2 DUP5 MSTORE PUSH1 0x20 DUP1 DUP1 SWAP6 ADD SWAP3 PUSH1 0x5 SHL DUP3 ADD ADD SWAP3 DUP4 GT PUSH3 0x1107 JUMPI DUP4 ADD SWAP1 JUMPDEST DUP3 DUP3 LT PUSH3 0x126F JUMPI POP POP POP POP SWAP1 JUMP JUMPDEST DUP2 MLOAD DUP2 MSTORE SWAP1 DUP4 ADD SWAP1 DUP4 ADD PUSH3 0x1260 JUMP JUMPDEST SWAP1 PUSH1 0x1 DUP3 DUP2 SHR SWAP3 AND DUP1 ISZERO PUSH3 0x12B1 JUMPI JUMPDEST PUSH1 0x20 DUP4 LT EQ PUSH3 0x129B JUMPI JUMP JUMPDEST PUSH4 0x4E487B71 PUSH1 0xE0 SHL PUSH1 0x0 MSTORE PUSH1 0x22 PUSH1 0x4 MSTORE PUSH1 0x24 PUSH1 0x0 REVERT JUMPDEST SWAP2 PUSH1 0x7F AND SWAP2 PUSH3 0x128F JUMP JUMPDEST DUP2 DUP2 LT PUSH3 0x12C8 JUMPI POP POP JUMP JUMPDEST PUSH1 0x0 DUP2 SSTORE PUSH1 0x1 ADD PUSH3 0x12BC JUMP JUMPDEST PUSH1 0x0 NOT DUP2 EQ PUSH3 0x75B JUMPI PUSH1 0x1 ADD SWAP1 JUMP JUMPDEST DUP1 MLOAD DUP3 LT ISZERO PUSH3 0x12FA JUMPI PUSH1 0x20 SWAP2 PUSH1 0x5 SHL ADD ADD SWAP1 JUMP JUMPDEST PUSH4 0x4E487B71 PUSH1 0xE0 SHL PUSH1 0x0 MSTORE PUSH1 0x32 PUSH1 0x4 MSTORE PUSH1 0x24 PUSH1 0x0 REVERT JUMPDEST SWAP1 DUP2 MLOAD DUP1 DUP3 MSTORE PUSH1 0x20 DUP1 DUP1 SWAP4 ADD SWAP4 ADD SWAP2 PUSH1 0x0 JUMPDEST DUP3 DUP2 LT PUSH3 0x1331 JUMPI POP POP POP POP SWAP1 JUMP JUMPDEST DUP4 MLOAD DUP6 MSTORE SWAP4 DUP2 ADD SWAP4 SWAP3 DUP2 ADD SWAP3 PUSH1 0x1 ADD PUSH3 0x1322 JUMP JUMPDEST SWAP1 PUSH1 0x20 SWAP2 PUSH3 0x1361 DUP2 MLOAD DUP1 SWAP3 DUP2 DUP6 MSTORE DUP6 DUP1 DUP7 ADD SWAP2 ADD PUSH3 0x118E JUMP JUMPDEST PUSH1 0x1F ADD PUSH1 0x1F NOT AND ADD ADD SWAP1 JUMP INVALID PUSH1 0x80 DUP1 PUSH1 0x40 MSTORE PUSH1 0x4 DUP1 CALLDATASIZE LT ISZERO PUSH2 0x14 JUMPI PUSH1 0x0 DUP1 REVERT JUMPDEST PUSH1 0x0 CALLDATALOAD PUSH1 0xE0 SHR SWAP2 DUP3 PUSH4 0x13CF08B EQ PUSH2 0x1DDA JUMPI POP DUP2 PUSH4 0x44BC2BD EQ PUSH2 0x1CAB JUMPI DUP2 PUSH4 0x57B2074 EQ PUSH2 0x1C90 JUMPI DUP2 PUSH4 0x6FDDE03 EQ PUSH2 0x1BC2 JUMPI DUP2 PUSH4 0x95EA7B3 EQ PUSH2 0x1B23 JUMPI DUP2 PUSH4 0xC0512E9 EQ PUSH2 0x1B05 JUMPI DUP2 PUSH4 0xD61B519 EQ PUSH2 0x18FF JUMPI DUP2 PUSH4 0x18160DDD EQ PUSH2 0x18E1 JUMPI DUP2 PUSH4 0x204C5D1F EQ PUSH2 0x164E JUMPI DUP2 PUSH4 0x22DBEFBB EQ PUSH2 0xB3C JUMPI DUP2 PUSH4 0x23B872DD EQ PUSH2 0x1556 JUMPI DUP2 PUSH4 0x2EE09598 EQ PUSH2 0x14BC JUMPI DUP2 PUSH4 0x313CE567 EQ PUSH2 0x14A0 JUMPI DUP2 PUSH4 0x35324EEE EQ PUSH2 0x1338 JUMPI DUP2 PUSH4 0x3B60288A EQ PUSH2 0x1309 JUMPI DUP2 PUSH4 0x4114509B EQ PUSH2 0x11EF JUMPI DUP2 PUSH4 0x456D10C1 EQ PUSH2 0x1109 JUMPI DUP2 PUSH4 0x4B145793 EQ PUSH2 0x745 JUMPI DUP2 PUSH4 0x4DE184F6 EQ PUSH2 0x10E6 JUMPI DUP2 PUSH4 0x4FA76EC9 EQ PUSH2 0x10EB JUMPI DUP2 PUSH4 0x5221C1F0 EQ PUSH2 0x10E6 JUMPI DUP2 PUSH4 0x548D496F EQ PUSH2 0x10B7 JUMPI DUP2 PUSH4 0x5CF0E8A4 EQ PUSH2 0x1099 JUMPI DUP2 PUSH4 0x6CBADBFA EQ PUSH2 0x1099 JUMPI DUP2 PUSH4 0x70A08231 EQ PUSH2 0x105F JUMPI DUP2 PUSH4 0x7CE288EA EQ PUSH2 0xF6B JUMPI DUP2 PUSH4 0x7E5A9B47 EQ PUSH2 0xF3C JUMPI DUP2 PUSH4 0x893D692A EQ PUSH2 0xE20 JUMPI DUP2 PUSH4 0x8C7B04C9 EQ PUSH2 0xE02 JUMPI DUP2 PUSH4 0x95D89B41 EQ PUSH2 0xD17 JUMPI DUP2 PUSH4 0x9A49BDDE EQ PUSH2 0xCF2 JUMPI DUP2 PUSH4 0xA9059CBB EQ PUSH2 0xCC1 JUMPI DUP2 PUSH4 0xAF89D2C4 EQ PUSH2 0xC92 JUMPI DUP2 PUSH4 0xB00E0730 EQ PUSH2 0xB6E JUMPI DUP2 PUSH4 0xB0B6CC1A EQ PUSH2 0xB3C JUMPI DUP2 PUSH4 0xB3594510 EQ PUSH2 0x774 JUMPI DUP2 PUSH4 0xB3FE8BCB EQ PUSH2 0x745 JUMPI DUP2 PUSH4 0xC51CAB3A EQ PUSH2 0x6D5 JUMPI DUP2 PUSH4 0xC9D27AFE EQ PUSH2 0x54E JUMPI DUP2 PUSH4 0xCCD7A490 EQ PUSH2 0x388 JUMPI DUP2 PUSH4 0xDD62ED3E EQ PUSH2 0x337 JUMPI DUP2 PUSH4 0xE49A62E9 EQ PUSH2 0x310 JUMPI DUP2 PUSH4 0xECED3DFB EQ PUSH2 0x2F4 JUMPI POP PUSH4 0xF2C26A47 EQ PUSH2 0x205 JUMPI PUSH1 0x0 DUP1 REVERT JUMPDEST CALLVALUE PUSH2 0x2EF JUMPI PUSH1 0x0 CALLDATASIZE PUSH1 0x3 NOT ADD SLT PUSH2 0x2EF JUMPI PUSH2 0x2A4 PUSH1 0x40 MLOAD PUSH2 0x230 DUP2 PUSH2 0x229 DUP2 PUSH2 0x1EDB JUMP JUMPDEST SUB DUP3 PUSH2 0x21DD JUMP JUMPDEST PUSH1 0x40 MLOAD PUSH2 0x240 DUP2 PUSH2 0x229 DUP2 PUSH2 0x1F7F JUMP JUMPDEST PUSH1 0x40 MLOAD SWAP1 PUSH2 0x258 DUP3 PUSH2 0x251 DUP2 PUSH2 0x2006 JUMP JUMPDEST SUB DUP4 PUSH2 0x21DD JUMP JUMPDEST PUSH1 0x40 MLOAD SWAP2 PUSH2 0x270 DUP4 PUSH2 0x269 DUP2 PUSH2 0x208D JUMP JUMPDEST SUB DUP5 PUSH2 0x21DD JUMP JUMPDEST PUSH1 0xA SLOAD SWAP3 PUSH1 0xB SLOAD PUSH2 0x2CE PUSH1 0xD SLOAD SWAP3 PUSH2 0x2C0 PUSH1 0xE SLOAD SWAP6 PUSH2 0x2B2 PUSH1 0xFF PUSH1 0xF SLOAD AND SWAP9 PUSH1 0x40 MLOAD SWAP13 DUP14 SWAP13 DUP14 PUSH2 0x120 SWAP1 DUP2 DUP2 MSTORE ADD SWAP1 PUSH2 0x2222 JUMP JUMPDEST DUP13 DUP2 SUB PUSH1 0x20 DUP15 ADD MSTORE SWAP1 PUSH2 0x2222 JUMP JUMPDEST SWAP1 DUP11 DUP3 SUB PUSH1 0x40 DUP13 ADD MSTORE PUSH2 0x2222 JUMP JUMPDEST SWAP1 DUP9 DUP3 SUB PUSH1 0x60 DUP11 ADD MSTORE PUSH2 0x2222 JUMP JUMPDEST SWAP5 PUSH1 0x80 DUP8 ADD MSTORE PUSH1 0xA0 DUP7 ADD MSTORE PUSH1 0xC0 DUP6 ADD MSTORE PUSH1 0xE0 DUP5 ADD MSTORE ISZERO ISZERO PUSH2 0x100 DUP4 ADD MSTORE SUB SWAP1 RETURN JUMPDEST PUSH1 0x0 DUP1 REVERT JUMPDEST CALLVALUE PUSH2 0x2EF JUMPI PUSH1 0x0 CALLDATASIZE PUSH1 0x3 NOT ADD SLT PUSH2 0x2EF JUMPI PUSH1 0x20 SWAP1 PUSH1 0x40 MLOAD SWAP1 DUP2 MSTORE RETURN JUMPDEST CALLVALUE PUSH2 0x2EF JUMPI PUSH1 0x20 CALLDATASIZE PUSH1 0x3 NOT ADD SLT PUSH2 0x2EF JUMPI PUSH2 0x32D PUSH1 0x20 SWAP2 CALLDATALOAD PUSH2 0x278C JUMP JUMPDEST PUSH1 0x40 MLOAD SWAP1 ISZERO ISZERO DUP2 MSTORE RETURN JUMPDEST CALLVALUE PUSH2 0x2EF JUMPI PUSH1 0x40 CALLDATASIZE PUSH1 0x3 NOT ADD SLT PUSH2 0x2EF JUMPI PUSH2 0x350 PUSH2 0x22B8 JUMP JUMPDEST PUSH2 0x358 PUSH2 0x22CE JUMP JUMPDEST SWAP1 PUSH1 0x1 DUP1 PUSH1 0xA0 SHL SUB DUP1 SWAP2 AND PUSH1 0x0 MSTORE PUSH1 0x1 PUSH1 0x20 MSTORE PUSH1 0x40 PUSH1 0x0 KECCAK256 SWAP2 AND PUSH1 0x0 MSTORE PUSH1 0x20 MSTORE PUSH1 0x20 PUSH1 0x40 PUSH1 0x0 KECCAK256 SLOAD PUSH1 0x40 MLOAD SWAP1 DUP2 MSTORE RETURN JUMPDEST CALLVALUE PUSH2 0x2EF JUMPI PUSH2 0x396 CALLDATASIZE PUSH2 0x234C JUMP JUMPDEST SWAP1 PUSH2 0x39F PUSH2 0x25F5 JUMP JUMPDEST DUP1 PUSH1 0x0 MSTORE PUSH1 0x20 SWAP3 PUSH1 0x17 DUP5 MSTORE PUSH1 0x40 PUSH1 0x0 KECCAK256 SWAP1 PUSH2 0x3BC DUP3 SLOAD ISZERO ISZERO PUSH2 0x26C5 JUMP JUMPDEST DUP1 DUP3 ADD SLOAD TIMESTAMP LT ISZERO PUSH2 0x51A JUMPI PUSH2 0x3D8 PUSH1 0xFF PUSH1 0x3 DUP5 ADD SLOAD AND ISZERO PUSH2 0x2711 JUMP JUMPDEST PUSH1 0x6 DUP3 ADD SWAP1 CALLER PUSH1 0x0 MSTORE DUP2 DUP7 MSTORE PUSH1 0xFF PUSH1 0x40 PUSH1 0x0 KECCAK256 SLOAD AND PUSH2 0x4E5 JUMPI CALLER PUSH1 0x0 MSTORE PUSH1 0x0 DUP7 MSTORE PUSH1 0x40 PUSH1 0x0 KECCAK256 SLOAD ISZERO PUSH2 0x4AD JUMPI POP SWAP4 PUSH2 0x48E SWAP2 PUSH32 0x78B8E65C466DF05EA5DDF0593B44648ECA1F35C039F180E31257A6F1BDD005DC SWAP6 CALLER PUSH1 0x0 MSTORE PUSH1 0x0 DUP4 MSTORE PUSH1 0x40 PUSH1 0x0 KECCAK256 SLOAD SWAP3 MSTORE PUSH1 0x40 PUSH1 0x0 KECCAK256 PUSH1 0x1 PUSH1 0xFF NOT DUP3 SLOAD AND OR SWAP1 SSTORE DUP5 PUSH1 0x0 EQ PUSH2 0x498 JUMPI PUSH1 0x1 ADD PUSH2 0x462 DUP3 DUP3 SLOAD PUSH2 0x2449 JUMP JUMPDEST SWAP1 SSTORE JUMPDEST PUSH1 0x40 DUP1 MLOAD SWAP4 DUP5 MSTORE CALLER PUSH1 0x20 DUP6 ADD MSTORE SWAP4 ISZERO ISZERO SWAP4 DUP4 ADD SWAP4 SWAP1 SWAP4 MSTORE PUSH1 0x60 DUP3 ADD SWAP3 SWAP1 SWAP3 MSTORE SWAP1 DUP2 SWAP1 PUSH1 0x80 DUP3 ADD SWAP1 JUMP JUMPDEST SUB SWAP1 LOG1 PUSH1 0x1 PUSH1 0x5 SSTORE STOP JUMPDEST PUSH1 0x2 ADD PUSH2 0x4A6 DUP3 DUP3 SLOAD PUSH2 0x2449 JUMP JUMPDEST SWAP1 SSTORE PUSH2 0x465 JUMP JUMPDEST PUSH1 0x40 MLOAD PUSH3 0x461BCD PUSH1 0xE5 SHL DUP2 MSTORE SWAP1 DUP2 ADD DUP7 SWAP1 MSTORE PUSH1 0x11 PUSH1 0x24 DUP3 ADD MSTORE PUSH17 0x2737903A37B5B2B739903A379039B4B3B7 PUSH1 0x79 SHL PUSH1 0x44 DUP3 ADD MSTORE PUSH1 0x64 SWAP1 REVERT JUMPDEST PUSH1 0x40 MLOAD PUSH3 0x461BCD PUSH1 0xE5 SHL DUP2 MSTORE SWAP1 DUP2 ADD DUP7 SWAP1 MSTORE PUSH1 0xE PUSH1 0x24 DUP3 ADD MSTORE PUSH14 0x105B1C9958591E481CDA59DB9959 PUSH1 0x92 SHL PUSH1 0x44 DUP3 ADD MSTORE PUSH1 0x64 SWAP1 REVERT JUMPDEST PUSH1 0x40 MLOAD PUSH3 0x461BCD PUSH1 0xE5 SHL DUP2 MSTORE SWAP1 DUP2 ADD DUP6 SWAP1 MSTORE PUSH1 0xD PUSH1 0x24 DUP3 ADD MSTORE PUSH13 0x14DA59DB9A5B99C8195B991959 PUSH1 0x9A SHL PUSH1 0x44 DUP3 ADD MSTORE PUSH1 0x64 SWAP1 REVERT JUMPDEST CALLVALUE PUSH2 0x2EF JUMPI PUSH2 0x55C CALLDATASIZE PUSH2 0x234C JUMP JUMPDEST SWAP1 PUSH2 0x565 PUSH2 0x25F5 JUMP JUMPDEST DUP1 PUSH1 0x0 MSTORE PUSH1 0x20 SWAP3 PUSH1 0x16 DUP5 MSTORE PUSH1 0x40 PUSH1 0x0 KECCAK256 SWAP1 PUSH2 0x582 DUP4 DUP4 SLOAD EQ PUSH2 0x255D JUMP JUMPDEST PUSH1 0x5 DUP3 ADD SLOAD TIMESTAMP LT ISZERO PUSH2 0x6A2 JUMPI PUSH2 0x59E PUSH1 0xFF DUP3 DUP5 ADD SLOAD AND ISZERO PUSH2 0x25A9 JUMP JUMPDEST PUSH1 0x8 DUP3 ADD SWAP1 CALLER PUSH1 0x0 MSTORE DUP2 DUP7 MSTORE PUSH1 0xFF PUSH1 0x40 PUSH1 0x0 KECCAK256 SLOAD AND PUSH2 0x66E JUMPI CALLER PUSH1 0x0 MSTORE PUSH1 0x0 DUP7 MSTORE PUSH1 0x40 PUSH1 0x0 KECCAK256 SLOAD ISZERO PUSH2 0x636 JUMPI POP SWAP4 PUSH2 0x48E SWAP2 PUSH32 0x78975AAF742630489BADD22949B88AC50EAAEA576339EE05440B671A33BFB6A9 SWAP6 CALLER PUSH1 0x0 MSTORE PUSH1 0x0 DUP4 MSTORE PUSH1 0x40 PUSH1 0x0 KECCAK256 SLOAD SWAP3 MSTORE PUSH1 0x40 PUSH1 0x0 KECCAK256 PUSH1 0x1 PUSH1 0xFF NOT DUP3 SLOAD AND OR SWAP1 SSTORE DUP5 PUSH1 0x0 EQ PUSH2 0x628 JUMPI PUSH1 0x2 ADD PUSH2 0x462 DUP3 DUP3 SLOAD PUSH2 0x2449 JUMP JUMPDEST PUSH1 0x3 ADD PUSH2 0x4A6 DUP3 DUP3 SLOAD PUSH2 0x2449 JUMP JUMPDEST PUSH1 0x40 MLOAD PUSH3 0x461BCD PUSH1 0xE5 SHL DUP2 MSTORE SWAP1 DUP2 ADD DUP7 SWAP1 MSTORE PUSH1 0x11 PUSH1 0x24 DUP3 ADD MSTORE PUSH17 0x4E6F20746F6B656E7320746F20766F7465 PUSH1 0x78 SHL PUSH1 0x44 DUP3 ADD MSTORE PUSH1 0x64 SWAP1 REVERT JUMPDEST PUSH1 0x40 MLOAD PUSH3 0x461BCD PUSH1 0xE5 SHL DUP2 MSTORE SWAP1 DUP2 ADD DUP7 SWAP1 MSTORE PUSH1 0xD PUSH1 0x24 DUP3 ADD MSTORE PUSH13 0x105B1C9958591E481D9BDD1959 PUSH1 0x9A SHL PUSH1 0x44 DUP3 ADD MSTORE PUSH1 0x64 SWAP1 REVERT JUMPDEST PUSH1 0x40 MLOAD PUSH3 0x461BCD PUSH1 0xE5 SHL DUP2 MSTORE SWAP1 DUP2 ADD DUP6 SWAP1 MSTORE PUSH1 0xC PUSH1 0x24 DUP3 ADD MSTORE PUSH12 0x159BDD1A5B99C8195B991959 PUSH1 0xA2 SHL PUSH1 0x44 DUP3 ADD MSTORE PUSH1 0x64 SWAP1 REVERT JUMPDEST CALLVALUE PUSH2 0x2EF JUMPI PUSH1 0x20 CALLDATASIZE PUSH1 0x3 NOT ADD SLT PUSH2 0x2EF JUMPI DUP1 PUSH1 0xC0 SWAP2 CALLDATALOAD PUSH1 0x0 MSTORE PUSH1 0x17 PUSH1 0x20 MSTORE PUSH1 0x40 PUSH1 0x0 KECCAK256 SWAP1 DUP2 SLOAD SWAP2 PUSH1 0x1 DUP2 ADD SLOAD SWAP2 PUSH1 0x2 DUP3 ADD SLOAD PUSH1 0xFF PUSH1 0x3 DUP5 ADD SLOAD AND SWAP2 DUP4 ADD SLOAD SWAP3 PUSH1 0x5 PUSH1 0x1 DUP1 PUSH1 0xA0 SHL SUB SWAP2 ADD SLOAD AND SWAP4 PUSH1 0x40 MLOAD SWAP6 DUP7 MSTORE PUSH1 0x20 DUP7 ADD MSTORE PUSH1 0x40 DUP6 ADD MSTORE ISZERO ISZERO PUSH1 0x60 DUP5 ADD MSTORE PUSH1 0x80 DUP4 ADD MSTORE PUSH1 0xA0 DUP3 ADD MSTORE RETURN JUMPDEST CALLVALUE PUSH2 0x2EF JUMPI PUSH1 0x20 CALLDATASIZE PUSH1 0x3 NOT ADD SLT PUSH2 0x2EF JUMPI CALLDATALOAD PUSH1 0x0 MSTORE PUSH1 0x15 PUSH1 0x20 MSTORE PUSH1 0x20 PUSH1 0xFF PUSH1 0x40 PUSH1 0x0 KECCAK256 SLOAD AND PUSH1 0x40 MLOAD SWAP1 ISZERO ISZERO DUP2 MSTORE RETURN JUMPDEST CALLVALUE PUSH2 0x2EF JUMPI PUSH1 0x80 CALLDATASIZE PUSH1 0x3 NOT ADD SLT PUSH2 0x2EF JUMPI DUP1 CALLDATALOAD PUSH8 0xFFFFFFFFFFFFFFFF SWAP2 DUP3 DUP3 GT PUSH2 0x2EF JUMPI CALLDATASIZE PUSH1 0x23 DUP4 ADD SLT ISZERO PUSH2 0x2EF JUMPI PUSH2 0x7B7 PUSH1 0x24 SWAP3 CALLDATASIZE SWAP1 DUP5 DUP2 DUP6 ADD CALLDATALOAD SWAP2 ADD PUSH2 0x2263 JUMP JUMPDEST SWAP1 DUP3 CALLDATALOAD SWAP4 PUSH1 0x44 CALLDATALOAD DUP2 DUP2 GT PUSH2 0x2EF JUMPI PUSH2 0x7D2 SWAP1 CALLDATASIZE SWAP1 DUP5 ADD PUSH2 0x229A JUMP JUMPDEST SWAP5 PUSH1 0x64 CALLDATALOAD SWAP6 CALLER PUSH1 0x0 MSTORE PUSH1 0x20 SWAP7 PUSH1 0x0 DUP9 MSTORE PUSH1 0x40 PUSH1 0x0 KECCAK256 SLOAD ISZERO PUSH2 0xAED JUMPI PUSH2 0x7F8 DUP4 ISZERO ISZERO PUSH2 0x246C JUMP JUMPDEST DUP1 PUSH1 0x0 MSTORE PUSH1 0x18 DUP9 MSTORE PUSH2 0x811 PUSH1 0xFF PUSH1 0x40 PUSH1 0x0 KECCAK256 SLOAD AND PUSH2 0x24B8 JUMP JUMPDEST PUSH1 0x0 MSTORE PUSH1 0x18 DUP8 MSTORE PUSH1 0xFF PUSH1 0x40 PUSH1 0x0 KECCAK256 SLOAD AND ISZERO PUSH2 0xAB4 JUMPI PUSH1 0x11 SLOAD SWAP6 PUSH2 0x833 DUP8 PUSH2 0x24FA JUMP JUMPDEST PUSH1 0x11 SSTORE DUP7 PUSH1 0x0 MSTORE PUSH1 0x16 DUP9 MSTORE PUSH1 0x40 PUSH1 0x0 KECCAK256 DUP8 DUP2 SSTORE PUSH1 0x1 SWAP4 DUP5 DUP3 ADD DUP9 MLOAD DUP8 DUP2 GT PUSH2 0xAA0 JUMPI PUSH2 0x869 DUP2 PUSH2 0x863 DUP5 SLOAD PUSH2 0x1EA1 JUMP JUMPDEST DUP5 PUSH2 0x2509 JUMP JUMPDEST DUP12 DUP13 PUSH1 0x1F DUP4 GT PUSH1 0x1 EQ PUSH2 0xA2B JUMPI POP SWAP2 DUP2 PUSH1 0x7 SWAP6 SWAP5 SWAP3 PUSH2 0x8BC SWAP5 PUSH1 0x0 SWAP2 PUSH2 0xA20 JUMPI JUMPDEST POP PUSH1 0x0 NOT PUSH1 0x3 DUP4 SWAP1 SHL SHR NOT AND SWAP1 DUP10 SHL OR SWAP1 SSTORE JUMPDEST PUSH1 0x0 PUSH1 0x2 DUP5 ADD SSTORE PUSH1 0x0 PUSH1 0x3 DUP5 ADD SSTORE DUP9 DUP4 ADD PUSH1 0xFF NOT DUP2 SLOAD AND SWAP1 SSTORE TIMESTAMP PUSH2 0x2449 JUMP JUMPDEST PUSH1 0x5 DUP3 ADD SSTORE PUSH1 0x6 DUP2 ADD CALLER PUSH1 0x1 PUSH1 0x1 PUSH1 0x60 SHL SUB PUSH1 0xA0 SHL DUP3 SLOAD AND OR SWAP1 SSTORE ADD SWAP5 DUP3 MLOAD SWAP5 DUP6 GT PUSH2 0xA0D JUMPI POP POP PUSH2 0x8F8 DUP4 PUSH2 0x8F2 DUP7 SLOAD PUSH2 0x1EA1 JUMP JUMPDEST DUP7 PUSH2 0x2509 JUMP JUMPDEST DUP7 SWAP1 PUSH1 0x1F DUP5 GT PUSH1 0x1 EQ PUSH2 0x980 JUMPI SWAP3 DUP1 PUSH2 0x96A SWAP6 SWAP4 DUP2 SWAP4 PUSH32 0x7585F467599D0F008985F231AF99293BE388626AC16CA59505C2F8F88969CD63 SWAP9 SWAP7 PUSH1 0x0 SWAP5 PUSH2 0x975 JUMPI JUMPDEST POP POP SHL SWAP2 PUSH1 0x0 NOT SWAP1 PUSH1 0x3 SHL SHR NOT AND OR SWAP1 SSTORE JUMPDEST PUSH1 0x40 MLOAD SWAP2 DUP3 SWAP2 DUP6 DUP4 MSTORE CALLER DUP8 DUP5 ADD MSTORE PUSH1 0x60 PUSH1 0x40 DUP5 ADD MSTORE PUSH1 0x60 DUP4 ADD SWAP1 PUSH2 0x2222 JUMP JUMPDEST SUB SWAP1 LOG1 PUSH1 0x40 MLOAD SWAP1 DUP2 MSTORE RETURN JUMPDEST ADD MLOAD SWAP3 POP DUP11 DUP1 PUSH2 0x939 JUMP JUMPDEST SWAP1 PUSH1 0x1F SWAP4 SWAP3 SWAP4 NOT DUP4 AND SWAP2 DUP6 PUSH1 0x0 MSTORE DUP9 PUSH1 0x0 KECCAK256 SWAP3 PUSH1 0x0 JUMPDEST DUP11 DUP3 DUP3 LT PUSH2 0x9F9 JUMPI POP POP SWAP2 PUSH32 0x7585F467599D0F008985F231AF99293BE388626AC16CA59505C2F8F88969CD63 SWAP8 SWAP6 SWAP4 SWAP2 DUP6 PUSH2 0x96A SWAP9 SWAP7 SWAP5 LT PUSH2 0x9E0 JUMPI JUMPDEST POP POP POP DUP2 SHL ADD SWAP1 SSTORE PUSH2 0x94B JUMP JUMPDEST ADD MLOAD PUSH1 0x0 NOT PUSH1 0xF8 DUP5 PUSH1 0x3 SHL AND SHR NOT AND SWAP1 SSTORE DUP9 DUP1 DUP1 PUSH2 0x9D3 JUMP JUMPDEST DUP4 DUP6 ADD MLOAD DUP7 SSTORE SWAP5 DUP8 ADD SWAP5 SWAP4 DUP5 ADD SWAP4 ADD PUSH2 0x996 JUMP JUMPDEST PUSH1 0x41 SWAP1 PUSH4 0x4E487B71 PUSH1 0xE0 SHL PUSH1 0x0 MSTORE MSTORE PUSH1 0x0 REVERT JUMPDEST SWAP1 POP DUP13 ADD MLOAD DUP16 PUSH2 0x88A JUMP JUMPDEST DUP9 SWAP3 SWAP2 DUP13 PUSH1 0x1F NOT DUP5 AND DUP7 PUSH1 0x0 MSTORE DUP4 PUSH1 0x0 KECCAK256 SWAP4 PUSH1 0x0 SWAP1 JUMPDEST DUP3 DUP3 LT PUSH2 0xA85 JUMPI POP POP SWAP2 PUSH1 0x7 SWAP9 SWAP8 SWAP6 SWAP4 SWAP2 DUP6 PUSH2 0x8BC SWAP9 SWAP7 SWAP5 LT PUSH2 0xA6C JUMPI JUMPDEST POP POP POP DUP2 SHL ADD SWAP1 SSTORE PUSH2 0x89D JUMP JUMPDEST ADD MLOAD PUSH1 0x0 NOT PUSH1 0xF8 DUP5 PUSH1 0x3 SHL AND SHR NOT AND SWAP1 SSTORE DUP16 DUP1 DUP15 PUSH2 0xA5F JUMP JUMPDEST SWAP3 DUP5 ADD MLOAD DUP6 SSTORE DUP13 SWAP7 SWAP1 SWAP5 ADD SWAP4 SWAP3 DUP3 ADD SWAP3 DUP16 SWAP3 SWAP1 DUP2 ADD SWAP1 PUSH2 0xA41 JUMP JUMPDEST DUP5 PUSH1 0x41 DUP11 PUSH4 0x4E487B71 PUSH1 0xE0 SHL PUSH1 0x0 MSTORE MSTORE PUSH1 0x0 REVERT JUMPDEST PUSH1 0x40 MLOAD PUSH3 0x461BCD PUSH1 0xE5 SHL DUP2 MSTORE DUP1 DUP6 ADD DUP9 SWAP1 MSTORE PUSH1 0x13 DUP2 DUP9 ADD MSTORE PUSH19 0x436861696E206E6F7420617661696C61626C65 PUSH1 0x68 SHL PUSH1 0x44 DUP3 ADD MSTORE PUSH1 0x64 SWAP1 REVERT JUMPDEST PUSH1 0x40 MLOAD PUSH3 0x461BCD PUSH1 0xE5 SHL DUP2 MSTORE DUP1 DUP7 ADD DUP10 SWAP1 MSTORE PUSH1 0x23 DUP2 DUP10 ADD MSTORE PUSH32 0x4D75737420686F6C6420746F6B656E7320746F206372656174652070726F706F PUSH1 0x44 DUP3 ADD MSTORE PUSH3 0x1CD85B PUSH1 0xEA SHL PUSH1 0x64 DUP3 ADD MSTORE PUSH1 0x84 SWAP1 REVERT JUMPDEST CALLVALUE PUSH2 0x2EF JUMPI PUSH1 0x20 CALLDATASIZE PUSH1 0x3 NOT ADD SLT PUSH2 0x2EF JUMPI CALLDATALOAD PUSH1 0x0 MSTORE PUSH1 0x14 PUSH1 0x20 MSTORE PUSH1 0x20 PUSH1 0x1 DUP1 PUSH1 0xA0 SHL SUB PUSH1 0x40 PUSH1 0x0 KECCAK256 SLOAD AND PUSH1 0x40 MLOAD SWAP1 DUP2 MSTORE RETURN JUMPDEST CALLVALUE PUSH2 0x2EF JUMPI PUSH1 0x40 CALLDATASIZE PUSH1 0x3 NOT ADD SLT PUSH2 0x2EF JUMPI DUP1 CALLDATALOAD SWAP1 PUSH1 0x24 CALLDATALOAD CALLER PUSH1 0x0 MSTORE PUSH1 0x0 PUSH1 0x20 MSTORE PUSH1 0x40 PUSH1 0x0 KECCAK256 SLOAD ISZERO PUSH2 0xC42 JUMPI PUSH1 0x60 PUSH1 0x20 SWAP4 PUSH1 0x5 DUP4 PUSH2 0xBCD PUSH32 0x8D5C76B09B9C1F4D0453D21436DCB0B568A50E9C0AE059E4D0AE8C95C71D07F0 SWAP6 ISZERO ISZERO PUSH2 0x246C JUMP JUMPDEST PUSH1 0x12 SLOAD SWAP6 PUSH2 0xBDA DUP8 PUSH2 0x24FA JUMP JUMPDEST PUSH1 0x12 SSTORE DUP7 PUSH1 0x0 MSTORE PUSH1 0x17 DUP9 MSTORE PUSH2 0xC11 PUSH1 0x40 PUSH1 0x0 KECCAK256 SWAP3 DUP6 DUP5 SSTORE PUSH1 0x0 PUSH1 0x1 DUP6 ADD SSTORE PUSH1 0x0 PUSH1 0x2 DUP6 ADD SSTORE PUSH1 0x3 DUP5 ADD PUSH1 0xFF NOT DUP2 SLOAD AND SWAP1 SSTORE TIMESTAMP PUSH2 0x2449 JUMP JUMPDEST SWAP1 DUP3 ADD SSTORE ADD CALLER PUSH1 0x1 PUSH1 0x1 PUSH1 0x60 SHL SUB PUSH1 0xA0 SHL DUP3 SLOAD AND OR SWAP1 SSTORE PUSH1 0x40 MLOAD SWAP1 DUP5 DUP3 MSTORE CALLER DUP7 DUP4 ADD MSTORE PUSH1 0x40 DUP3 ADD MSTORE LOG1 PUSH1 0x40 MLOAD SWAP1 DUP2 MSTORE RETURN JUMPDEST PUSH1 0x40 MLOAD PUSH3 0x461BCD PUSH1 0xE5 SHL DUP2 MSTORE PUSH1 0x20 DUP2 DUP5 ADD MSTORE PUSH1 0x24 DUP1 DUP3 ADD MSTORE PUSH32 0x4D75737420686F6C6420746F6B656E7320746F20637265617465206F70657261 PUSH1 0x44 DUP3 ADD MSTORE PUSH4 0x3A34B7B7 PUSH1 0xE1 SHL PUSH1 0x64 DUP3 ADD MSTORE PUSH1 0x84 SWAP1 REVERT JUMPDEST CALLVALUE PUSH2 0x2EF JUMPI PUSH1 0x20 CALLDATASIZE PUSH1 0x3 NOT ADD SLT PUSH2 0x2EF JUMPI CALLDATALOAD PUSH1 0x0 MSTORE PUSH1 0x1A PUSH1 0x20 MSTORE PUSH1 0x20 PUSH1 0xFF PUSH1 0x40 PUSH1 0x0 KECCAK256 SLOAD AND PUSH1 0x40 MLOAD SWAP1 ISZERO ISZERO DUP2 MSTORE RETURN JUMPDEST CALLVALUE PUSH2 0x2EF JUMPI PUSH1 0x40 CALLDATASIZE PUSH1 0x3 NOT ADD SLT PUSH2 0x2EF JUMPI PUSH2 0xCE7 PUSH2 0xCDD PUSH2 0x22B8 JUMP JUMPDEST PUSH1 0x24 CALLDATALOAD SWAP1 CALLER PUSH2 0x236B JUMP JUMPDEST PUSH1 0x20 PUSH1 0x40 MLOAD PUSH1 0x1 DUP2 MSTORE RETURN JUMPDEST CALLVALUE PUSH2 0x2EF JUMPI PUSH1 0x20 CALLDATASIZE PUSH1 0x3 NOT ADD SLT PUSH2 0x2EF JUMPI PUSH2 0xD0F PUSH1 0x20 SWAP2 CALLDATALOAD PUSH2 0x27ED JUMP JUMPDEST PUSH1 0x40 MLOAD SWAP1 DUP2 MSTORE RETURN JUMPDEST CALLVALUE PUSH2 0x2EF JUMPI PUSH1 0x0 CALLDATASIZE PUSH1 0x3 NOT ADD SLT PUSH2 0x2EF JUMPI PUSH1 0x40 MLOAD SWAP1 PUSH1 0x0 SWAP1 DUP1 SLOAD PUSH2 0xD3A DUP2 PUSH2 0x1EA1 JUMP JUMPDEST DUP1 DUP6 MSTORE SWAP2 PUSH1 0x1 SWAP2 DUP1 DUP4 AND SWAP1 DUP2 ISZERO PUSH2 0xDD8 JUMPI POP PUSH1 0x1 EQ PUSH2 0xD7C JUMPI JUMPDEST PUSH2 0xD78 DUP6 PUSH2 0xD64 DUP2 DUP8 SUB DUP3 PUSH2 0x21DD JUMP JUMPDEST PUSH1 0x40 MLOAD SWAP2 DUP3 SWAP2 PUSH1 0x20 DUP4 MSTORE PUSH1 0x20 DUP4 ADD SWAP1 PUSH2 0x2222 JUMP JUMPDEST SUB SWAP1 RETURN JUMPDEST PUSH1 0x0 SWAP1 DUP2 MSTORE SWAP3 POP PUSH32 0x8A35ACFBC15FF81A39AE7D344FD709F28E8600B4AA8C65C6B64BFE7FE36BD19B JUMPDEST DUP3 DUP5 LT PUSH2 0xDC0 JUMPI POP POP POP DUP2 ADD PUSH1 0x20 ADD PUSH2 0xD64 DUP3 PUSH2 0xD78 PUSH2 0xD54 JUMP JUMPDEST DUP1 SLOAD PUSH1 0x20 DUP6 DUP8 ADD DUP2 ADD SWAP2 SWAP1 SWAP2 MSTORE SWAP1 SWAP4 ADD SWAP3 DUP2 ADD PUSH2 0xDA5 JUMP JUMPDEST DUP7 SWAP6 POP PUSH2 0xD78 SWAP7 SWAP4 POP PUSH1 0x20 SWAP3 POP PUSH2 0xD64 SWAP5 SWAP2 POP PUSH1 0xFF NOT AND DUP3 DUP5 ADD MSTORE ISZERO ISZERO PUSH1 0x5 SHL DUP3 ADD ADD SWAP3 SWAP4 PUSH2 0xD54 JUMP JUMPDEST CALLVALUE PUSH2 0x2EF JUMPI PUSH1 0x0 CALLDATASIZE PUSH1 0x3 NOT ADD SLT PUSH2 0x2EF JUMPI PUSH1 0x20 PUSH1 0x12 SLOAD PUSH1 0x40 MLOAD SWAP1 DUP2 MSTORE RETURN JUMPDEST CALLVALUE PUSH2 0x2EF JUMPI PUSH1 0x20 CALLDATASIZE PUSH1 0x3 NOT ADD SLT PUSH2 0x2EF JUMPI DUP1 CALLDATALOAD SWAP1 DUP2 PUSH1 0x0 MSTORE PUSH1 0x17 PUSH1 0x20 MSTORE PUSH1 0x40 PUSH1 0x0 KECCAK256 SWAP1 DUP2 SLOAD SWAP2 PUSH2 0xE51 DUP4 ISZERO ISZERO PUSH2 0x26C5 JUMP JUMPDEST PUSH1 0x3 DUP2 ADD SWAP2 DUP1 DUP4 SLOAD SWAP3 PUSH2 0xE67 PUSH1 0xFF DUP6 AND ISZERO PUSH2 0x2711 JUMP JUMPDEST ADD SLOAD TIMESTAMP LT PUSH2 0xF04 JUMPI PUSH2 0xE78 DUP6 PUSH2 0x275D JUMP JUMPDEST DUP2 PUSH2 0xEFC JUMPI JUMPDEST POP ISZERO PUSH2 0xEC1 JUMPI PUSH32 0x64CEE5A70D662A7EEF5B2A171DAA51DC624F3D64A35D0855B385262B893DC5A5 PUSH1 0x40 DUP7 DUP7 DUP7 PUSH1 0x1 DUP8 PUSH1 0xFF NOT AND OR SWAP1 SSTORE DUP3 MLOAD SWAP2 DUP3 MSTORE PUSH1 0x20 DUP3 ADD MSTORE LOG1 STOP JUMPDEST PUSH1 0x64 SWAP1 PUSH1 0x20 PUSH1 0x40 MLOAD SWAP2 PUSH3 0x461BCD PUSH1 0xE5 SHL DUP4 MSTORE DUP3 ADD MSTORE PUSH1 0x14 PUSH1 0x24 DUP3 ADD MSTORE PUSH20 0x13DC195C985D1A5BDB881B9BDD081C185CDCD959 PUSH1 0x62 SHL PUSH1 0x44 DUP3 ADD MSTORE REVERT JUMPDEST SWAP1 POP DUP7 PUSH2 0xE7E JUMP JUMPDEST PUSH1 0x64 SWAP1 PUSH1 0x20 PUSH1 0x40 MLOAD SWAP2 PUSH3 0x461BCD PUSH1 0xE5 SHL DUP4 MSTORE DUP3 ADD MSTORE PUSH1 0x11 PUSH1 0x24 DUP3 ADD MSTORE PUSH17 0x14DA59DB9A5B99C81B9BDD08195B991959 PUSH1 0x7A SHL PUSH1 0x44 DUP3 ADD MSTORE REVERT JUMPDEST CALLVALUE PUSH2 0x2EF JUMPI PUSH1 0x20 CALLDATASIZE PUSH1 0x3 NOT ADD SLT PUSH2 0x2EF JUMPI PUSH2 0xF57 SWAP1 CALLDATALOAD PUSH2 0x2668 JUMP JUMPDEST PUSH1 0x40 DUP1 MLOAD SWAP3 ISZERO ISZERO DUP4 MSTORE SWAP1 ISZERO ISZERO PUSH1 0x20 DUP4 ADD MSTORE SWAP1 RETURN JUMPDEST CALLVALUE PUSH2 0x2EF JUMPI PUSH1 0x20 CALLDATASIZE PUSH1 0x3 NOT ADD SLT PUSH2 0x2EF JUMPI DUP1 CALLDATALOAD SWAP1 PUSH2 0xF88 DUP3 PUSH2 0x278C JUMP JUMPDEST ISZERO PUSH2 0x1024 JUMPI PUSH1 0x13 SLOAD PUSH1 0x0 JUMPDEST DUP3 DUP2 LT PUSH2 0xFC7 JUMPI PUSH32 0x57DF5A6A467271F04B10F7FE9E66D21DCD8AE7EAF079099D48959F24A53B6910 PUSH1 0x20 DUP6 PUSH1 0x40 MLOAD SWAP1 DUP2 MSTORE LOG1 STOP JUMPDEST DUP1 PUSH32 0x42E60114B8BC5803B43A4BCD35572ECE9A5E2CABB79A838A02D56A4C53E83313 PUSH2 0x1017 PUSH2 0xFF8 PUSH2 0x101F SWAP5 PUSH2 0x27ED JUMP JUMPDEST PUSH1 0x40 MLOAD SWAP2 DUP3 SWAP2 DUP8 DUP11 DUP5 PUSH1 0x40 SWAP2 SWAP5 SWAP4 SWAP3 PUSH1 0x60 DUP3 ADD SWAP6 DUP3 MSTORE PUSH1 0x20 DUP3 ADD MSTORE ADD MSTORE JUMP JUMPDEST SUB SWAP1 LOG1 PUSH2 0x24FA JUMP JUMPDEST PUSH2 0xF93 JUMP JUMPDEST PUSH1 0x64 SWAP1 PUSH1 0x20 PUSH1 0x40 MLOAD SWAP2 PUSH3 0x461BCD PUSH1 0xE5 SHL DUP4 MSTORE DUP3 ADD MSTORE PUSH1 0x14 PUSH1 0x24 DUP3 ADD MSTORE PUSH20 0x4E6F7420616C6C20636861696E73207265616479 PUSH1 0x60 SHL PUSH1 0x44 DUP3 ADD MSTORE REVERT JUMPDEST CALLVALUE PUSH2 0x2EF JUMPI PUSH1 0x20 CALLDATASIZE PUSH1 0x3 NOT ADD SLT PUSH2 0x2EF JUMPI PUSH1 0x1 PUSH1 0x1 PUSH1 0xA0 SHL SUB PUSH2 0x1080 PUSH2 0x22B8 JUMP JUMPDEST AND PUSH1 0x0 MSTORE PUSH1 0x0 PUSH1 0x20 MSTORE PUSH1 0x20 PUSH1 0x40 PUSH1 0x0 KECCAK256 SLOAD PUSH1 0x40 MLOAD SWAP1 DUP2 MSTORE RETURN JUMPDEST CALLVALUE PUSH2 0x2EF JUMPI PUSH1 0x0 CALLDATASIZE PUSH1 0x3 NOT ADD SLT PUSH2 0x2EF JUMPI PUSH1 0x20 PUSH1 0x13 SLOAD PUSH1 0x40 MLOAD SWAP1 DUP2 MSTORE RETURN JUMPDEST CALLVALUE PUSH2 0x2EF JUMPI PUSH1 0x20 CALLDATASIZE PUSH1 0x3 NOT ADD SLT PUSH2 0x2EF JUMPI CALLDATALOAD PUSH1 0x0 MSTORE PUSH1 0x18 PUSH1 0x20 MSTORE PUSH1 0x20 PUSH1 0xFF PUSH1 0x40 PUSH1 0x0 KECCAK256 SLOAD AND PUSH1 0x40 MLOAD SWAP1 ISZERO ISZERO DUP2 MSTORE RETURN JUMPDEST PUSH2 0x231F JUMP JUMPDEST CALLVALUE PUSH2 0x2EF JUMPI PUSH1 0x0 CALLDATASIZE PUSH1 0x3 NOT ADD SLT PUSH2 0x2EF JUMPI PUSH1 0x20 PUSH1 0x10 SLOAD PUSH1 0x40 MLOAD SWAP1 DUP2 MSTORE RETURN JUMPDEST CALLVALUE PUSH2 0x2EF JUMPI PUSH32 0xCA1838D50CA3156F1ACE7CDE39A081CC9C9A333AF6FCA55DB71817F8717E1DCB PUSH2 0x1138 CALLDATASIZE PUSH2 0x22E4 JUMP JUMPDEST POP DUP4 PUSH1 0x0 SWAP5 SWAP4 SWAP5 MSTORE PUSH1 0x16 PUSH1 0x20 MSTORE PUSH2 0x11AE PUSH1 0x3 PUSH1 0x40 PUSH1 0x0 KECCAK256 PUSH2 0x115B DUP7 DUP3 SLOAD EQ PUSH2 0x255D JUMP JUMPDEST DUP7 PUSH1 0x0 MSTORE PUSH1 0x18 PUSH1 0x20 MSTORE PUSH2 0x1175 PUSH1 0xFF PUSH1 0x40 PUSH1 0x0 KECCAK256 SLOAD AND PUSH2 0x24B8 JUMP JUMPDEST PUSH1 0x9 DUP2 ADD SWAP5 DUP8 PUSH1 0x0 MSTORE DUP6 PUSH1 0x20 MSTORE PUSH2 0x1194 PUSH1 0xFF PUSH1 0x40 PUSH1 0x0 KECCAK256 SLOAD AND ISZERO PUSH2 0x2618 JUMP JUMPDEST PUSH2 0x11A3 PUSH1 0x2 DUP4 ADD SWAP2 DUP3 SLOAD PUSH2 0x2449 JUMP JUMPDEST SWAP1 SSTORE ADD SWAP2 DUP3 SLOAD PUSH2 0x2449 JUMP JUMPDEST SWAP1 SSTORE DUP3 PUSH1 0x0 MSTORE PUSH1 0x20 MSTORE PUSH1 0x40 PUSH1 0x0 KECCAK256 PUSH1 0x1 PUSH1 0xFF NOT DUP3 SLOAD AND OR SWAP1 SSTORE PUSH2 0x11EA PUSH1 0x13 SLOAD PUSH1 0x40 MLOAD SWAP4 DUP5 SWAP4 DUP5 PUSH1 0x40 SWAP2 SWAP5 SWAP4 SWAP3 PUSH1 0x60 DUP3 ADD SWAP6 DUP3 MSTORE PUSH1 0x20 DUP3 ADD MSTORE ADD MSTORE JUMP JUMPDEST SUB SWAP1 LOG1 STOP JUMPDEST CALLVALUE PUSH2 0x2EF JUMPI PUSH1 0x20 DUP1 PUSH1 0x3 NOT CALLDATASIZE ADD SLT PUSH2 0x2EF JUMPI DUP2 CALLDATALOAD SWAP2 CALLER PUSH1 0x0 MSTORE PUSH1 0x0 DUP3 MSTORE PUSH1 0x40 PUSH1 0x0 KECCAK256 SLOAD ISZERO PUSH2 0x12BD JUMPI DUP3 PUSH1 0x0 MSTORE PUSH1 0x15 DUP3 MSTORE PUSH1 0xFF PUSH1 0x40 PUSH1 0x0 KECCAK256 SLOAD AND ISZERO PUSH2 0x1283 JUMPI POP PUSH1 0x0 DUP3 DUP2 MSTORE PUSH1 0x14 DUP3 MSTORE PUSH1 0x40 DUP1 DUP3 KECCAK256 DUP1 SLOAD PUSH1 0x1 PUSH1 0x1 PUSH1 0xA0 SHL SUB NOT AND SWAP1 SSTORE PUSH1 0x15 DUP4 MSTORE SWAP1 DUP2 SWAP1 KECCAK256 DUP1 SLOAD PUSH1 0xFF NOT AND SWAP1 SSTORE MLOAD SWAP2 DUP3 MSTORE PUSH32 0x4C7C76ABE482A2C36EA52F1B999474C69F8B4AFEEAC5635F8AEA2526864BA853 SWAP2 LOG1 STOP JUMPDEST PUSH1 0x64 SWAP2 PUSH1 0x40 MLOAD SWAP2 PUSH3 0x461BCD PUSH1 0xE5 SHL DUP4 MSTORE DUP3 ADD MSTORE PUSH1 0x15 PUSH1 0x24 DUP3 ADD MSTORE PUSH21 0x135BD91D5B1948191BD95CC81B9BDD08195E1A5CDD PUSH1 0x5A SHL PUSH1 0x44 DUP3 ADD MSTORE REVERT JUMPDEST PUSH1 0x84 SWAP2 PUSH1 0x40 MLOAD SWAP2 PUSH3 0x461BCD PUSH1 0xE5 SHL DUP4 MSTORE DUP3 ADD MSTORE PUSH1 0x21 PUSH1 0x24 DUP3 ADD MSTORE PUSH32 0x4D75737420686F6C6420746F6B656E7320746F2072656D6F7665206D6F64756C PUSH1 0x44 DUP3 ADD MSTORE PUSH1 0x65 PUSH1 0xF8 SHL PUSH1 0x64 DUP3 ADD MSTORE REVERT JUMPDEST CALLVALUE PUSH2 0x2EF JUMPI PUSH1 0x20 CALLDATASIZE PUSH1 0x3 NOT ADD SLT PUSH2 0x2EF JUMPI CALLDATALOAD PUSH1 0x0 MSTORE PUSH1 0x19 PUSH1 0x20 MSTORE PUSH1 0x20 PUSH1 0xFF PUSH1 0x40 PUSH1 0x0 KECCAK256 SLOAD AND PUSH1 0x40 MLOAD SWAP1 ISZERO ISZERO DUP2 MSTORE RETURN JUMPDEST CALLVALUE PUSH2 0x2EF JUMPI PUSH1 0x40 CALLDATASIZE PUSH1 0x3 NOT ADD SLT PUSH2 0x2EF JUMPI DUP1 CALLDATALOAD SWAP1 PUSH2 0x1354 PUSH2 0x22CE JUMP JUMPDEST CALLER PUSH1 0x0 MSTORE PUSH1 0x20 SWAP1 PUSH1 0x0 DUP3 MSTORE PUSH1 0x40 PUSH1 0x0 KECCAK256 SLOAD ISZERO PUSH2 0x145C JUMPI PUSH1 0x1 PUSH1 0x1 PUSH1 0xA0 SHL SUB AND SWAP2 DUP3 ISZERO PUSH2 0x142B JUMPI DUP4 PUSH1 0x0 MSTORE PUSH1 0x15 DUP3 MSTORE PUSH1 0xFF PUSH1 0x40 PUSH1 0x0 KECCAK256 SLOAD AND PUSH2 0x13F1 JUMPI PUSH32 0xF14475B19484BF096265507CC0C41CD3BF1994992088806830686E2D72722719 PUSH1 0x40 DUP6 DUP6 DUP6 DUP3 PUSH1 0x0 MSTORE PUSH1 0x14 DUP2 MSTORE DUP4 PUSH1 0x0 KECCAK256 DUP3 PUSH1 0x1 PUSH1 0x1 PUSH1 0x60 SHL SUB PUSH1 0xA0 SHL DUP3 SLOAD AND OR SWAP1 SSTORE PUSH1 0x15 DUP2 MSTORE DUP4 PUSH1 0x0 KECCAK256 PUSH1 0x1 PUSH1 0xFF NOT DUP3 SLOAD AND OR SWAP1 SSTORE DUP4 MLOAD SWAP3 DUP4 MSTORE DUP3 ADD MSTORE LOG1 STOP JUMPDEST PUSH1 0x64 SWAP2 PUSH1 0x40 MLOAD SWAP2 PUSH3 0x461BCD PUSH1 0xE5 SHL DUP4 MSTORE DUP3 ADD MSTORE PUSH1 0x15 PUSH1 0x24 DUP3 ADD MSTORE PUSH21 0x4D6F64756C6520616C726561647920657869737473 PUSH1 0x58 SHL PUSH1 0x44 DUP3 ADD MSTORE REVERT JUMPDEST PUSH1 0x64 SWAP2 PUSH1 0x40 MLOAD SWAP2 PUSH3 0x461BCD PUSH1 0xE5 SHL DUP4 MSTORE DUP3 ADD MSTORE PUSH1 0xC PUSH1 0x24 DUP3 ADD MSTORE PUSH12 0x5A65726F2061646472657373 PUSH1 0xA0 SHL PUSH1 0x44 DUP3 ADD MSTORE REVERT JUMPDEST PUSH1 0x40 MLOAD PUSH3 0x461BCD PUSH1 0xE5 SHL DUP2 MSTORE DUP1 DUP5 ADD DUP4 SWAP1 MSTORE PUSH1 0x1E PUSH1 0x24 DUP3 ADD MSTORE PUSH32 0x4D75737420686F6C6420746F6B656E7320746F20616464206D6F64756C650000 PUSH1 0x44 DUP3 ADD MSTORE PUSH1 0x64 SWAP1 REVERT JUMPDEST CALLVALUE PUSH2 0x2EF JUMPI PUSH1 0x0 CALLDATASIZE PUSH1 0x3 NOT ADD SLT PUSH2 0x2EF JUMPI PUSH1 0x20 PUSH1 0x40 MLOAD PUSH1 0x12 DUP2 MSTORE RETURN JUMPDEST CALLVALUE PUSH2 0x2EF JUMPI PUSH32 0xE379B3DEB66DDFA7962A2BDF35E9A08B5BED672C9DA3ECF7CC6174D253C6DFE5 PUSH2 0x14EB CALLDATASIZE PUSH2 0x22E4 JUMP JUMPDEST POP DUP4 PUSH1 0x0 SWAP5 SWAP4 SWAP5 MSTORE PUSH1 0x17 PUSH1 0x20 MSTORE PUSH2 0x11AE PUSH1 0x2 PUSH1 0x40 PUSH1 0x0 KECCAK256 PUSH2 0x150E DUP2 SLOAD ISZERO ISZERO PUSH2 0x26C5 JUMP JUMPDEST DUP7 PUSH1 0x0 MSTORE PUSH1 0x18 PUSH1 0x20 MSTORE PUSH2 0x1528 PUSH1 0xFF PUSH1 0x40 PUSH1 0x0 KECCAK256 SLOAD AND PUSH2 0x24B8 JUMP JUMPDEST PUSH1 0x7 DUP2 ADD SWAP5 DUP8 PUSH1 0x0 MSTORE DUP6 PUSH1 0x20 MSTORE PUSH2 0x1547 PUSH1 0xFF PUSH1 0x40 PUSH1 0x0 KECCAK256 SLOAD AND ISZERO PUSH2 0x2618 JUMP JUMPDEST PUSH2 0x11A3 PUSH1 0x1 DUP4 ADD SWAP2 DUP3 SLOAD PUSH2 0x2449 JUMP JUMPDEST CALLVALUE PUSH2 0x2EF JUMPI PUSH1 0x60 CALLDATASIZE PUSH1 0x3 NOT ADD SLT PUSH2 0x2EF JUMPI PUSH2 0x156F PUSH2 0x22B8 JUMP JUMPDEST PUSH2 0x1577 PUSH2 0x22CE JUMP JUMPDEST PUSH1 0x44 CALLDATALOAD SWAP2 PUSH1 0x1 DUP1 PUSH1 0xA0 SHL SUB DUP2 AND DUP1 PUSH1 0x0 MSTORE PUSH1 0x1 PUSH1 0x20 MSTORE PUSH1 0x40 PUSH1 0x0 KECCAK256 CALLER PUSH1 0x0 MSTORE PUSH1 0x20 MSTORE PUSH1 0x40 PUSH1 0x0 KECCAK256 SLOAD SWAP5 PUSH1 0x0 NOT DUP7 LT PUSH2 0x15B6 JUMPI JUMPDEST POP POP PUSH2 0xCE7 SWAP4 POP PUSH2 0x236B JUMP JUMPDEST DUP5 DUP7 LT PUSH2 0x1622 JUMPI DUP2 ISZERO PUSH2 0x160A JUMPI CALLER ISZERO PUSH2 0x15F2 JUMPI POP PUSH2 0xCE7 SWAP5 DUP5 SWAP2 PUSH1 0x0 MSTORE PUSH1 0x1 PUSH1 0x20 MSTORE PUSH1 0x40 PUSH1 0x0 KECCAK256 CALLER PUSH1 0x0 MSTORE PUSH1 0x20 MSTORE SUB PUSH1 0x40 PUSH1 0x0 KECCAK256 SSTORE DUP5 DUP1 PUSH2 0x15AA JUMP JUMPDEST PUSH1 0x24 SWAP1 PUSH1 0x0 PUSH1 0x40 MLOAD SWAP2 PUSH4 0x4A1406B1 PUSH1 0xE1 SHL DUP4 MSTORE DUP3 ADD MSTORE REVERT JUMPDEST PUSH1 0x24 SWAP1 PUSH1 0x0 PUSH1 0x40 MLOAD SWAP2 PUSH4 0xE602DF05 PUSH1 0xE0 SHL DUP4 MSTORE DUP3 ADD MSTORE REVERT JUMPDEST PUSH1 0x40 DUP1 MLOAD PUSH4 0x7DC7A0D9 PUSH1 0xE1 SHL DUP2 MSTORE CALLER SWAP3 DUP2 ADD SWAP3 DUP4 MSTORE PUSH1 0x20 DUP4 ADD DUP9 SWAP1 MSTORE SWAP1 DUP3 ADD DUP7 SWAP1 MSTORE SWAP1 DUP2 SWAP1 PUSH1 0x60 ADD SUB SWAP1 REVERT JUMPDEST CALLVALUE PUSH2 0x2EF JUMPI PUSH1 0x0 CALLDATASIZE PUSH1 0x3 NOT ADD SLT PUSH2 0x2EF JUMPI PUSH1 0x0 PUSH2 0x120 PUSH1 0x40 MLOAD PUSH2 0x1670 DUP2 PUSH2 0x21AA JUMP JUMPDEST PUSH1 0x60 DUP2 MSTORE PUSH1 0x60 PUSH1 0x20 DUP3 ADD MSTORE PUSH1 0x60 PUSH1 0x40 DUP3 ADD MSTORE PUSH1 0x60 DUP1 DUP3 ADD MSTORE DUP3 PUSH1 0x80 DUP3 ADD MSTORE DUP3 PUSH1 0xA0 DUP3 ADD MSTORE PUSH1 0x60 PUSH1 0xC0 DUP3 ADD MSTORE DUP3 PUSH1 0xE0 DUP3 ADD MSTORE DUP3 PUSH2 0x100 DUP3 ADD MSTORE ADD MSTORE PUSH1 0x40 MLOAD SWAP1 PUSH2 0x16B7 DUP3 PUSH2 0x21AA JUMP JUMPDEST PUSH1 0x40 MLOAD PUSH2 0x16C7 DUP2 PUSH2 0x229 DUP2 PUSH2 0x1EDB JUMP JUMPDEST DUP3 MSTORE PUSH1 0x40 MLOAD PUSH2 0x16D9 DUP2 PUSH2 0x229 DUP2 PUSH2 0x1F7F JUMP JUMPDEST PUSH1 0x20 DUP4 ADD MSTORE PUSH1 0x40 MLOAD PUSH2 0x16EE DUP2 PUSH2 0x229 DUP2 PUSH2 0x2006 JUMP JUMPDEST PUSH1 0x40 DUP4 ADD MSTORE PUSH1 0x40 MLOAD PUSH2 0x1703 DUP2 PUSH2 0x229 DUP2 PUSH2 0x208D JUMP JUMPDEST PUSH1 0x60 DUP4 ADD MSTORE PUSH1 0xA SLOAD PUSH1 0x80 DUP4 ADD MSTORE PUSH1 0xB SLOAD PUSH1 0xA0 DUP4 ADD MSTORE PUSH1 0xC SLOAD SWAP1 PUSH8 0xFFFFFFFFFFFFFFFF DUP3 GT PUSH2 0x18CC JUMPI POP PUSH1 0x40 MLOAD SWAP1 PUSH2 0x1740 PUSH1 0x20 DUP3 PUSH1 0x5 SHL ADD DUP4 PUSH2 0x21DD JUMP JUMPDEST DUP1 DUP3 MSTORE PUSH1 0x20 DUP3 ADD PUSH1 0xC PUSH1 0x0 MSTORE PUSH32 0xDF6966C971051C3D54EC59162606531493A51404A002842F56009D7E5CF4A8C7 PUSH1 0x0 SWAP2 JUMPDEST DUP4 DUP4 LT PUSH2 0x18A7 JUMPI DUP6 DUP6 PUSH1 0xC0 DUP3 ADD MSTORE PUSH1 0xD SLOAD PUSH1 0xE0 DUP3 ADD MSTORE PUSH1 0xE SLOAD PUSH2 0x100 DUP3 ADD MSTORE PUSH1 0xFF PUSH1 0xF SLOAD AND ISZERO ISZERO PUSH2 0x120 DUP3 ADD MSTORE PUSH1 0x40 MLOAD PUSH1 0x20 DUP2 MSTORE PUSH2 0x1808 PUSH2 0x17F2 PUSH2 0x17DC PUSH2 0x17C6 DUP6 MLOAD PUSH2 0x140 PUSH1 0x20 DUP8 ADD MSTORE PUSH2 0x160 DUP7 ADD SWAP1 PUSH2 0x2222 JUMP JUMPDEST PUSH1 0x20 DUP7 ADD MLOAD DUP6 DUP3 SUB PUSH1 0x1F NOT ADD PUSH1 0x40 DUP8 ADD MSTORE PUSH2 0x2222 JUMP JUMPDEST PUSH1 0x40 DUP6 ADD MLOAD DUP5 DUP3 SUB PUSH1 0x1F NOT ADD PUSH1 0x60 DUP7 ADD MSTORE PUSH2 0x2222 JUMP JUMPDEST PUSH1 0x60 DUP5 ADD MLOAD DUP4 DUP3 SUB PUSH1 0x1F NOT ADD PUSH1 0x80 DUP6 ADD MSTORE PUSH2 0x2222 JUMP JUMPDEST PUSH1 0x80 DUP4 ADD MLOAD PUSH1 0xA0 DUP4 ADD MSTORE PUSH1 0xA0 DUP4 ADD MLOAD PUSH1 0xC0 DUP4 ADD MSTORE PUSH1 0xC0 DUP4 ADD MLOAD SWAP1 PUSH1 0x1F NOT DUP4 DUP3 SUB ADD PUSH1 0xE0 DUP5 ADD MSTORE DUP2 MLOAD DUP1 DUP3 MSTORE PUSH1 0x20 DUP3 ADD SWAP2 PUSH1 0x20 DUP1 DUP4 PUSH1 0x5 SHL DUP4 ADD ADD SWAP5 ADD SWAP3 PUSH1 0x0 SWAP2 JUMPDEST DUP4 DUP4 LT PUSH2 0x187A JUMPI DUP7 DUP1 DUP8 PUSH2 0x120 DUP12 PUSH1 0xE0 DUP2 ADD MLOAD PUSH2 0x100 DUP6 ADD MSTORE PUSH2 0x100 DUP2 ADD MLOAD DUP3 DUP6 ADD MSTORE ADD MLOAD ISZERO ISZERO PUSH2 0x140 DUP4 ADD MSTORE SUB SWAP1 RETURN JUMPDEST SWAP1 SWAP2 SWAP3 SWAP4 SWAP5 PUSH1 0x20 DUP1 PUSH2 0x1898 PUSH1 0x1 SWAP4 PUSH1 0x1F NOT DUP7 DUP3 SUB ADD DUP8 MSTORE DUP10 MLOAD PUSH2 0x2222 JUMP JUMPDEST SWAP8 ADD SWAP4 ADD SWAP4 ADD SWAP2 SWAP4 SWAP3 SWAP1 PUSH2 0x1849 JUMP JUMPDEST PUSH1 0x1 PUSH1 0x20 DUP2 SWAP3 PUSH1 0x40 MLOAD PUSH2 0x18BE DUP2 PUSH2 0x229 DUP2 DUP10 PUSH2 0x2114 JUMP JUMPDEST DUP2 MSTORE ADD SWAP3 ADD SWAP3 ADD SWAP2 SWAP1 PUSH2 0x1771 JUMP JUMPDEST PUSH1 0x41 SWAP1 PUSH4 0x4E487B71 PUSH1 0xE0 SHL PUSH1 0x0 MSTORE MSTORE PUSH1 0x24 PUSH1 0x0 REVERT JUMPDEST CALLVALUE PUSH2 0x2EF JUMPI PUSH1 0x0 CALLDATASIZE PUSH1 0x3 NOT ADD SLT PUSH2 0x2EF JUMPI PUSH1 0x20 PUSH1 0x2 SLOAD PUSH1 0x40 MLOAD SWAP1 DUP2 MSTORE RETURN JUMPDEST CALLVALUE PUSH2 0x2EF JUMPI PUSH1 0x20 DUP1 PUSH1 0x3 NOT CALLDATASIZE ADD SLT PUSH2 0x2EF JUMPI DUP2 CALLDATALOAD SWAP2 DUP3 PUSH1 0x0 MSTORE PUSH1 0x16 DUP3 MSTORE PUSH1 0x40 PUSH1 0x0 KECCAK256 SWAP2 PUSH2 0x192E DUP5 DUP5 SLOAD EQ PUSH2 0x255D JUMP JUMPDEST DUP2 DUP4 ADD SWAP3 DUP4 SLOAD SWAP3 PUSH2 0x1942 PUSH1 0xFF DUP6 AND ISZERO PUSH2 0x25A9 JUMP JUMPDEST PUSH1 0x5 DUP3 ADD SLOAD TIMESTAMP LT PUSH2 0x1ACE JUMPI PUSH2 0x1956 DUP7 PUSH2 0x2668 JUMP JUMPDEST DUP2 PUSH2 0x1AC6 JUMPI JUMPDEST POP ISZERO PUSH2 0x1A8C JUMPI POP PUSH1 0x7 SWAP1 PUSH1 0x1 SWAP5 DUP6 PUSH1 0xFF NOT DUP1 SWAP7 AND OR SWAP1 SSTORE ADD SWAP3 PUSH2 0x198E PUSH1 0x40 MLOAD PUSH2 0x1989 DUP2 PUSH2 0x229 DUP2 DUP10 PUSH2 0x2114 JUMP JUMPDEST PUSH2 0x2884 JUMP JUMPDEST PUSH1 0x40 MLOAD SWAP5 DUP6 MSTORE PUSH1 0x40 DUP3 DUP7 ADD MSTORE PUSH1 0x0 SWAP4 DUP1 SLOAD PUSH2 0x19A8 DUP2 PUSH2 0x1EA1 JUMP JUMPDEST SWAP5 DUP6 PUSH1 0x40 DUP10 ADD MSTORE DUP4 DUP3 AND SWAP2 DUP3 PUSH1 0x0 EQ PUSH2 0x1A46 JUMPI POP POP PUSH1 0x1 EQ PUSH2 0x19ED JUMPI JUMPDEST PUSH32 0xBADBD87941BB6424ED4AA4719BF01A3319B64480E49F89018C718603239553D2 DUP7 DUP7 SUB DUP8 LOG1 STOP JUMPDEST PUSH1 0x0 SWAP1 DUP2 MSTORE DUP3 DUP2 KECCAK256 SWAP1 SWAP5 POP JUMPDEST DUP4 DUP6 LT PUSH2 0x1A32 JUMPI POP POP POP POP DUP2 ADD PUSH1 0x60 ADD DUP2 PUSH32 0xBADBD87941BB6424ED4AA4719BF01A3319B64480E49F89018C718603239553D2 DUP5 DUP1 PUSH2 0x19C5 JUMP JUMPDEST DUP1 SLOAD DUP7 DUP7 ADD PUSH1 0x60 ADD MSTORE SWAP4 DUP3 ADD SWAP4 DUP2 ADD PUSH2 0x19F9 JUMP JUMPDEST SWAP2 POP SWAP2 POP DUP7 SWAP6 POP PUSH1 0x60 SWAP4 POP PUSH32 0xBADBD87941BB6424ED4AA4719BF01A3319B64480E49F89018C718603239553D2 SWAP7 SWAP5 SWAP3 POP AND DUP3 DUP5 ADD MSTORE ISZERO ISZERO PUSH1 0x5 SHL DUP3 ADD ADD SWAP2 SWAP3 DUP5 DUP1 PUSH2 0x19C5 JUMP JUMPDEST PUSH1 0x40 MLOAD PUSH3 0x461BCD PUSH1 0xE5 SHL DUP2 MSTORE SWAP1 DUP2 ADD DUP4 SWAP1 MSTORE PUSH1 0x13 PUSH1 0x24 DUP3 ADD MSTORE PUSH19 0x141C9BDC1BDCD85B081B9BDD081C185CDCD959 PUSH1 0x6A SHL PUSH1 0x44 DUP3 ADD MSTORE PUSH1 0x64 SWAP1 REVERT JUMPDEST SWAP1 POP DUP8 PUSH2 0x195C JUMP JUMPDEST PUSH1 0x40 MLOAD PUSH3 0x461BCD PUSH1 0xE5 SHL DUP2 MSTORE SWAP1 DUP2 ADD DUP4 SWAP1 MSTORE PUSH1 0x10 PUSH1 0x24 DUP3 ADD MSTORE PUSH16 0x159BDD1A5B99C81B9BDD08195B991959 PUSH1 0x82 SHL PUSH1 0x44 DUP3 ADD MSTORE PUSH1 0x64 SWAP1 REVERT JUMPDEST CALLVALUE PUSH2 0x2EF JUMPI PUSH1 0x0 CALLDATASIZE PUSH1 0x3 NOT ADD SLT PUSH2 0x2EF JUMPI PUSH1 0x20 PUSH1 0x11 SLOAD PUSH1 0x40 MLOAD SWAP1 DUP2 MSTORE RETURN JUMPDEST CALLVALUE PUSH2 0x2EF JUMPI PUSH1 0x40 CALLDATASIZE PUSH1 0x3 NOT ADD SLT PUSH2 0x2EF JUMPI PUSH2 0x1B3C PUSH2 0x22B8 JUMP JUMPDEST PUSH1 0x24 CALLDATALOAD SWAP1 CALLER ISZERO PUSH2 0x1BAA JUMPI PUSH1 0x1 PUSH1 0x1 PUSH1 0xA0 SHL SUB AND SWAP2 DUP3 ISZERO PUSH2 0x15F2 JUMPI POP CALLER PUSH1 0x0 MSTORE PUSH1 0x1 PUSH1 0x20 MSTORE PUSH1 0x40 PUSH1 0x0 KECCAK256 DUP3 PUSH1 0x0 MSTORE PUSH1 0x20 MSTORE DUP1 PUSH1 0x40 PUSH1 0x0 KECCAK256 SSTORE PUSH1 0x40 MLOAD SWAP1 DUP2 MSTORE PUSH32 0x8C5BE1E5EBEC7D5BD14F71427D1E84F3DD0314C0F7B2291E5B200AC8C7C3B925 PUSH1 0x20 CALLER SWAP3 LOG3 PUSH1 0x20 PUSH1 0x40 MLOAD PUSH1 0x1 DUP2 MSTORE RETURN JUMPDEST PUSH1 0x40 MLOAD PUSH4 0xE602DF05 PUSH1 0xE0 SHL DUP2 MSTORE PUSH1 0x0 DUP2 DUP6 ADD MSTORE PUSH1 0x24 SWAP1 REVERT JUMPDEST CALLVALUE PUSH2 0x2EF JUMPI PUSH1 0x0 CALLDATASIZE PUSH1 0x3 NOT ADD SLT PUSH2 0x2EF JUMPI PUSH1 0x40 MLOAD PUSH1 0x0 PUSH1 0x3 SLOAD PUSH2 0x1BE4 DUP2 PUSH2 0x1EA1 JUMP JUMPDEST DUP1 DUP5 MSTORE SWAP1 PUSH1 0x1 SWAP1 DUP2 DUP2 AND SWAP1 DUP2 ISZERO PUSH2 0x1C69 JUMPI POP PUSH1 0x1 EQ PUSH2 0x1C0E JUMPI JUMPDEST PUSH2 0xD78 DUP5 PUSH2 0xD64 DUP2 DUP7 SUB DUP3 PUSH2 0x21DD JUMP JUMPDEST PUSH1 0x3 PUSH1 0x0 SWAP1 DUP2 MSTORE SWAP3 POP PUSH32 0xC2575A0E9E593C00F959F8C92F12DB2869C3395A3B0502D05E2516446F71F85B JUMPDEST DUP3 DUP5 LT PUSH2 0x1C51 JUMPI POP POP POP DUP2 ADD PUSH1 0x20 ADD PUSH2 0xD64 DUP3 PUSH2 0x1BFE JUMP JUMPDEST DUP1 SLOAD PUSH1 0x20 DUP6 DUP8 ADD DUP2 ADD SWAP2 SWAP1 SWAP2 MSTORE SWAP1 SWAP4 ADD SWAP3 DUP2 ADD PUSH2 0x1C39 JUMP JUMPDEST PUSH1 0xFF NOT AND PUSH1 0x20 DUP1 DUP8 ADD SWAP2 SWAP1 SWAP2 MSTORE SWAP3 ISZERO ISZERO PUSH1 0x5 SHL DUP6 ADD SWAP1 SWAP3 ADD SWAP3 POP PUSH2 0xD64 SWAP2 POP DUP4 SWAP1 POP PUSH2 0x1BFE JUMP JUMPDEST CALLVALUE PUSH2 0x2EF JUMPI PUSH1 0x20 CALLDATASIZE PUSH1 0x3 NOT ADD SLT PUSH2 0x2EF JUMPI PUSH2 0xF57 SWAP1 CALLDATALOAD PUSH2 0x275D JUMP JUMPDEST CALLVALUE PUSH2 0x2EF JUMPI PUSH1 0x60 CALLDATASIZE PUSH1 0x3 NOT ADD SLT PUSH2 0x2EF JUMPI PUSH1 0x24 CALLDATALOAD DUP2 CALLDATALOAD PUSH1 0x44 CALLDATALOAD PUSH8 0xFFFFFFFFFFFFFFFF DUP2 GT PUSH2 0x2EF JUMPI PUSH2 0x1CE0 SWAP1 CALLDATASIZE SWAP1 DUP6 ADD PUSH2 0x229A JUMP JUMPDEST POP DUP2 PUSH1 0x0 MSTORE PUSH1 0x18 PUSH1 0x20 MSTORE PUSH2 0x1CFB PUSH1 0xFF PUSH1 0x40 PUSH1 0x0 KECCAK256 SLOAD AND PUSH2 0x24B8 JUMP JUMPDEST DUP1 PUSH1 0x0 MSTORE PUSH1 0x19 PUSH1 0x20 MSTORE PUSH1 0xFF PUSH1 0x40 PUSH1 0x0 KECCAK256 SLOAD AND PUSH2 0x1DA3 JUMPI PUSH32 0x42E60114B8BC5803B43A4BCD35572ECE9A5E2CABB79A838A02D56A4C53E83313 SWAP3 POP DUP1 PUSH1 0x0 MSTORE PUSH1 0x19 PUSH1 0x20 MSTORE PUSH1 0x40 PUSH1 0x0 KECCAK256 PUSH1 0x1 PUSH1 0xFF NOT DUP3 SLOAD AND OR SWAP1 SSTORE PUSH1 0x16 PUSH1 0x20 MSTORE PUSH1 0x40 PUSH1 0x0 KECCAK256 DUP2 DUP2 SLOAD EQ PUSH2 0x1D84 JUMPI JUMPDEST POP PUSH2 0x11EA PUSH1 0x13 SLOAD PUSH1 0x40 MLOAD SWAP4 DUP5 SWAP4 DUP5 PUSH1 0x40 SWAP2 SWAP5 SWAP4 SWAP3 PUSH1 0x60 DUP3 ADD SWAP6 DUP3 MSTORE PUSH1 0x20 DUP3 ADD MSTORE ADD MSTORE JUMP JUMPDEST PUSH1 0x7 PUSH2 0x1989 PUSH2 0x1D9D SWAP3 PUSH2 0x229 PUSH1 0x40 MLOAD DUP1 SWAP5 DUP2 SWAP4 ADD PUSH2 0x2114 JUMP JUMPDEST DUP4 PUSH2 0x1D60 JUMP JUMPDEST PUSH1 0x40 MLOAD PUSH3 0x461BCD PUSH1 0xE5 SHL DUP2 MSTORE PUSH1 0x20 DUP2 DUP6 ADD MSTORE PUSH1 0x10 PUSH1 0x24 DUP3 ADD MSTORE PUSH16 0x105B1C9958591E48195E1958DD5D1959 PUSH1 0x82 SHL PUSH1 0x44 DUP3 ADD MSTORE PUSH1 0x64 SWAP1 REVERT JUMPDEST SWAP1 CALLVALUE PUSH2 0x2EF JUMPI PUSH1 0x20 CALLDATASIZE PUSH1 0x3 NOT ADD SLT PUSH2 0x2EF JUMPI DUP1 CALLDATALOAD PUSH1 0x0 MSTORE PUSH1 0x16 PUSH1 0x20 MSTORE PUSH2 0xD78 PUSH1 0x40 PUSH1 0x0 KECCAK256 SWAP2 PUSH1 0x7 DUP4 SLOAD SWAP4 PUSH2 0x1E1C DUP7 PUSH2 0x1E15 DUP2 PUSH1 0x1 DUP6 ADD PUSH2 0x2114 JUMP JUMPDEST SUB DUP8 PUSH2 0x21DD JUMP JUMPDEST PUSH1 0x2 DUP2 ADD SLOAD SWAP3 PUSH1 0xFF PUSH1 0x3 DUP4 ADD SLOAD SWAP2 DUP4 ADD SLOAD AND PUSH1 0x5 DUP4 ADD SLOAD SWAP2 PUSH2 0x1E5C PUSH1 0x1 DUP1 PUSH1 0xA0 SHL SUB PUSH1 0x6 DUP7 ADD SLOAD AND SWAP5 PUSH2 0x1E55 PUSH1 0x40 MLOAD DUP1 SWAP9 DUP2 SWAP4 ADD PUSH2 0x2114 JUMP JUMPDEST SUB DUP7 PUSH2 0x21DD JUMP JUMPDEST PUSH2 0x1E78 PUSH1 0x40 MLOAD SWAP10 DUP11 SWAP10 DUP11 MSTORE PUSH2 0x100 DUP1 PUSH1 0x20 DUP13 ADD MSTORE DUP11 ADD SWAP1 PUSH2 0x2222 JUMP JUMPDEST SWAP6 PUSH1 0x40 DUP10 ADD MSTORE PUSH1 0x60 DUP9 ADD MSTORE ISZERO ISZERO PUSH1 0x80 DUP8 ADD MSTORE PUSH1 0xA0 DUP7 ADD MSTORE PUSH1 0xC0 DUP6 ADD MSTORE DUP4 DUP3 SUB PUSH1 0xE0 DUP6 ADD MSTORE PUSH2 0x2222 JUMP JUMPDEST SWAP1 PUSH1 0x1 DUP3 DUP2 SHR SWAP3 AND DUP1 ISZERO PUSH2 0x1ED1 JUMPI JUMPDEST PUSH1 0x20 DUP4 LT EQ PUSH2 0x1EBB JUMPI JUMP JUMPDEST PUSH4 0x4E487B71 PUSH1 0xE0 SHL PUSH1 0x0 MSTORE PUSH1 0x22 PUSH1 0x4 MSTORE PUSH1 0x24 PUSH1 0x0 REVERT JUMPDEST SWAP2 PUSH1 0x7F AND SWAP2 PUSH2 0x1EB0 JUMP JUMPDEST PUSH1 0x6 SLOAD PUSH1 0x0 SWAP3 SWAP2 PUSH2 0x1EEB DUP3 PUSH2 0x1EA1 JUMP JUMPDEST DUP1 DUP3 MSTORE SWAP2 PUSH1 0x1 SWAP1 DUP2 DUP2 AND SWAP1 DUP2 ISZERO PUSH2 0x1F62 JUMPI POP PUSH1 0x1 EQ PUSH2 0x1F09 JUMPI POP POP POP JUMP JUMPDEST SWAP2 SWAP3 SWAP4 POP PUSH1 0x6 PUSH1 0x0 MSTORE PUSH32 0xF652222313E28459528D920B65115C16C04F3EFC82AAEDC97BE59F3F377C0D3F SWAP2 PUSH1 0x0 SWAP3 JUMPDEST DUP5 DUP5 LT PUSH2 0x1F4A JUMPI POP POP PUSH1 0x20 SWAP3 POP ADD ADD SWAP1 JUMP JUMPDEST DUP1 SLOAD PUSH1 0x20 DUP6 DUP6 ADD DUP2 ADD SWAP2 SWAP1 SWAP2 MSTORE SWAP1 SWAP4 ADD SWAP3 DUP2 ADD PUSH2 0x1F38 JUMP JUMPDEST SWAP2 POP POP PUSH1 0x20 SWAP4 SWAP5 POP PUSH1 0xFF SWAP3 SWAP2 SWAP3 NOT AND DUP4 DUP4 ADD MSTORE ISZERO ISZERO PUSH1 0x5 SHL ADD ADD SWAP1 JUMP JUMPDEST PUSH1 0x7 SLOAD PUSH1 0x0 SWAP3 SWAP2 PUSH2 0x1F8F DUP3 PUSH2 0x1EA1 JUMP JUMPDEST DUP1 DUP3 MSTORE SWAP2 PUSH1 0x1 SWAP1 DUP2 DUP2 AND SWAP1 DUP2 ISZERO PUSH2 0x1F62 JUMPI POP PUSH1 0x1 EQ PUSH2 0x1FAD JUMPI POP POP POP JUMP JUMPDEST SWAP2 SWAP3 SWAP4 POP PUSH1 0x7 PUSH1 0x0 MSTORE PUSH32 0xA66CC928B5EDB82AF9BD49922954155AB7B0942694BEA4CE44661D9A8736C688 SWAP2 PUSH1 0x0 SWAP3 JUMPDEST DUP5 DUP5 LT PUSH2 0x1FEE JUMPI POP POP PUSH1 0x20 SWAP3 POP ADD ADD SWAP1 JUMP JUMPDEST DUP1 SLOAD PUSH1 0x20 DUP6 DUP6 ADD DUP2 ADD SWAP2 SWAP1 SWAP2 MSTORE SWAP1 SWAP4 ADD SWAP3 DUP2 ADD PUSH2 0x1FDC JUMP JUMPDEST PUSH1 0x8 SLOAD PUSH1 0x0 SWAP3 SWAP2 PUSH2 0x2016 DUP3 PUSH2 0x1EA1 JUMP JUMPDEST DUP1 DUP3 MSTORE SWAP2 PUSH1 0x1 SWAP1 DUP2 DUP2 AND SWAP1 DUP2 ISZERO PUSH2 0x1F62 JUMPI POP PUSH1 0x1 EQ PUSH2 0x2034 JUMPI POP POP POP JUMP JUMPDEST SWAP2 SWAP3 SWAP4 POP PUSH1 0x8 PUSH1 0x0 MSTORE PUSH32 0xF3F7A9FE364FAAB93B216DA50A3214154F22A0A2B415B23A84C8169E8B636EE3 SWAP2 PUSH1 0x0 SWAP3 JUMPDEST DUP5 DUP5 LT PUSH2 0x2075 JUMPI POP POP PUSH1 0x20 SWAP3 POP ADD ADD SWAP1 JUMP JUMPDEST DUP1 SLOAD PUSH1 0x20 DUP6 DUP6 ADD DUP2 ADD SWAP2 SWAP1 SWAP2 MSTORE SWAP1 SWAP4 ADD SWAP3 DUP2 ADD PUSH2 0x2063 JUMP JUMPDEST PUSH1 0x9 SLOAD PUSH1 0x0 SWAP3 SWAP2 PUSH2 0x209D DUP3 PUSH2 0x1EA1 JUMP JUMPDEST DUP1 DUP3 MSTORE SWAP2 PUSH1 0x1 SWAP1 DUP2 DUP2 AND SWAP1 DUP2 ISZERO PUSH2 0x1F62 JUMPI POP PUSH1 0x1 EQ PUSH2 0x20BB JUMPI POP POP POP JUMP JUMPDEST SWAP2 SWAP3 SWAP4 POP PUSH1 0x9 PUSH1 0x0 MSTORE PUSH32 0x6E1540171B6C0C960B71A7020D9F60077F6AF931A8BBF590DA0223DACF75C7AF SWAP2 PUSH1 0x0 SWAP3 JUMPDEST DUP5 DUP5 LT PUSH2 0x20FC JUMPI POP POP PUSH1 0x20 SWAP3 POP ADD ADD SWAP1 JUMP JUMPDEST DUP1 SLOAD PUSH1 0x20 DUP6 DUP6 ADD DUP2 ADD SWAP2 SWAP1 SWAP2 MSTORE SWAP1 SWAP4 ADD SWAP3 DUP2 ADD PUSH2 0x20EA JUMP JUMPDEST SWAP1 PUSH1 0x0 SWAP3 SWAP2 DUP1 SLOAD SWAP2 PUSH2 0x2125 DUP4 PUSH2 0x1EA1 JUMP JUMPDEST SWAP2 DUP3 DUP3 MSTORE PUSH1 0x1 SWAP4 DUP5 DUP2 AND SWAP1 DUP2 PUSH1 0x0 EQ PUSH2 0x2187 JUMPI POP PUSH1 0x1 EQ PUSH2 0x2147 JUMPI JUMPDEST POP POP POP POP JUMP JUMPDEST SWAP1 SWAP2 SWAP4 SWAP5 POP PUSH1 0x0 MSTORE PUSH1 0x20 SWAP3 DUP4 PUSH1 0x0 KECCAK256 SWAP3 DUP5 PUSH1 0x0 SWAP5 JUMPDEST DUP4 DUP7 LT PUSH2 0x2173 JUMPI POP POP POP POP ADD ADD SWAP1 CODESIZE DUP1 DUP1 DUP1 PUSH2 0x2141 JUMP JUMPDEST DUP1 SLOAD DUP6 DUP8 ADD DUP4 ADD MSTORE SWAP5 ADD SWAP4 DUP6 SWAP1 DUP3 ADD PUSH2 0x215C JUMP JUMPDEST SWAP3 SWAP5 POP POP POP PUSH1 0x20 SWAP4 SWAP5 POP PUSH1 0xFF NOT AND DUP4 DUP4 ADD MSTORE ISZERO ISZERO PUSH1 0x5 SHL ADD ADD SWAP1 CODESIZE DUP1 DUP1 DUP1 PUSH2 0x2141 JUMP JUMPDEST PUSH2 0x140 DUP2 ADD SWAP1 DUP2 LT PUSH8 0xFFFFFFFFFFFFFFFF DUP3 GT OR PUSH2 0x21C7 JUMPI PUSH1 0x40 MSTORE JUMP JUMPDEST PUSH4 0x4E487B71 PUSH1 0xE0 SHL PUSH1 0x0 MSTORE PUSH1 0x41 PUSH1 0x4 MSTORE PUSH1 0x24 PUSH1 0x0 REVERT JUMPDEST SWAP1 PUSH1 0x1F DUP1 NOT SWAP2 ADD AND DUP2 ADD SWAP1 DUP2 LT PUSH8 0xFFFFFFFFFFFFFFFF DUP3 GT OR PUSH2 0x21C7 JUMPI PUSH1 0x40 MSTORE JUMP JUMPDEST PUSH1 0x0 JUMPDEST DUP4 DUP2 LT PUSH2 0x2212 JUMPI POP POP PUSH1 0x0 SWAP2 ADD MSTORE JUMP JUMPDEST DUP2 DUP2 ADD MLOAD DUP4 DUP3 ADD MSTORE PUSH1 0x20 ADD PUSH2 0x2202 JUMP JUMPDEST SWAP1 PUSH1 0x20 SWAP2 PUSH2 0x223B DUP2 MLOAD DUP1 SWAP3 DUP2 DUP6 MSTORE DUP6 DUP1 DUP7 ADD SWAP2 ADD PUSH2 0x21FF JUMP JUMPDEST PUSH1 0x1F ADD PUSH1 0x1F NOT AND ADD ADD SWAP1 JUMP JUMPDEST PUSH8 0xFFFFFFFFFFFFFFFF DUP2 GT PUSH2 0x21C7 JUMPI PUSH1 0x1F ADD PUSH1 0x1F NOT AND PUSH1 0x20 ADD SWAP1 JUMP JUMPDEST SWAP3 SWAP2 SWAP3 PUSH2 0x226F DUP3 PUSH2 0x2247 JUMP JUMPDEST SWAP2 PUSH2 0x227D PUSH1 0x40 MLOAD SWAP4 DUP5 PUSH2 0x21DD JUMP JUMPDEST DUP3 SWAP5 DUP2 DUP5 MSTORE DUP2 DUP4 ADD GT PUSH2 0x2EF JUMPI DUP3 DUP2 PUSH1 0x20 SWAP4 DUP5 PUSH1 0x0 SWAP7 ADD CALLDATACOPY ADD ADD MSTORE JUMP JUMPDEST SWAP1 DUP1 PUSH1 0x1F DUP4 ADD SLT ISZERO PUSH2 0x2EF JUMPI DUP2 PUSH1 0x20 PUSH2 0x22B5 SWAP4 CALLDATALOAD SWAP2 ADD PUSH2 0x2263 JUMP JUMPDEST SWAP1 JUMP JUMPDEST PUSH1 0x4 CALLDATALOAD SWAP1 PUSH1 0x1 PUSH1 0x1 PUSH1 0xA0 SHL SUB DUP3 AND DUP3 SUB PUSH2 0x2EF JUMPI JUMP JUMPDEST PUSH1 0x24 CALLDATALOAD SWAP1 PUSH1 0x1 PUSH1 0x1 PUSH1 0xA0 SHL SUB DUP3 AND DUP3 SUB PUSH2 0x2EF JUMPI JUMP JUMPDEST PUSH1 0xA0 PUSH1 0x3 NOT DUP3 ADD SLT PUSH2 0x2EF JUMPI PUSH1 0x4 CALLDATALOAD SWAP2 PUSH1 0x24 CALLDATALOAD SWAP2 PUSH1 0x44 CALLDATALOAD SWAP2 PUSH1 0x64 CALLDATALOAD SWAP2 PUSH1 0x84 CALLDATALOAD SWAP1 PUSH8 0xFFFFFFFFFFFFFFFF DUP3 GT PUSH2 0x2EF JUMPI PUSH2 0x22B5 SWAP2 PUSH1 0x4 ADD PUSH2 0x229A JUMP JUMPDEST CALLVALUE PUSH2 0x2EF JUMPI PUSH1 0x20 CALLDATASIZE PUSH1 0x3 NOT ADD SLT PUSH2 0x2EF JUMPI PUSH1 0x20 PUSH2 0x32D PUSH1 0x4 CALLDATALOAD PUSH1 0x0 MSTORE PUSH1 0x18 PUSH1 0x20 MSTORE PUSH1 0xFF PUSH1 0x40 PUSH1 0x0 KECCAK256 SLOAD AND SWAP1 JUMP JUMPDEST PUSH1 0x40 SWAP1 PUSH1 0x3 NOT ADD SLT PUSH2 0x2EF JUMPI PUSH1 0x4 CALLDATALOAD SWAP1 PUSH1 0x24 CALLDATALOAD DUP1 ISZERO ISZERO DUP2 SUB PUSH2 0x2EF JUMPI SWAP1 JUMP JUMPDEST SWAP2 PUSH1 0x1 PUSH1 0x1 PUSH1 0xA0 SHL SUB DUP1 DUP5 AND SWAP3 DUP4 ISZERO PUSH2 0x2430 JUMPI AND SWAP3 DUP4 ISZERO PUSH2 0x2417 JUMPI PUSH1 0x0 SWAP1 DUP4 DUP3 MSTORE DUP2 PUSH1 0x20 MSTORE PUSH1 0x40 DUP3 KECCAK256 SLOAD SWAP1 DUP4 DUP3 LT PUSH2 0x23E5 JUMPI POP SWAP2 PUSH1 0x40 DUP3 DUP3 PUSH32 0xDDF252AD1BE2C89B69C2B068FC378DAA952BA7F163C4A11628F55A4DF523B3EF SWAP6 DUP8 PUSH1 0x20 SWAP7 MSTORE DUP3 DUP7 MSTORE SUB DUP3 DUP3 KECCAK256 SSTORE DUP7 DUP2 MSTORE KECCAK256 DUP2 DUP2 SLOAD ADD SWAP1 SSTORE PUSH1 0x40 MLOAD SWAP1 DUP2 MSTORE LOG3 JUMP JUMPDEST PUSH1 0x40 MLOAD PUSH4 0x391434E3 PUSH1 0xE2 SHL DUP2 MSTORE PUSH1 0x1 PUSH1 0x1 PUSH1 0xA0 SHL SUB SWAP2 SWAP1 SWAP2 AND PUSH1 0x4 DUP3 ADD MSTORE PUSH1 0x24 DUP2 ADD SWAP2 SWAP1 SWAP2 MSTORE PUSH1 0x44 DUP2 ADD DUP4 SWAP1 MSTORE PUSH1 0x64 SWAP1 REVERT JUMPDEST PUSH1 0x40 MLOAD PUSH4 0xEC442F05 PUSH1 0xE0 SHL DUP2 MSTORE PUSH1 0x0 PUSH1 0x4 DUP3 ADD MSTORE PUSH1 0x24 SWAP1 REVERT JUMPDEST PUSH1 0x40 MLOAD PUSH4 0x4B637E8F PUSH1 0xE1 SHL DUP2 MSTORE PUSH1 0x0 PUSH1 0x4 DUP3 ADD MSTORE PUSH1 0x24 SWAP1 REVERT JUMPDEST SWAP2 SWAP1 DUP3 ADD DUP1 SWAP3 GT PUSH2 0x2456 JUMPI JUMP JUMPDEST PUSH4 0x4E487B71 PUSH1 0xE0 SHL PUSH1 0x0 MSTORE PUSH1 0x11 PUSH1 0x4 MSTORE PUSH1 0x24 PUSH1 0x0 REVERT JUMPDEST ISZERO PUSH2 0x2473 JUMPI JUMP JUMPDEST PUSH1 0x40 MLOAD PUSH3 0x461BCD PUSH1 0xE5 SHL DUP2 MSTORE PUSH1 0x20 PUSH1 0x4 DUP3 ADD MSTORE PUSH1 0x19 PUSH1 0x24 DUP3 ADD MSTORE PUSH32 0x4475726174696F6E206D75737420626520706F73697469766500000000000000 PUSH1 0x44 DUP3 ADD MSTORE PUSH1 0x64 SWAP1 REVERT JUMPDEST ISZERO PUSH2 0x24BF JUMPI JUMP JUMPDEST PUSH1 0x40 MLOAD PUSH3 0x461BCD PUSH1 0xE5 SHL DUP2 MSTORE PUSH1 0x20 PUSH1 0x4 DUP3 ADD MSTORE PUSH1 0x13 PUSH1 0x24 DUP3 ADD MSTORE PUSH19 0x10DA185A5B881B9BDD081CDD5C1C1BDC9D1959 PUSH1 0x6A SHL PUSH1 0x44 DUP3 ADD MSTORE PUSH1 0x64 SWAP1 REVERT JUMPDEST PUSH1 0x0 NOT DUP2 EQ PUSH2 0x2456 JUMPI PUSH1 0x1 ADD SWAP1 JUMP JUMPDEST SWAP1 PUSH1 0x1F DUP2 GT PUSH2 0x2517 JUMPI POP POP POP JUMP JUMPDEST PUSH1 0x0 SWAP2 DUP3 MSTORE PUSH1 0x20 DUP3 KECCAK256 SWAP1 PUSH1 0x20 PUSH1 0x1F DUP6 ADD PUSH1 0x5 SHR DUP4 ADD SWAP5 LT PUSH2 0x2553 JUMPI JUMPDEST PUSH1 0x1F ADD PUSH1 0x5 SHR ADD SWAP2 JUMPDEST DUP3 DUP2 LT PUSH2 0x2548 JUMPI POP POP POP JUMP JUMPDEST DUP2 DUP2 SSTORE PUSH1 0x1 ADD PUSH2 0x253C JUMP JUMPDEST SWAP1 SWAP3 POP DUP3 SWAP1 PUSH2 0x2533 JUMP JUMPDEST ISZERO PUSH2 0x2564 JUMPI JUMP JUMPDEST PUSH1 0x40 MLOAD PUSH3 0x461BCD PUSH1 0xE5 SHL DUP2 MSTORE PUSH1 0x20 PUSH1 0x4 DUP3 ADD MSTORE PUSH1 0x17 PUSH1 0x24 DUP3 ADD MSTORE PUSH32 0x50726F706F73616C20646F6573206E6F74206578697374000000000000000000 PUSH1 0x44 DUP3 ADD MSTORE PUSH1 0x64 SWAP1 REVERT JUMPDEST ISZERO PUSH2 0x25B0 JUMPI JUMP JUMPDEST PUSH1 0x40 MLOAD PUSH3 0x461BCD PUSH1 0xE5 SHL DUP2 MSTORE PUSH1 0x20 PUSH1 0x4 DUP3 ADD MSTORE PUSH1 0x19 PUSH1 0x24 DUP3 ADD MSTORE PUSH32 0x50726F706F73616C20616C726561647920657865637574656400000000000000 PUSH1 0x44 DUP3 ADD MSTORE PUSH1 0x64 SWAP1 REVERT JUMPDEST PUSH1 0x2 PUSH1 0x5 SLOAD EQ PUSH2 0x2606 JUMPI PUSH1 0x2 PUSH1 0x5 SSTORE JUMP JUMPDEST PUSH1 0x40 MLOAD PUSH4 0x3EE5AEB5 PUSH1 0xE0 SHL DUP2 MSTORE PUSH1 0x4 SWAP1 REVERT JUMPDEST ISZERO PUSH2 0x261F JUMPI JUMP JUMPDEST PUSH1 0x40 MLOAD PUSH3 0x461BCD PUSH1 0xE5 SHL DUP2 MSTORE PUSH1 0x20 PUSH1 0x4 DUP3 ADD MSTORE PUSH1 0xE PUSH1 0x24 DUP3 ADD MSTORE PUSH14 0x105B1C9958591E481CDE5B98D959 PUSH1 0x92 SHL PUSH1 0x44 DUP3 ADD MSTORE PUSH1 0x64 SWAP1 REVERT JUMPDEST DUP2 DUP2 MUL SWAP3 SWAP2 DUP2 ISZERO SWAP2 DUP5 DIV EQ OR ISZERO PUSH2 0x2456 JUMPI JUMP JUMPDEST SWAP1 DUP2 PUSH1 0x0 MSTORE PUSH1 0x16 PUSH1 0x20 MSTORE PUSH2 0x2683 PUSH1 0x40 PUSH1 0x0 KECCAK256 SWAP3 DUP4 SLOAD EQ PUSH2 0x255D JUMP JUMPDEST PUSH1 0x3 PUSH1 0x2 DUP4 ADD SLOAD SWAP3 ADD SLOAD SWAP2 PUSH2 0x2698 DUP4 DUP3 PUSH2 0x2449 JUMP JUMPDEST PUSH1 0x64 PUSH2 0x26A9 PUSH1 0x2 SLOAD PUSH1 0x10 SLOAD SWAP1 PUSH2 0x2655 JUMP JUMPDEST DIV GT ISZERO SWAP3 DUP4 SWAP2 DUP3 PUSH2 0x26BB JUMPI JUMPDEST POP POP SWAP2 SWAP1 JUMP JUMPDEST GT SWAP1 POP CODESIZE DUP1 PUSH2 0x26B5 JUMP JUMPDEST ISZERO PUSH2 0x26CC JUMPI JUMP JUMPDEST PUSH1 0x40 MLOAD PUSH3 0x461BCD PUSH1 0xE5 SHL DUP2 MSTORE PUSH1 0x20 PUSH1 0x4 DUP3 ADD MSTORE PUSH1 0x18 PUSH1 0x24 DUP3 ADD MSTORE PUSH32 0x4F7065726174696F6E20646F6573206E6F742065786973740000000000000000 PUSH1 0x44 DUP3 ADD MSTORE PUSH1 0x64 SWAP1 REVERT JUMPDEST ISZERO PUSH2 0x2718 JUMPI JUMP JUMPDEST PUSH1 0x40 MLOAD PUSH3 0x461BCD PUSH1 0xE5 SHL DUP2 MSTORE PUSH1 0x20 PUSH1 0x4 DUP3 ADD MSTORE PUSH1 0x1A PUSH1 0x24 DUP3 ADD MSTORE PUSH32 0x4F7065726174696F6E20616C7265616479206578656375746564000000000000 PUSH1 0x44 DUP3 ADD MSTORE PUSH1 0x64 SWAP1 REVERT JUMPDEST PUSH1 0x0 MSTORE PUSH1 0x17 PUSH1 0x20 MSTORE PUSH1 0x40 PUSH1 0x0 KECCAK256 SWAP1 PUSH2 0x2777 DUP3 SLOAD ISZERO ISZERO PUSH2 0x26C5 JUMP JUMPDEST PUSH1 0x2 PUSH1 0x1 DUP4 ADD SLOAD SWAP3 ADD SLOAD SWAP2 PUSH2 0x2698 DUP4 DUP3 PUSH2 0x2449 JUMP JUMPDEST PUSH2 0x27A5 PUSH1 0x0 SWAP2 DUP1 DUP4 MSTORE PUSH1 0x16 PUSH1 0x20 MSTORE PUSH1 0x40 DUP4 KECCAK256 SLOAD EQ PUSH2 0x255D JUMP JUMPDEST DUP1 JUMPDEST PUSH1 0x4 DUP2 LT PUSH2 0x27B6 JUMPI POP POP PUSH1 0x1 SWAP1 JUMP JUMPDEST PUSH2 0x27D6 PUSH2 0x27C2 DUP3 PUSH2 0x27ED JUMP JUMPDEST PUSH1 0x0 MSTORE PUSH1 0x18 PUSH1 0x20 MSTORE PUSH1 0xFF PUSH1 0x40 PUSH1 0x0 KECCAK256 SLOAD AND SWAP1 JUMP JUMPDEST ISZERO PUSH2 0x27E9 JUMPI PUSH2 0x27E4 SWAP1 PUSH2 0x24FA JUMP JUMPDEST PUSH2 0x27A7 JUMP JUMPDEST POP SWAP1 JUMP JUMPDEST DUP1 ISZERO PUSH2 0x2857 JUMPI PUSH1 0x1 DUP2 EQ PUSH2 0x2851 JUMPI PUSH1 0x2 DUP2 EQ PUSH2 0x284B JUMPI PUSH1 0x3 EQ PUSH2 0x2845 JUMPI PUSH1 0x40 MLOAD PUSH3 0x461BCD PUSH1 0xE5 SHL DUP2 MSTORE PUSH1 0x20 PUSH1 0x4 DUP3 ADD MSTORE PUSH1 0x13 PUSH1 0x24 DUP3 ADD MSTORE PUSH19 0x92DCECC2D8D2C840C6D0C2D2DC40D2DCC8CAF PUSH1 0x6B SHL PUSH1 0x44 DUP3 ADD MSTORE PUSH1 0x64 SWAP1 REVERT JUMPDEST PUSH2 0xA4B1 SWAP1 JUMP JUMPDEST POP PUSH1 0x38 SWAP1 JUMP JUMPDEST POP PUSH1 0x89 SWAP1 JUMP JUMPDEST POP PUSH1 0x1 SWAP1 JUMP JUMPDEST SWAP2 SWAP1 DUP3 PUSH1 0x40 SWAP2 SUB SLT PUSH2 0x2EF JUMPI DUP2 MLOAD PUSH1 0x1 PUSH1 0x1 PUSH1 0xA0 SHL SUB DUP2 AND DUP2 SUB PUSH2 0x2EF JUMPI PUSH1 0x20 SWAP1 SWAP3 ADD MLOAD SWAP1 JUMP JUMPDEST DUP1 MLOAD DUP2 ADD SWAP1 PUSH1 0x20 SWAP1 DUP1 DUP3 DUP5 ADD SWAP4 PUSH1 0x40 SWAP2 DUP3 SWAP2 SUB SLT PUSH2 0x2EF JUMPI DUP2 DUP4 ADD MLOAD PUSH1 0x1 PUSH1 0x1 PUSH1 0xE0 SHL SUB NOT DUP2 AND SWAP3 SWAP1 DUP4 SWAP1 SUB PUSH2 0x2EF JUMPI DUP2 DUP2 ADD MLOAD SWAP1 PUSH8 0xFFFFFFFFFFFFFFFF DUP3 GT PUSH2 0x2EF JUMPI ADD SWAP2 DUP5 PUSH1 0x3F DUP5 ADD SLT ISZERO PUSH2 0x2EF JUMPI DUP4 DUP4 ADD MLOAD SWAP3 PUSH2 0x28E3 DUP5 PUSH2 0x2247 JUMP JUMPDEST SWAP4 PUSH2 0x28F0 DUP5 MLOAD SWAP6 DUP7 PUSH2 0x21DD JUMP JUMPDEST DUP1 DUP6 MSTORE DUP6 DUP6 ADD SWAP7 DUP5 DUP3 DUP5 ADD ADD GT PUSH2 0x2EF JUMPI DUP7 DUP5 PUSH2 0x290D SWAP4 ADD PUSH2 0x21FF JUMP JUMPDEST PUSH4 0xA9059CBB PUSH1 0xE0 SHL DUP2 SUB PUSH2 0x2942 JUMPI POP POP SWAP2 PUSH2 0x2930 SWAP2 DUP4 PUSH2 0x2940 SWAP5 MLOAD ADD ADD SWAP1 PUSH2 0x285D JUMP JUMPDEST SWAP1 PUSH1 0x1 PUSH1 0x1 PUSH1 0xA0 SHL SUB AND CALLER PUSH2 0x236B JUMP JUMPDEST JUMP JUMPDEST SWAP1 SWAP4 SWAP2 SWAP1 PUSH4 0x40C10F19 PUSH1 0xE0 SHL DUP2 SUB PUSH2 0x29D9 JUMPI POP SWAP1 DUP3 DUP3 PUSH2 0x2965 SWAP4 MLOAD ADD ADD SWAP1 PUSH2 0x285D JUMP JUMPDEST PUSH1 0x1 PUSH1 0x1 PUSH1 0xA0 SHL SUB SWAP1 SWAP2 AND SWAP3 DUP4 ISZERO PUSH2 0x29C2 JUMPI SWAP2 DUP2 PUSH1 0x0 SWAP4 PUSH2 0x29A9 PUSH32 0xDDF252AD1BE2C89B69C2B068FC378DAA952BA7F163C4A11628F55A4DF523B3EF SWAP5 PUSH1 0x2 SLOAD PUSH2 0x2449 JUMP JUMPDEST PUSH1 0x2 SSTORE DUP6 DUP6 MSTORE DUP5 DUP4 MSTORE DUP1 DUP6 KECCAK256 DUP3 DUP2 SLOAD ADD SWAP1 SSTORE MLOAD SWAP1 DUP2 MSTORE LOG3 JUMP JUMPDEST MLOAD PUSH4 0xEC442F05 PUSH1 0xE0 SHL DUP2 MSTORE PUSH1 0x0 PUSH1 0x4 DUP3 ADD MSTORE PUSH1 0x24 SWAP1 REVERT JUMPDEST SWAP4 SWAP5 SWAP4 PUSH4 0x2770A7EB PUSH1 0xE2 SHL SUB PUSH2 0x2AA7 JUMPI SWAP1 DUP3 DUP3 PUSH2 0x29F9 SWAP4 MLOAD ADD ADD SWAP1 PUSH2 0x285D JUMP JUMPDEST SWAP2 PUSH1 0x1 PUSH1 0x1 PUSH1 0xA0 SHL SUB SWAP1 SWAP2 AND SWAP1 DUP2 ISZERO PUSH2 0x2A8F JUMPI PUSH1 0x0 SWAP3 DUP3 DUP5 MSTORE DUP4 DUP3 MSTORE DUP6 DUP5 KECCAK256 SLOAD SWAP6 DUP2 DUP8 LT PUSH2 0x2A61 JUMPI DUP2 DUP6 SWAP7 SWAP8 DUP6 PUSH32 0xDDF252AD1BE2C89B69C2B068FC378DAA952BA7F163C4A11628F55A4DF523B3EF SWAP7 SWAP8 MSTORE DUP8 DUP6 MSTORE SUB DUP2 DUP8 KECCAK256 SSTORE DUP2 PUSH1 0x2 SLOAD SUB PUSH1 0x2 SSTORE MLOAD SWAP1 DUP2 MSTORE LOG3 JUMP JUMPDEST MLOAD PUSH4 0x391434E3 PUSH1 0xE2 SHL DUP2 MSTORE PUSH1 0x1 PUSH1 0x1 PUSH1 0xA0 SHL SUB DUP5 AND PUSH1 0x4 DUP3 ADD MSTORE PUSH1 0x24 DUP2 ADD DUP8 SWAP1 MSTORE PUSH1 0x44 DUP2 ADD SWAP2 SWAP1 SWAP2 MSTORE PUSH1 0x64 SWAP1 REVERT JUMPDEST DUP5 MLOAD PUSH4 0x4B637E8F PUSH1 0xE1 SHL DUP2 MSTORE PUSH1 0x0 PUSH1 0x4 DUP3 ADD MSTORE PUSH1 0x24 SWAP1 REVERT JUMPDEST DUP5 MLOAD PUSH3 0x461BCD PUSH1 0xE5 SHL DUP2 MSTORE PUSH1 0x4 DUP2 ADD DUP5 SWAP1 MSTORE PUSH1 0x11 PUSH1 0x24 DUP3 ADD MSTORE PUSH17 0x2AB735B737BBB71037B832B930BA34B7B7 PUSH1 0x79 SHL PUSH1 0x44 DUP3 ADD MSTORE PUSH1 0x64 SWAP1 REVERT INVALID LOG2 PUSH5 0x6970667358 0x22 SLT KECCAK256 0xE STOP CALLDATACOPY ADDRESS 0xD0 MUL PUSH7 0x375259274B7CE8 PUSH27 0x5CF38CA28D407C876977216EB1D0BFF04464736F6C634300081400 CALLER "},"methodIdentifiers":{"activeModules(bytes32)":"b3fe8bcb","addModule(bytes32,address)":"35324eee","allowance(address,address)":"dd62ed3e","approve(address,uint256)":"095ea7b3","balanceOf(address)":"70a08231","checkChainConnection(uint256)":"4de184f6","checkMultiSigResult(uint256)":"057b2074","checkProposalResult(uint256)":"7e5a9b47","checkSyncReadiness(uint256)":"e49a62e9","createMultiSigOperation(bytes32,uint256)":"b00e0730","createProposal(string,uint256,bytes,uint256)":"b3594510","currentChainId()":"6cbadbfa","decimals()":"313ce567","dleInfo()":"f2c26a47","executeMultiSigOperation(uint256)":"893d692a","executeProposal(uint256)":"0d61b519","executedMultiSig(uint256)":"af89d2c4","executedProposals(uint256)":"3b60288a","getCurrentChainId()":"5cf0e8a4","getDLEInfo()":"204c5d1f","getModuleAddress(bytes32)":"22dbefbb","getSupportedChainCount()":"eced3dfb","getSupportedChainId(uint256)":"9a49bdde","isChainSupported(uint256)":"5221c1f0","isModuleActive(bytes32)":"4b145793","modules(bytes32)":"b0b6cc1a","multiSigCounter()":"8c7b04c9","multiSigOperations(uint256)":"c51cab3a","name()":"06fdde03","proposalCounter()":"0c0512e9","proposals(uint256)":"013cf08b","quorumPercentage()":"4fa76ec9","removeModule(bytes32)":"4114509b","signMultiSigOperation(uint256,bool)":"ccd7a490","supportedChains(uint256)":"548d496f","symbol()":"95d89b41","syncExecutionFromChain(uint256,uint256,bytes)":"044bc2bd","syncMultiSigFromChain(uint256,uint256,uint256,uint256,bytes)":"2ee09598","syncToAllChains(uint256)":"7ce288ea","syncVoteFromChain(uint256,uint256,uint256,uint256,bytes)":"456d10c1","totalSupply()":"18160ddd","transfer(address,uint256)":"a9059cbb","transferFrom(address,address,uint256)":"23b872dd","vote(uint256,bool)":"c9d27afe"}}}}}