{
  "_format": "hh-sol-artifact-1",
  "contractName": "DLE",
  "sourceName": "contracts/DLE.sol",
  "abi": [
    {
      "inputs": [
        {
          "components": [
            {
              "internalType": "string",
              "name": "name",
              "type": "string"
            },
            {
              "internalType": "string",
              "name": "symbol",
              "type": "string"
            },
            {
              "internalType": "string",
              "name": "location",
              "type": "string"
            },
            {
              "internalType": "string",
              "name": "coordinates",
              "type": "string"
            },
            {
              "internalType": "uint256",
              "name": "jurisdiction",
              "type": "uint256"
            },
            {
              "internalType": "uint256",
              "name": "oktmo",
              "type": "uint256"
            },
            {
              "internalType": "string[]",
              "name": "okvedCodes",
              "type": "string[]"
            },
            {
              "internalType": "uint256",
              "name": "kpp",
              "type": "uint256"
            },
            {
              "internalType": "uint48",
              "name": "votingDelay",
              "type": "uint48"
            },
            {
              "internalType": "uint32",
              "name": "votingPeriod",
              "type": "uint32"
            },
            {
              "internalType": "uint256",
              "name": "proposalThreshold",
              "type": "uint256"
            },
            {
              "internalType": "uint256",
              "name": "quorumPercentage",
              "type": "uint256"
            },
            {
              "internalType": "address[]",
              "name": "initialPartners",
              "type": "address[]"
            },
            {
              "internalType": "uint256[]",
              "name": "initialAmounts",
              "type": "uint256[]"
            }
          ],
          "internalType": "struct DLE.DLEConfig",
          "name": "config",
          "type": "tuple"
        },
        {
          "internalType": "address",
          "name": "timelockAddress",
          "type": "address"
        }
      ],
      "stateMutability": "nonpayable",
      "type": "constructor"
    },
    {
      "inputs": [],
      "name": "CheckpointUnorderedInsertion",
      "type": "error"
    },
    {
      "inputs": [],
      "name": "ECDSAInvalidSignature",
      "type": "error"
    },
    {
      "inputs": [
        {
          "internalType": "uint256",
          "name": "length",
          "type": "uint256"
        }
      ],
      "name": "ECDSAInvalidSignatureLength",
      "type": "error"
    },
    {
      "inputs": [
        {
          "internalType": "bytes32",
          "name": "s",
          "type": "bytes32"
        }
      ],
      "name": "ECDSAInvalidSignatureS",
      "type": "error"
    },
    {
      "inputs": [
        {
          "internalType": "uint256",
          "name": "increasedSupply",
          "type": "uint256"
        },
        {
          "internalType": "uint256",
          "name": "cap",
          "type": "uint256"
        }
      ],
      "name": "ERC20ExceededSafeSupply",
      "type": "error"
    },
    {
      "inputs": [
        {
          "internalType": "address",
          "name": "spender",
          "type": "address"
        },
        {
          "internalType": "uint256",
          "name": "allowance",
          "type": "uint256"
        },
        {
          "internalType": "uint256",
          "name": "needed",
          "type": "uint256"
        }
      ],
      "name": "ERC20InsufficientAllowance",
      "type": "error"
    },
    {
      "inputs": [
        {
          "internalType": "address",
          "name": "sender",
          "type": "address"
        },
        {
          "internalType": "uint256",
          "name": "balance",
          "type": "uint256"
        },
        {
          "internalType": "uint256",
          "name": "needed",
          "type": "uint256"
        }
      ],
      "name": "ERC20InsufficientBalance",
      "type": "error"
    },
    {
      "inputs": [
        {
          "internalType": "address",
          "name": "approver",
          "type": "address"
        }
      ],
      "name": "ERC20InvalidApprover",
      "type": "error"
    },
    {
      "inputs": [
        {
          "internalType": "address",
          "name": "receiver",
          "type": "address"
        }
      ],
      "name": "ERC20InvalidReceiver",
      "type": "error"
    },
    {
      "inputs": [
        {
          "internalType": "address",
          "name": "sender",
          "type": "address"
        }
      ],
      "name": "ERC20InvalidSender",
      "type": "error"
    },
    {
      "inputs": [
        {
          "internalType": "address",
          "name": "spender",
          "type": "address"
        }
      ],
      "name": "ERC20InvalidSpender",
      "type": "error"
    },
    {
      "inputs": [
        {
          "internalType": "uint256",
          "name": "timepoint",
          "type": "uint256"
        },
        {
          "internalType": "uint48",
          "name": "clock",
          "type": "uint48"
        }
      ],
      "name": "ERC5805FutureLookup",
      "type": "error"
    },
    {
      "inputs": [],
      "name": "ERC6372InconsistentClock",
      "type": "error"
    },
    {
      "inputs": [],
      "name": "FailedCall",
      "type": "error"
    },
    {
      "inputs": [
        {
          "internalType": "address",
          "name": "voter",
          "type": "address"
        }
      ],
      "name": "GovernorAlreadyCastVote",
      "type": "error"
    },
    {
      "inputs": [
        {
          "internalType": "uint256",
          "name": "proposalId",
          "type": "uint256"
        }
      ],
      "name": "GovernorAlreadyQueuedProposal",
      "type": "error"
    },
    {
      "inputs": [],
      "name": "GovernorDisabledDeposit",
      "type": "error"
    },
    {
      "inputs": [
        {
          "internalType": "address",
          "name": "proposer",
          "type": "address"
        },
        {
          "internalType": "uint256",
          "name": "votes",
          "type": "uint256"
        },
        {
          "internalType": "uint256",
          "name": "threshold",
          "type": "uint256"
        }
      ],
      "name": "GovernorInsufficientProposerVotes",
      "type": "error"
    },
    {
      "inputs": [
        {
          "internalType": "uint256",
          "name": "targets",
          "type": "uint256"
        },
        {
          "internalType": "uint256",
          "name": "calldatas",
          "type": "uint256"
        },
        {
          "internalType": "uint256",
          "name": "values",
          "type": "uint256"
        }
      ],
      "name": "GovernorInvalidProposalLength",
      "type": "error"
    },
    {
      "inputs": [
        {
          "internalType": "uint256",
          "name": "quorumNumerator",
          "type": "uint256"
        },
        {
          "internalType": "uint256",
          "name": "quorumDenominator",
          "type": "uint256"
        }
      ],
      "name": "GovernorInvalidQuorumFraction",
      "type": "error"
    },
    {
      "inputs": [
        {
          "internalType": "address",
          "name": "voter",
          "type": "address"
        }
      ],
      "name": "GovernorInvalidSignature",
      "type": "error"
    },
    {
      "inputs": [],
      "name": "GovernorInvalidVoteParams",
      "type": "error"
    },
    {
      "inputs": [],
      "name": "GovernorInvalidVoteType",
      "type": "error"
    },
    {
      "inputs": [
        {
          "internalType": "uint256",
          "name": "votingPeriod",
          "type": "uint256"
        }
      ],
      "name": "GovernorInvalidVotingPeriod",
      "type": "error"
    },
    {
      "inputs": [
        {
          "internalType": "uint256",
          "name": "proposalId",
          "type": "uint256"
        }
      ],
      "name": "GovernorNonexistentProposal",
      "type": "error"
    },
    {
      "inputs": [
        {
          "internalType": "uint256",
          "name": "proposalId",
          "type": "uint256"
        }
      ],
      "name": "GovernorNotQueuedProposal",
      "type": "error"
    },
    {
      "inputs": [
        {
          "internalType": "address",
          "name": "account",
          "type": "address"
        }
      ],
      "name": "GovernorOnlyExecutor",
      "type": "error"
    },
    {
      "inputs": [
        {
          "internalType": "address",
          "name": "account",
          "type": "address"
        }
      ],
      "name": "GovernorOnlyProposer",
      "type": "error"
    },
    {
      "inputs": [],
      "name": "GovernorQueueNotImplemented",
      "type": "error"
    },
    {
      "inputs": [
        {
          "internalType": "address",
          "name": "proposer",
          "type": "address"
        }
      ],
      "name": "GovernorRestrictedProposer",
      "type": "error"
    },
    {
      "inputs": [
        {
          "internalType": "uint256",
          "name": "proposalId",
          "type": "uint256"
        },
        {
          "internalType": "enum IGovernor.ProposalState",
          "name": "current",
          "type": "uint8"
        },
        {
          "internalType": "bytes32",
          "name": "expectedStates",
          "type": "bytes32"
        }
      ],
      "name": "GovernorUnexpectedProposalState",
      "type": "error"
    },
    {
      "inputs": [
        {
          "internalType": "address",
          "name": "account",
          "type": "address"
        },
        {
          "internalType": "uint256",
          "name": "currentNonce",
          "type": "uint256"
        }
      ],
      "name": "InvalidAccountNonce",
      "type": "error"
    },
    {
      "inputs": [],
      "name": "InvalidShortString",
      "type": "error"
    },
    {
      "inputs": [
        {
          "internalType": "uint8",
          "name": "bits",
          "type": "uint8"
        },
        {
          "internalType": "uint256",
          "name": "value",
          "type": "uint256"
        }
      ],
      "name": "SafeCastOverflowedUintDowncast",
      "type": "error"
    },
    {
      "inputs": [
        {
          "internalType": "string",
          "name": "str",
          "type": "string"
        }
      ],
      "name": "StringTooLong",
      "type": "error"
    },
    {
      "inputs": [
        {
          "internalType": "uint256",
          "name": "expiry",
          "type": "uint256"
        }
      ],
      "name": "VotesExpiredSignature",
      "type": "error"
    },
    {
      "anonymous": false,
      "inputs": [
        {
          "indexed": true,
          "internalType": "address",
          "name": "owner",
          "type": "address"
        },
        {
          "indexed": true,
          "internalType": "address",
          "name": "spender",
          "type": "address"
        },
        {
          "indexed": false,
          "internalType": "uint256",
          "name": "value",
          "type": "uint256"
        }
      ],
      "name": "Approval",
      "type": "event"
    },
    {
      "anonymous": false,
      "inputs": [
        {
          "indexed": false,
          "internalType": "string",
          "name": "name",
          "type": "string"
        },
        {
          "indexed": false,
          "internalType": "string",
          "name": "symbol",
          "type": "string"
        },
        {
          "indexed": false,
          "internalType": "string",
          "name": "location",
          "type": "string"
        },
        {
          "indexed": false,
          "internalType": "string",
          "name": "coordinates",
          "type": "string"
        },
        {
          "indexed": false,
          "internalType": "uint256",
          "name": "jurisdiction",
          "type": "uint256"
        },
        {
          "indexed": false,
          "internalType": "uint256",
          "name": "oktmo",
          "type": "uint256"
        },
        {
          "indexed": false,
          "internalType": "string[]",
          "name": "okvedCodes",
          "type": "string[]"
        },
        {
          "indexed": false,
          "internalType": "uint256",
          "name": "kpp",
          "type": "uint256"
        },
        {
          "indexed": false,
          "internalType": "address",
          "name": "tokenAddress",
          "type": "address"
        },
        {
          "indexed": false,
          "internalType": "address",
          "name": "timelockAddress",
          "type": "address"
        },
        {
          "indexed": false,
          "internalType": "address",
          "name": "governorAddress",
          "type": "address"
        }
      ],
      "name": "DLEInitialized",
      "type": "event"
    },
    {
      "anonymous": false,
      "inputs": [
        {
          "indexed": true,
          "internalType": "address",
          "name": "delegator",
          "type": "address"
        },
        {
          "indexed": true,
          "internalType": "address",
          "name": "fromDelegate",
          "type": "address"
        },
        {
          "indexed": true,
          "internalType": "address",
          "name": "toDelegate",
          "type": "address"
        }
      ],
      "name": "DelegateChanged",
      "type": "event"
    },
    {
      "anonymous": false,
      "inputs": [
        {
          "indexed": true,
          "internalType": "address",
          "name": "delegate",
          "type": "address"
        },
        {
          "indexed": false,
          "internalType": "uint256",
          "name": "previousVotes",
          "type": "uint256"
        },
        {
          "indexed": false,
          "internalType": "uint256",
          "name": "newVotes",
          "type": "uint256"
        }
      ],
      "name": "DelegateVotesChanged",
      "type": "event"
    },
    {
      "anonymous": false,
      "inputs": [],
      "name": "EIP712DomainChanged",
      "type": "event"
    },
    {
      "anonymous": false,
      "inputs": [
        {
          "indexed": false,
          "internalType": "address[]",
          "name": "partners",
          "type": "address[]"
        },
        {
          "indexed": false,
          "internalType": "uint256[]",
          "name": "amounts",
          "type": "uint256[]"
        }
      ],
      "name": "InitialTokensDistributed",
      "type": "event"
    },
    {
      "anonymous": false,
      "inputs": [
        {
          "indexed": false,
          "internalType": "string",
          "name": "moduleName",
          "type": "string"
        },
        {
          "indexed": false,
          "internalType": "address",
          "name": "moduleAddress",
          "type": "address"
        }
      ],
      "name": "ModuleInstalled",
      "type": "event"
    },
    {
      "anonymous": false,
      "inputs": [
        {
          "indexed": false,
          "internalType": "uint256",
          "name": "proposalId",
          "type": "uint256"
        }
      ],
      "name": "ProposalCanceled",
      "type": "event"
    },
    {
      "anonymous": false,
      "inputs": [
        {
          "indexed": false,
          "internalType": "uint256",
          "name": "proposalId",
          "type": "uint256"
        },
        {
          "indexed": false,
          "internalType": "address",
          "name": "proposer",
          "type": "address"
        },
        {
          "indexed": false,
          "internalType": "address[]",
          "name": "targets",
          "type": "address[]"
        },
        {
          "indexed": false,
          "internalType": "uint256[]",
          "name": "values",
          "type": "uint256[]"
        },
        {
          "indexed": false,
          "internalType": "string[]",
          "name": "signatures",
          "type": "string[]"
        },
        {
          "indexed": false,
          "internalType": "bytes[]",
          "name": "calldatas",
          "type": "bytes[]"
        },
        {
          "indexed": false,
          "internalType": "uint256",
          "name": "voteStart",
          "type": "uint256"
        },
        {
          "indexed": false,
          "internalType": "uint256",
          "name": "voteEnd",
          "type": "uint256"
        },
        {
          "indexed": false,
          "internalType": "string",
          "name": "description",
          "type": "string"
        }
      ],
      "name": "ProposalCreated",
      "type": "event"
    },
    {
      "anonymous": false,
      "inputs": [
        {
          "indexed": false,
          "internalType": "uint256",
          "name": "proposalId",
          "type": "uint256"
        },
        {
          "indexed": false,
          "internalType": "address",
          "name": "initiator",
          "type": "address"
        },
        {
          "indexed": false,
          "internalType": "bytes",
          "name": "operation",
          "type": "bytes"
        }
      ],
      "name": "ProposalCreated",
      "type": "event"
    },
    {
      "anonymous": false,
      "inputs": [
        {
          "indexed": false,
          "internalType": "uint256",
          "name": "proposalId",
          "type": "uint256"
        }
      ],
      "name": "ProposalExecuted",
      "type": "event"
    },
    {
      "anonymous": false,
      "inputs": [
        {
          "indexed": false,
          "internalType": "uint256",
          "name": "proposalId",
          "type": "uint256"
        },
        {
          "indexed": false,
          "internalType": "uint256",
          "name": "etaSeconds",
          "type": "uint256"
        }
      ],
      "name": "ProposalQueued",
      "type": "event"
    },
    {
      "anonymous": false,
      "inputs": [
        {
          "indexed": false,
          "internalType": "uint256",
          "name": "proposalId",
          "type": "uint256"
        },
        {
          "indexed": false,
          "internalType": "address",
          "name": "signer",
          "type": "address"
        },
        {
          "indexed": false,
          "internalType": "uint256",
          "name": "signaturesCount",
          "type": "uint256"
        }
      ],
      "name": "ProposalSigned",
      "type": "event"
    },
    {
      "anonymous": false,
      "inputs": [
        {
          "indexed": false,
          "internalType": "uint256",
          "name": "oldProposalThreshold",
          "type": "uint256"
        },
        {
          "indexed": false,
          "internalType": "uint256",
          "name": "newProposalThreshold",
          "type": "uint256"
        }
      ],
      "name": "ProposalThresholdSet",
      "type": "event"
    },
    {
      "anonymous": false,
      "inputs": [
        {
          "indexed": false,
          "internalType": "uint256",
          "name": "oldQuorumNumerator",
          "type": "uint256"
        },
        {
          "indexed": false,
          "internalType": "uint256",
          "name": "newQuorumNumerator",
          "type": "uint256"
        }
      ],
      "name": "QuorumNumeratorUpdated",
      "type": "event"
    },
    {
      "anonymous": false,
      "inputs": [
        {
          "indexed": false,
          "internalType": "address",
          "name": "oldTimelock",
          "type": "address"
        },
        {
          "indexed": false,
          "internalType": "address",
          "name": "newTimelock",
          "type": "address"
        }
      ],
      "name": "TimelockChange",
      "type": "event"
    },
    {
      "anonymous": false,
      "inputs": [
        {
          "indexed": false,
          "internalType": "uint256",
          "name": "proposalId",
          "type": "uint256"
        },
        {
          "indexed": false,
          "internalType": "address",
          "name": "initiator",
          "type": "address"
        },
        {
          "indexed": false,
          "internalType": "address[]",
          "name": "partners",
          "type": "address[]"
        },
        {
          "indexed": false,
          "internalType": "uint256[]",
          "name": "amounts",
          "type": "uint256[]"
        },
        {
          "indexed": false,
          "internalType": "string",
          "name": "description",
          "type": "string"
        }
      ],
      "name": "TokenDistributionProposalCreated",
      "type": "event"
    },
    {
      "anonymous": false,
      "inputs": [
        {
          "indexed": false,
          "internalType": "uint256",
          "name": "proposalId",
          "type": "uint256"
        },
        {
          "indexed": false,
          "internalType": "address[]",
          "name": "partners",
          "type": "address[]"
        },
        {
          "indexed": false,
          "internalType": "uint256[]",
          "name": "amounts",
          "type": "uint256[]"
        }
      ],
      "name": "TokenDistributionProposalExecuted",
      "type": "event"
    },
    {
      "anonymous": false,
      "inputs": [
        {
          "indexed": false,
          "internalType": "uint256",
          "name": "proposalId",
          "type": "uint256"
        },
        {
          "indexed": false,
          "internalType": "address",
          "name": "signer",
          "type": "address"
        },
        {
          "indexed": false,
          "internalType": "uint256",
          "name": "signaturesCount",
          "type": "uint256"
        }
      ],
      "name": "TokenDistributionProposalSigned",
      "type": "event"
    },
    {
      "anonymous": false,
      "inputs": [
        {
          "indexed": false,
          "internalType": "address",
          "name": "depositor",
          "type": "address"
        },
        {
          "indexed": false,
          "internalType": "uint256",
          "name": "amount",
          "type": "uint256"
        }
      ],
      "name": "TokensDepositedToTreasury",
      "type": "event"
    },
    {
      "anonymous": false,
      "inputs": [
        {
          "indexed": true,
          "internalType": "address",
          "name": "from",
          "type": "address"
        },
        {
          "indexed": true,
          "internalType": "address",
          "name": "to",
          "type": "address"
        },
        {
          "indexed": false,
          "internalType": "uint256",
          "name": "value",
          "type": "uint256"
        }
      ],
      "name": "Transfer",
      "type": "event"
    },
    {
      "anonymous": false,
      "inputs": [
        {
          "indexed": false,
          "internalType": "uint256",
          "name": "proposalId",
          "type": "uint256"
        },
        {
          "indexed": false,
          "internalType": "address",
          "name": "initiator",
          "type": "address"
        },
        {
          "indexed": false,
          "internalType": "address",
          "name": "recipient",
          "type": "address"
        },
        {
          "indexed": false,
          "internalType": "uint256",
          "name": "amount",
          "type": "uint256"
        },
        {
          "indexed": false,
          "internalType": "string",
          "name": "description",
          "type": "string"
        }
      ],
      "name": "TreasuryProposalCreated",
      "type": "event"
    },
    {
      "anonymous": false,
      "inputs": [
        {
          "indexed": false,
          "internalType": "uint256",
          "name": "proposalId",
          "type": "uint256"
        },
        {
          "indexed": false,
          "internalType": "address",
          "name": "recipient",
          "type": "address"
        },
        {
          "indexed": false,
          "internalType": "uint256",
          "name": "amount",
          "type": "uint256"
        }
      ],
      "name": "TreasuryProposalExecuted",
      "type": "event"
    },
    {
      "anonymous": false,
      "inputs": [
        {
          "indexed": false,
          "internalType": "uint256",
          "name": "proposalId",
          "type": "uint256"
        },
        {
          "indexed": false,
          "internalType": "address",
          "name": "signer",
          "type": "address"
        },
        {
          "indexed": false,
          "internalType": "uint256",
          "name": "signaturesCount",
          "type": "uint256"
        }
      ],
      "name": "TreasuryProposalSigned",
      "type": "event"
    },
    {
      "anonymous": false,
      "inputs": [
        {
          "indexed": true,
          "internalType": "address",
          "name": "voter",
          "type": "address"
        },
        {
          "indexed": false,
          "internalType": "uint256",
          "name": "proposalId",
          "type": "uint256"
        },
        {
          "indexed": false,
          "internalType": "uint8",
          "name": "support",
          "type": "uint8"
        },
        {
          "indexed": false,
          "internalType": "uint256",
          "name": "weight",
          "type": "uint256"
        },
        {
          "indexed": false,
          "internalType": "string",
          "name": "reason",
          "type": "string"
        }
      ],
      "name": "VoteCast",
      "type": "event"
    },
    {
      "anonymous": false,
      "inputs": [
        {
          "indexed": true,
          "internalType": "address",
          "name": "voter",
          "type": "address"
        },
        {
          "indexed": false,
          "internalType": "uint256",
          "name": "proposalId",
          "type": "uint256"
        },
        {
          "indexed": false,
          "internalType": "uint8",
          "name": "support",
          "type": "uint8"
        },
        {
          "indexed": false,
          "internalType": "uint256",
          "name": "weight",
          "type": "uint256"
        },
        {
          "indexed": false,
          "internalType": "string",
          "name": "reason",
          "type": "string"
        },
        {
          "indexed": false,
          "internalType": "bytes",
          "name": "params",
          "type": "bytes"
        }
      ],
      "name": "VoteCastWithParams",
      "type": "event"
    },
    {
      "anonymous": false,
      "inputs": [
        {
          "indexed": false,
          "internalType": "uint256",
          "name": "oldVotingDelay",
          "type": "uint256"
        },
        {
          "indexed": false,
          "internalType": "uint256",
          "name": "newVotingDelay",
          "type": "uint256"
        }
      ],
      "name": "VotingDelaySet",
      "type": "event"
    },
    {
      "anonymous": false,
      "inputs": [
        {
          "indexed": false,
          "internalType": "uint256",
          "name": "oldVotingPeriod",
          "type": "uint256"
        },
        {
          "indexed": false,
          "internalType": "uint256",
          "name": "newVotingPeriod",
          "type": "uint256"
        }
      ],
      "name": "VotingPeriodSet",
      "type": "event"
    },
    {
      "inputs": [],
      "name": "BALLOT_TYPEHASH",
      "outputs": [
        {
          "internalType": "bytes32",
          "name": "",
          "type": "bytes32"
        }
      ],
      "stateMutability": "view",
      "type": "function"
    },
    {
      "inputs": [],
      "name": "CLOCK_MODE",
      "outputs": [
        {
          "internalType": "string",
          "name": "",
          "type": "string"
        }
      ],
      "stateMutability": "pure",
      "type": "function"
    },
    {
      "inputs": [],
      "name": "COUNTING_MODE",
      "outputs": [
        {
          "internalType": "string",
          "name": "",
          "type": "string"
        }
      ],
      "stateMutability": "pure",
      "type": "function"
    },
    {
      "inputs": [],
      "name": "EXTENDED_BALLOT_TYPEHASH",
      "outputs": [
        {
          "internalType": "bytes32",
          "name": "",
          "type": "bytes32"
        }
      ],
      "stateMutability": "view",
      "type": "function"
    },
    {
      "inputs": [
        {
          "internalType": "address",
          "name": "owner",
          "type": "address"
        },
        {
          "internalType": "address",
          "name": "spender",
          "type": "address"
        }
      ],
      "name": "allowance",
      "outputs": [
        {
          "internalType": "uint256",
          "name": "",
          "type": "uint256"
        }
      ],
      "stateMutability": "view",
      "type": "function"
    },
    {
      "inputs": [
        {
          "internalType": "address",
          "name": "spender",
          "type": "address"
        },
        {
          "internalType": "uint256",
          "name": "value",
          "type": "uint256"
        }
      ],
      "name": "approve",
      "outputs": [
        {
          "internalType": "bool",
          "name": "",
          "type": "bool"
        }
      ],
      "stateMutability": "nonpayable",
      "type": "function"
    },
    {
      "inputs": [
        {
          "internalType": "address",
          "name": "account",
          "type": "address"
        }
      ],
      "name": "balanceOf",
      "outputs": [
        {
          "internalType": "uint256",
          "name": "",
          "type": "uint256"
        }
      ],
      "stateMutability": "view",
      "type": "function"
    },
    {
      "inputs": [
        {
          "internalType": "address[]",
          "name": "targets",
          "type": "address[]"
        },
        {
          "internalType": "uint256[]",
          "name": "values",
          "type": "uint256[]"
        },
        {
          "internalType": "bytes[]",
          "name": "calldatas",
          "type": "bytes[]"
        },
        {
          "internalType": "bytes32",
          "name": "descriptionHash",
          "type": "bytes32"
        }
      ],
      "name": "cancel",
      "outputs": [
        {
          "internalType": "uint256",
          "name": "",
          "type": "uint256"
        }
      ],
      "stateMutability": "nonpayable",
      "type": "function"
    },
    {
      "inputs": [
        {
          "internalType": "uint256",
          "name": "proposalId",
          "type": "uint256"
        },
        {
          "internalType": "uint8",
          "name": "support",
          "type": "uint8"
        }
      ],
      "name": "castVote",
      "outputs": [
        {
          "internalType": "uint256",
          "name": "",
          "type": "uint256"
        }
      ],
      "stateMutability": "nonpayable",
      "type": "function"
    },
    {
      "inputs": [
        {
          "internalType": "uint256",
          "name": "proposalId",
          "type": "uint256"
        },
        {
          "internalType": "uint8",
          "name": "support",
          "type": "uint8"
        },
        {
          "internalType": "address",
          "name": "voter",
          "type": "address"
        },
        {
          "internalType": "bytes",
          "name": "signature",
          "type": "bytes"
        }
      ],
      "name": "castVoteBySig",
      "outputs": [
        {
          "internalType": "uint256",
          "name": "",
          "type": "uint256"
        }
      ],
      "stateMutability": "nonpayable",
      "type": "function"
    },
    {
      "inputs": [
        {
          "internalType": "uint256",
          "name": "proposalId",
          "type": "uint256"
        },
        {
          "internalType": "uint8",
          "name": "support",
          "type": "uint8"
        },
        {
          "internalType": "string",
          "name": "reason",
          "type": "string"
        }
      ],
      "name": "castVoteWithReason",
      "outputs": [
        {
          "internalType": "uint256",
          "name": "",
          "type": "uint256"
        }
      ],
      "stateMutability": "nonpayable",
      "type": "function"
    },
    {
      "inputs": [
        {
          "internalType": "uint256",
          "name": "proposalId",
          "type": "uint256"
        },
        {
          "internalType": "uint8",
          "name": "support",
          "type": "uint8"
        },
        {
          "internalType": "string",
          "name": "reason",
          "type": "string"
        },
        {
          "internalType": "bytes",
          "name": "params",
          "type": "bytes"
        }
      ],
      "name": "castVoteWithReasonAndParams",
      "outputs": [
        {
          "internalType": "uint256",
          "name": "",
          "type": "uint256"
        }
      ],
      "stateMutability": "nonpayable",
      "type": "function"
    },
    {
      "inputs": [
        {
          "internalType": "uint256",
          "name": "proposalId",
          "type": "uint256"
        },
        {
          "internalType": "uint8",
          "name": "support",
          "type": "uint8"
        },
        {
          "internalType": "address",
          "name": "voter",
          "type": "address"
        },
        {
          "internalType": "string",
          "name": "reason",
          "type": "string"
        },
        {
          "internalType": "bytes",
          "name": "params",
          "type": "bytes"
        },
        {
          "internalType": "bytes",
          "name": "signature",
          "type": "bytes"
        }
      ],
      "name": "castVoteWithReasonAndParamsBySig",
      "outputs": [
        {
          "internalType": "uint256",
          "name": "",
          "type": "uint256"
        }
      ],
      "stateMutability": "nonpayable",
      "type": "function"
    },
    {
      "inputs": [
        {
          "internalType": "address",
          "name": "account",
          "type": "address"
        },
        {
          "internalType": "uint32",
          "name": "pos",
          "type": "uint32"
        }
      ],
      "name": "checkpoints",
      "outputs": [
        {
          "components": [
            {
              "internalType": "uint48",
              "name": "_key",
              "type": "uint48"
            },
            {
              "internalType": "uint208",
              "name": "_value",
              "type": "uint208"
            }
          ],
          "internalType": "struct Checkpoints.Checkpoint208",
          "name": "",
          "type": "tuple"
        }
      ],
      "stateMutability": "view",
      "type": "function"
    },
    {
      "inputs": [],
      "name": "clock",
      "outputs": [
        {
          "internalType": "uint48",
          "name": "",
          "type": "uint48"
        }
      ],
      "stateMutability": "view",
      "type": "function"
    },
    {
      "inputs": [
        {
          "internalType": "bytes",
          "name": "_operation",
          "type": "bytes"
        },
        {
          "internalType": "uint256[]",
          "name": "_targetChains",
          "type": "uint256[]"
        },
        {
          "internalType": "uint256",
          "name": "_timelock",
          "type": "uint256"
        },
        {
          "internalType": "uint256",
          "name": "_governanceChain",
          "type": "uint256"
        }
      ],
      "name": "createProposal",
      "outputs": [
        {
          "internalType": "uint256",
          "name": "",
          "type": "uint256"
        }
      ],
      "stateMutability": "nonpayable",
      "type": "function"
    },
    {
      "inputs": [
        {
          "internalType": "address[]",
          "name": "_partners",
          "type": "address[]"
        },
        {
          "internalType": "uint256[]",
          "name": "_amounts",
          "type": "uint256[]"
        },
        {
          "internalType": "uint256",
          "name": "_timelock",
          "type": "uint256"
        },
        {
          "internalType": "string",
          "name": "_description",
          "type": "string"
        }
      ],
      "name": "createTokenDistributionProposal",
      "outputs": [
        {
          "internalType": "uint256",
          "name": "",
          "type": "uint256"
        }
      ],
      "stateMutability": "nonpayable",
      "type": "function"
    },
    {
      "inputs": [
        {
          "internalType": "address",
          "name": "_recipient",
          "type": "address"
        },
        {
          "internalType": "uint256",
          "name": "_amount",
          "type": "uint256"
        },
        {
          "internalType": "uint256",
          "name": "_timelock",
          "type": "uint256"
        },
        {
          "internalType": "string",
          "name": "_description",
          "type": "string"
        }
      ],
      "name": "createTreasuryProposal",
      "outputs": [
        {
          "internalType": "uint256",
          "name": "",
          "type": "uint256"
        }
      ],
      "stateMutability": "nonpayable",
      "type": "function"
    },
    {
      "inputs": [],
      "name": "decimals",
      "outputs": [
        {
          "internalType": "uint8",
          "name": "",
          "type": "uint8"
        }
      ],
      "stateMutability": "view",
      "type": "function"
    },
    {
      "inputs": [
        {
          "internalType": "address",
          "name": "delegatee",
          "type": "address"
        }
      ],
      "name": "delegate",
      "outputs": [],
      "stateMutability": "nonpayable",
      "type": "function"
    },
    {
      "inputs": [
        {
          "internalType": "address",
          "name": "delegatee",
          "type": "address"
        },
        {
          "internalType": "uint256",
          "name": "nonce",
          "type": "uint256"
        },
        {
          "internalType": "uint256",
          "name": "expiry",
          "type": "uint256"
        },
        {
          "internalType": "uint8",
          "name": "v",
          "type": "uint8"
        },
        {
          "internalType": "bytes32",
          "name": "r",
          "type": "bytes32"
        },
        {
          "internalType": "bytes32",
          "name": "s",
          "type": "bytes32"
        }
      ],
      "name": "delegateBySig",
      "outputs": [],
      "stateMutability": "nonpayable",
      "type": "function"
    },
    {
      "inputs": [
        {
          "internalType": "address",
          "name": "account",
          "type": "address"
        }
      ],
      "name": "delegates",
      "outputs": [
        {
          "internalType": "address",
          "name": "",
          "type": "address"
        }
      ],
      "stateMutability": "view",
      "type": "function"
    },
    {
      "inputs": [
        {
          "internalType": "uint256",
          "name": "_amount",
          "type": "uint256"
        }
      ],
      "name": "depositToTreasury",
      "outputs": [],
      "stateMutability": "nonpayable",
      "type": "function"
    },
    {
      "inputs": [],
      "name": "dleInfo",
      "outputs": [
        {
          "internalType": "string",
          "name": "name",
          "type": "string"
        },
        {
          "internalType": "string",
          "name": "symbol",
          "type": "string"
        },
        {
          "internalType": "string",
          "name": "location",
          "type": "string"
        },
        {
          "internalType": "string",
          "name": "coordinates",
          "type": "string"
        },
        {
          "internalType": "uint256",
          "name": "jurisdiction",
          "type": "uint256"
        },
        {
          "internalType": "uint256",
          "name": "oktmo",
          "type": "uint256"
        },
        {
          "internalType": "uint256",
          "name": "kpp",
          "type": "uint256"
        },
        {
          "internalType": "uint256",
          "name": "creationTimestamp",
          "type": "uint256"
        },
        {
          "internalType": "bool",
          "name": "isActive",
          "type": "bool"
        }
      ],
      "stateMutability": "view",
      "type": "function"
    },
    {
      "inputs": [],
      "name": "eip712Domain",
      "outputs": [
        {
          "internalType": "bytes1",
          "name": "fields",
          "type": "bytes1"
        },
        {
          "internalType": "string",
          "name": "name",
          "type": "string"
        },
        {
          "internalType": "string",
          "name": "version",
          "type": "string"
        },
        {
          "internalType": "uint256",
          "name": "chainId",
          "type": "uint256"
        },
        {
          "internalType": "address",
          "name": "verifyingContract",
          "type": "address"
        },
        {
          "internalType": "bytes32",
          "name": "salt",
          "type": "bytes32"
        },
        {
          "internalType": "uint256[]",
          "name": "extensions",
          "type": "uint256[]"
        }
      ],
      "stateMutability": "view",
      "type": "function"
    },
    {
      "inputs": [
        {
          "internalType": "address[]",
          "name": "targets",
          "type": "address[]"
        },
        {
          "internalType": "uint256[]",
          "name": "values",
          "type": "uint256[]"
        },
        {
          "internalType": "bytes[]",
          "name": "calldatas",
          "type": "bytes[]"
        },
        {
          "internalType": "bytes32",
          "name": "descriptionHash",
          "type": "bytes32"
        }
      ],
      "name": "execute",
      "outputs": [
        {
          "internalType": "uint256",
          "name": "",
          "type": "uint256"
        }
      ],
      "stateMutability": "payable",
      "type": "function"
    },
    {
      "inputs": [
        {
          "internalType": "uint256",
          "name": "_proposalId",
          "type": "uint256"
        }
      ],
      "name": "executeTokenDistributionProposal",
      "outputs": [],
      "stateMutability": "nonpayable",
      "type": "function"
    },
    {
      "inputs": [
        {
          "internalType": "uint256",
          "name": "_proposalId",
          "type": "uint256"
        }
      ],
      "name": "executeTreasuryProposal",
      "outputs": [],
      "stateMutability": "nonpayable",
      "type": "function"
    },
    {
      "inputs": [
        {
          "internalType": "address",
          "name": "_address",
          "type": "address"
        }
      ],
      "name": "getAvailableWithdrawal",
      "outputs": [
        {
          "internalType": "uint256",
          "name": "",
          "type": "uint256"
        }
      ],
      "stateMutability": "view",
      "type": "function"
    },
    {
      "inputs": [
        {
          "internalType": "uint256",
          "name": "timepoint",
          "type": "uint256"
        }
      ],
      "name": "getPastTotalSupply",
      "outputs": [
        {
          "internalType": "uint256",
          "name": "",
          "type": "uint256"
        }
      ],
      "stateMutability": "view",
      "type": "function"
    },
    {
      "inputs": [
        {
          "internalType": "address",
          "name": "account",
          "type": "address"
        },
        {
          "internalType": "uint256",
          "name": "timepoint",
          "type": "uint256"
        }
      ],
      "name": "getPastVotes",
      "outputs": [
        {
          "internalType": "uint256",
          "name": "",
          "type": "uint256"
        }
      ],
      "stateMutability": "view",
      "type": "function"
    },
    {
      "inputs": [
        {
          "internalType": "address",
          "name": "account",
          "type": "address"
        }
      ],
      "name": "getVotes",
      "outputs": [
        {
          "internalType": "uint256",
          "name": "",
          "type": "uint256"
        }
      ],
      "stateMutability": "view",
      "type": "function"
    },
    {
      "inputs": [
        {
          "internalType": "address",
          "name": "account",
          "type": "address"
        },
        {
          "internalType": "uint256",
          "name": "timepoint",
          "type": "uint256"
        }
      ],
      "name": "getVotes",
      "outputs": [
        {
          "internalType": "uint256",
          "name": "",
          "type": "uint256"
        }
      ],
      "stateMutability": "view",
      "type": "function"
    },
    {
      "inputs": [
        {
          "internalType": "address",
          "name": "account",
          "type": "address"
        },
        {
          "internalType": "uint256",
          "name": "timepoint",
          "type": "uint256"
        },
        {
          "internalType": "bytes",
          "name": "params",
          "type": "bytes"
        }
      ],
      "name": "getVotesWithParams",
      "outputs": [
        {
          "internalType": "uint256",
          "name": "",
          "type": "uint256"
        }
      ],
      "stateMutability": "view",
      "type": "function"
    },
    {
      "inputs": [
        {
          "internalType": "uint256",
          "name": "proposalId",
          "type": "uint256"
        },
        {
          "internalType": "address",
          "name": "account",
          "type": "address"
        }
      ],
      "name": "hasVoted",
      "outputs": [
        {
          "internalType": "bool",
          "name": "",
          "type": "bool"
        }
      ],
      "stateMutability": "view",
      "type": "function"
    },
    {
      "inputs": [
        {
          "internalType": "address[]",
          "name": "targets",
          "type": "address[]"
        },
        {
          "internalType": "uint256[]",
          "name": "values",
          "type": "uint256[]"
        },
        {
          "internalType": "bytes[]",
          "name": "calldatas",
          "type": "bytes[]"
        },
        {
          "internalType": "bytes32",
          "name": "descriptionHash",
          "type": "bytes32"
        }
      ],
      "name": "hashProposal",
      "outputs": [
        {
          "internalType": "uint256",
          "name": "",
          "type": "uint256"
        }
      ],
      "stateMutability": "pure",
      "type": "function"
    },
    {
      "inputs": [],
      "name": "initialTokensDistributed",
      "outputs": [
        {
          "internalType": "bool",
          "name": "",
          "type": "bool"
        }
      ],
      "stateMutability": "view",
      "type": "function"
    },
    {
      "inputs": [
        {
          "internalType": "string",
          "name": "_moduleName",
          "type": "string"
        },
        {
          "internalType": "address",
          "name": "_moduleAddress",
          "type": "address"
        }
      ],
      "name": "installModule",
      "outputs": [],
      "stateMutability": "nonpayable",
      "type": "function"
    },
    {
      "inputs": [
        {
          "internalType": "address",
          "name": "",
          "type": "address"
        }
      ],
      "name": "lastWithdrawalBlock",
      "outputs": [
        {
          "internalType": "uint256",
          "name": "",
          "type": "uint256"
        }
      ],
      "stateMutability": "view",
      "type": "function"
    },
    {
      "inputs": [],
      "name": "name",
      "outputs": [
        {
          "internalType": "string",
          "name": "",
          "type": "string"
        }
      ],
      "stateMutability": "view",
      "type": "function"
    },
    {
      "inputs": [
        {
          "internalType": "address",
          "name": "owner",
          "type": "address"
        }
      ],
      "name": "nonces",
      "outputs": [
        {
          "internalType": "uint256",
          "name": "",
          "type": "uint256"
        }
      ],
      "stateMutability": "view",
      "type": "function"
    },
    {
      "inputs": [
        {
          "internalType": "address",
          "name": "account",
          "type": "address"
        }
      ],
      "name": "numCheckpoints",
      "outputs": [
        {
          "internalType": "uint32",
          "name": "",
          "type": "uint32"
        }
      ],
      "stateMutability": "view",
      "type": "function"
    },
    {
      "inputs": [
        {
          "internalType": "address",
          "name": "",
          "type": "address"
        },
        {
          "internalType": "address",
          "name": "",
          "type": "address"
        },
        {
          "internalType": "uint256[]",
          "name": "",
          "type": "uint256[]"
        },
        {
          "internalType": "uint256[]",
          "name": "",
          "type": "uint256[]"
        },
        {
          "internalType": "bytes",
          "name": "",
          "type": "bytes"
        }
      ],
      "name": "onERC1155BatchReceived",
      "outputs": [
        {
          "internalType": "bytes4",
          "name": "",
          "type": "bytes4"
        }
      ],
      "stateMutability": "nonpayable",
      "type": "function"
    },
    {
      "inputs": [
        {
          "internalType": "address",
          "name": "",
          "type": "address"
        },
        {
          "internalType": "address",
          "name": "",
          "type": "address"
        },
        {
          "internalType": "uint256",
          "name": "",
          "type": "uint256"
        },
        {
          "internalType": "uint256",
          "name": "",
          "type": "uint256"
        },
        {
          "internalType": "bytes",
          "name": "",
          "type": "bytes"
        }
      ],
      "name": "onERC1155Received",
      "outputs": [
        {
          "internalType": "bytes4",
          "name": "",
          "type": "bytes4"
        }
      ],
      "stateMutability": "nonpayable",
      "type": "function"
    },
    {
      "inputs": [
        {
          "internalType": "address",
          "name": "",
          "type": "address"
        },
        {
          "internalType": "address",
          "name": "",
          "type": "address"
        },
        {
          "internalType": "uint256",
          "name": "",
          "type": "uint256"
        },
        {
          "internalType": "bytes",
          "name": "",
          "type": "bytes"
        }
      ],
      "name": "onERC721Received",
      "outputs": [
        {
          "internalType": "bytes4",
          "name": "",
          "type": "bytes4"
        }
      ],
      "stateMutability": "nonpayable",
      "type": "function"
    },
    {
      "inputs": [],
      "name": "proposalCounter",
      "outputs": [
        {
          "internalType": "uint256",
          "name": "",
          "type": "uint256"
        }
      ],
      "stateMutability": "view",
      "type": "function"
    },
    {
      "inputs": [
        {
          "internalType": "uint256",
          "name": "proposalId",
          "type": "uint256"
        }
      ],
      "name": "proposalDeadline",
      "outputs": [
        {
          "internalType": "uint256",
          "name": "",
          "type": "uint256"
        }
      ],
      "stateMutability": "view",
      "type": "function"
    },
    {
      "inputs": [
        {
          "internalType": "uint256",
          "name": "proposalId",
          "type": "uint256"
        }
      ],
      "name": "proposalEta",
      "outputs": [
        {
          "internalType": "uint256",
          "name": "",
          "type": "uint256"
        }
      ],
      "stateMutability": "view",
      "type": "function"
    },
    {
      "inputs": [
        {
          "internalType": "uint256",
          "name": "proposalId",
          "type": "uint256"
        }
      ],
      "name": "proposalNeedsQueuing",
      "outputs": [
        {
          "internalType": "bool",
          "name": "",
          "type": "bool"
        }
      ],
      "stateMutability": "view",
      "type": "function"
    },
    {
      "inputs": [
        {
          "internalType": "uint256",
          "name": "proposalId",
          "type": "uint256"
        }
      ],
      "name": "proposalProposer",
      "outputs": [
        {
          "internalType": "address",
          "name": "",
          "type": "address"
        }
      ],
      "stateMutability": "view",
      "type": "function"
    },
    {
      "inputs": [
        {
          "internalType": "uint256",
          "name": "proposalId",
          "type": "uint256"
        }
      ],
      "name": "proposalSnapshot",
      "outputs": [
        {
          "internalType": "uint256",
          "name": "",
          "type": "uint256"
        }
      ],
      "stateMutability": "view",
      "type": "function"
    },
    {
      "inputs": [],
      "name": "proposalThreshold",
      "outputs": [
        {
          "internalType": "uint256",
          "name": "",
          "type": "uint256"
        }
      ],
      "stateMutability": "view",
      "type": "function"
    },
    {
      "inputs": [
        {
          "internalType": "uint256",
          "name": "proposalId",
          "type": "uint256"
        }
      ],
      "name": "proposalVotes",
      "outputs": [
        {
          "internalType": "uint256",
          "name": "againstVotes",
          "type": "uint256"
        },
        {
          "internalType": "uint256",
          "name": "forVotes",
          "type": "uint256"
        },
        {
          "internalType": "uint256",
          "name": "abstainVotes",
          "type": "uint256"
        }
      ],
      "stateMutability": "view",
      "type": "function"
    },
    {
      "inputs": [
        {
          "internalType": "uint256",
          "name": "",
          "type": "uint256"
        }
      ],
      "name": "proposals",
      "outputs": [
        {
          "internalType": "bytes",
          "name": "operation",
          "type": "bytes"
        },
        {
          "internalType": "uint256",
          "name": "timelock",
          "type": "uint256"
        },
        {
          "internalType": "uint256",
          "name": "governanceChain",
          "type": "uint256"
        },
        {
          "internalType": "address",
          "name": "initiator",
          "type": "address"
        },
        {
          "internalType": "bool",
          "name": "executed",
          "type": "bool"
        },
        {
          "internalType": "uint256",
          "name": "quorumRequired",
          "type": "uint256"
        },
        {
          "internalType": "uint256",
          "name": "signaturesCount",
          "type": "uint256"
        }
      ],
      "stateMutability": "view",
      "type": "function"
    },
    {
      "inputs": [
        {
          "internalType": "address[]",
          "name": "targets",
          "type": "address[]"
        },
        {
          "internalType": "uint256[]",
          "name": "values",
          "type": "uint256[]"
        },
        {
          "internalType": "bytes[]",
          "name": "calldatas",
          "type": "bytes[]"
        },
        {
          "internalType": "string",
          "name": "description",
          "type": "string"
        }
      ],
      "name": "propose",
      "outputs": [
        {
          "internalType": "uint256",
          "name": "",
          "type": "uint256"
        }
      ],
      "stateMutability": "nonpayable",
      "type": "function"
    },
    {
      "inputs": [
        {
          "internalType": "address[]",
          "name": "targets",
          "type": "address[]"
        },
        {
          "internalType": "uint256[]",
          "name": "values",
          "type": "uint256[]"
        },
        {
          "internalType": "bytes[]",
          "name": "calldatas",
          "type": "bytes[]"
        },
        {
          "internalType": "bytes32",
          "name": "descriptionHash",
          "type": "bytes32"
        }
      ],
      "name": "queue",
      "outputs": [
        {
          "internalType": "uint256",
          "name": "",
          "type": "uint256"
        }
      ],
      "stateMutability": "nonpayable",
      "type": "function"
    },
    {
      "inputs": [
        {
          "internalType": "uint256",
          "name": "blockNumber",
          "type": "uint256"
        }
      ],
      "name": "quorum",
      "outputs": [
        {
          "internalType": "uint256",
          "name": "",
          "type": "uint256"
        }
      ],
      "stateMutability": "view",
      "type": "function"
    },
    {
      "inputs": [],
      "name": "quorumDenominator",
      "outputs": [
        {
          "internalType": "uint256",
          "name": "",
          "type": "uint256"
        }
      ],
      "stateMutability": "view",
      "type": "function"
    },
    {
      "inputs": [
        {
          "internalType": "uint256",
          "name": "timepoint",
          "type": "uint256"
        }
      ],
      "name": "quorumNumerator",
      "outputs": [
        {
          "internalType": "uint256",
          "name": "",
          "type": "uint256"
        }
      ],
      "stateMutability": "view",
      "type": "function"
    },
    {
      "inputs": [],
      "name": "quorumNumerator",
      "outputs": [
        {
          "internalType": "uint256",
          "name": "",
          "type": "uint256"
        }
      ],
      "stateMutability": "view",
      "type": "function"
    },
    {
      "inputs": [],
      "name": "quorumPercentage",
      "outputs": [
        {
          "internalType": "uint256",
          "name": "",
          "type": "uint256"
        }
      ],
      "stateMutability": "view",
      "type": "function"
    },
    {
      "inputs": [
        {
          "internalType": "address",
          "name": "target",
          "type": "address"
        },
        {
          "internalType": "uint256",
          "name": "value",
          "type": "uint256"
        },
        {
          "internalType": "bytes",
          "name": "data",
          "type": "bytes"
        }
      ],
      "name": "relay",
      "outputs": [],
      "stateMutability": "payable",
      "type": "function"
    },
    {
      "inputs": [
        {
          "internalType": "uint256",
          "name": "newProposalThreshold",
          "type": "uint256"
        }
      ],
      "name": "setProposalThreshold",
      "outputs": [],
      "stateMutability": "nonpayable",
      "type": "function"
    },
    {
      "inputs": [
        {
          "internalType": "uint48",
          "name": "newVotingDelay",
          "type": "uint48"
        }
      ],
      "name": "setVotingDelay",
      "outputs": [],
      "stateMutability": "nonpayable",
      "type": "function"
    },
    {
      "inputs": [
        {
          "internalType": "uint32",
          "name": "newVotingPeriod",
          "type": "uint32"
        }
      ],
      "name": "setVotingPeriod",
      "outputs": [],
      "stateMutability": "nonpayable",
      "type": "function"
    },
    {
      "inputs": [
        {
          "internalType": "uint256",
          "name": "_proposalId",
          "type": "uint256"
        }
      ],
      "name": "signProposal",
      "outputs": [],
      "stateMutability": "nonpayable",
      "type": "function"
    },
    {
      "inputs": [
        {
          "internalType": "uint256",
          "name": "_proposalId",
          "type": "uint256"
        }
      ],
      "name": "signTokenDistributionProposal",
      "outputs": [],
      "stateMutability": "nonpayable",
      "type": "function"
    },
    {
      "inputs": [
        {
          "internalType": "uint256",
          "name": "_proposalId",
          "type": "uint256"
        }
      ],
      "name": "signTreasuryProposal",
      "outputs": [],
      "stateMutability": "nonpayable",
      "type": "function"
    },
    {
      "inputs": [
        {
          "internalType": "uint256",
          "name": "proposalId",
          "type": "uint256"
        }
      ],
      "name": "state",
      "outputs": [
        {
          "internalType": "enum IGovernor.ProposalState",
          "name": "",
          "type": "uint8"
        }
      ],
      "stateMutability": "view",
      "type": "function"
    },
    {
      "inputs": [
        {
          "internalType": "bytes4",
          "name": "interfaceId",
          "type": "bytes4"
        }
      ],
      "name": "supportsInterface",
      "outputs": [
        {
          "internalType": "bool",
          "name": "",
          "type": "bool"
        }
      ],
      "stateMutability": "view",
      "type": "function"
    },
    {
      "inputs": [],
      "name": "symbol",
      "outputs": [
        {
          "internalType": "string",
          "name": "",
          "type": "string"
        }
      ],
      "stateMutability": "view",
      "type": "function"
    },
    {
      "inputs": [],
      "name": "timelock",
      "outputs": [
        {
          "internalType": "address",
          "name": "",
          "type": "address"
        }
      ],
      "stateMutability": "view",
      "type": "function"
    },
    {
      "inputs": [],
      "name": "token",
      "outputs": [
        {
          "internalType": "contract IERC5805",
          "name": "",
          "type": "address"
        }
      ],
      "stateMutability": "view",
      "type": "function"
    },
    {
      "inputs": [],
      "name": "tokenDistributionProposalCounter",
      "outputs": [
        {
          "internalType": "uint256",
          "name": "",
          "type": "uint256"
        }
      ],
      "stateMutability": "view",
      "type": "function"
    },
    {
      "inputs": [
        {
          "internalType": "uint256",
          "name": "",
          "type": "uint256"
        }
      ],
      "name": "tokenDistributionProposals",
      "outputs": [
        {
          "internalType": "uint256",
          "name": "timelock",
          "type": "uint256"
        },
        {
          "internalType": "address",
          "name": "initiator",
          "type": "address"
        },
        {
          "internalType": "bool",
          "name": "executed",
          "type": "bool"
        },
        {
          "internalType": "uint256",
          "name": "quorumRequired",
          "type": "uint256"
        },
        {
          "internalType": "uint256",
          "name": "signaturesCount",
          "type": "uint256"
        },
        {
          "internalType": "string",
          "name": "description",
          "type": "string"
        }
      ],
      "stateMutability": "view",
      "type": "function"
    },
    {
      "inputs": [],
      "name": "totalSupply",
      "outputs": [
        {
          "internalType": "uint256",
          "name": "",
          "type": "uint256"
        }
      ],
      "stateMutability": "view",
      "type": "function"
    },
    {
      "inputs": [],
      "name": "totalTreasuryBalance",
      "outputs": [
        {
          "internalType": "uint256",
          "name": "",
          "type": "uint256"
        }
      ],
      "stateMutability": "view",
      "type": "function"
    },
    {
      "inputs": [
        {
          "internalType": "address",
          "name": "to",
          "type": "address"
        },
        {
          "internalType": "uint256",
          "name": "value",
          "type": "uint256"
        }
      ],
      "name": "transfer",
      "outputs": [
        {
          "internalType": "bool",
          "name": "",
          "type": "bool"
        }
      ],
      "stateMutability": "nonpayable",
      "type": "function"
    },
    {
      "inputs": [
        {
          "internalType": "address",
          "name": "from",
          "type": "address"
        },
        {
          "internalType": "address",
          "name": "to",
          "type": "address"
        },
        {
          "internalType": "uint256",
          "name": "value",
          "type": "uint256"
        }
      ],
      "name": "transferFrom",
      "outputs": [
        {
          "internalType": "bool",
          "name": "",
          "type": "bool"
        }
      ],
      "stateMutability": "nonpayable",
      "type": "function"
    },
    {
      "inputs": [],
      "name": "treasuryProposalCounter",
      "outputs": [
        {
          "internalType": "uint256",
          "name": "",
          "type": "uint256"
        }
      ],
      "stateMutability": "view",
      "type": "function"
    },
    {
      "inputs": [
        {
          "internalType": "uint256",
          "name": "",
          "type": "uint256"
        }
      ],
      "name": "treasuryProposals",
      "outputs": [
        {
          "internalType": "address",
          "name": "recipient",
          "type": "address"
        },
        {
          "internalType": "uint256",
          "name": "amount",
          "type": "uint256"
        },
        {
          "internalType": "uint256",
          "name": "timelock",
          "type": "uint256"
        },
        {
          "internalType": "address",
          "name": "initiator",
          "type": "address"
        },
        {
          "internalType": "bool",
          "name": "executed",
          "type": "bool"
        },
        {
          "internalType": "uint256",
          "name": "quorumRequired",
          "type": "uint256"
        },
        {
          "internalType": "uint256",
          "name": "signaturesCount",
          "type": "uint256"
        },
        {
          "internalType": "string",
          "name": "description",
          "type": "string"
        }
      ],
      "stateMutability": "view",
      "type": "function"
    },
    {
      "inputs": [
        {
          "internalType": "uint256",
          "name": "newQuorumNumerator",
          "type": "uint256"
        }
      ],
      "name": "updateQuorumNumerator",
      "outputs": [],
      "stateMutability": "nonpayable",
      "type": "function"
    },
    {
      "inputs": [
        {
          "internalType": "contract TimelockController",
          "name": "newTimelock",
          "type": "address"
        }
      ],
      "name": "updateTimelock",
      "outputs": [],
      "stateMutability": "nonpayable",
      "type": "function"
    },
    {
      "inputs": [],
      "name": "version",
      "outputs": [
        {
          "internalType": "string",
          "name": "",
          "type": "string"
        }
      ],
      "stateMutability": "view",
      "type": "function"
    },
    {
      "inputs": [],
      "name": "votingDelay",
      "outputs": [
        {
          "internalType": "uint256",
          "name": "",
          "type": "uint256"
        }
      ],
      "stateMutability": "view",
      "type": "function"
    },
    {
      "inputs": [],
      "name": "votingPeriod",
      "outputs": [
        {
          "internalType": "uint256",
          "name": "",
          "type": "uint256"
        }
      ],
      "stateMutability": "view",
      "type": "function"
    },
    {
      "stateMutability": "payable",
      "type": "receive"
    }
  ],
  "bytecode": "0x610180604052346200009f57620000206200001962000387565b906200132d565b604051616d099081620023ba823960805181614d74015260a05181614e29015260c05181614d3e015260e05181614dc301526101005181614de90152610120518161263601526101405181612662015261016051818181612a690152818161378a0152818161382a01528181613a5c015281816143e501526169da0152f35b600080fd5b634e487b7160e01b600052604160045260246000fd5b604081019081106001600160401b03821117620000d657604052565b620000a4565b601f909101601f19168101906001600160401b03821190821017620000d657604052565b604051906101c082016001600160401b03811183821017620000d657604052565b6040519061014082016001600160401b03811183821017620000d657604052565b604051906200015182620000ba565b565b60005b838110620001675750506000910152565b818101518382015260200162000156565b81601f820112156200009f5780516001600160401b038111620000d65760405192620001af601f8301601f191660200185620000dc565b818452602082840101116200009f57620001d0916020808501910162000153565b90565b6001600160401b038111620000d65760051b60200190565b9080601f830112156200009f578151906200020682620001d3565b92620002166040519485620000dc565b828452602092838086019160051b830101928084116200009f57848301915b848310620002465750505050505090565b82516001600160401b0381116200009f5786916200026a8484809489010162000178565b81520192019162000235565b519065ffffffffffff821682036200009f57565b519063ffffffff821682036200009f57565b51906001600160a01b03821682036200009f57565b81601f820112156200009f57805191620002cb83620001d3565b92620002db6040519485620000dc565b808452602092838086019260051b8201019283116200009f578301905b82821062000307575050505090565b83809162000315846200029c565b815201910190620002f8565b81601f820112156200009f578051916200033b83620001d3565b926200034b6040519485620000dc565b808452602092838086019260051b8201019283116200009f578301905b82821062000377575050505090565b8151815290830190830162000368565b62009163908138038060405193620003a08286620000dc565b843982016040838203126200009f5782516001600160401b03908181116200009f578401936101c0858403126200009f57620003db62000100565b9480518381116200009f5784620003f491830162000178565b865260208101518381116200009f57846200041191830162000178565b602087015260408101518381116200009f57846200043191830162000178565b604087015260608101518381116200009f57846200045191830162000178565b60608701526080810151608087015260a081015160a087015260c08101518381116200009f578462000485918301620001eb565b60c087015260e081015160e0870152610100620004a481830162000276565b90870152610120620004b88183016200028a565b9087015261014080820151908701526101608082015190870152610180808201518481116200009f5785620004ef918401620002b1565b908701526101a090818101519384116200009f57620001d09460209462000517920162000321565b90860152016200029c565b90600182811c9216801562000554575b60208310146200053e57565b634e487b7160e01b600052602260045260246000fd5b91607f169162000532565b8181106200056b575050565b600081556001016200055f565b90601f821162000586575050565b620001519160036000526020600020906020601f840160051c83019310620005b7575b601f0160051c01906200055f565b9091508190620005a9565b90601f8211620005d0575050565b620001519160046000526020600020906020601f840160051c83019310620005b757601f0160051c01906200055f565b90601f82116200060e575050565b6200015191600b6000526020600020906020601f840160051c83019310620005b757601f0160051c01906200055f565b90601f82116200064c575050565b620001519160056000526020600020906020601f840160051c83019310620005b757601f0160051c01906200055f565b90601f82116200068a575050565b620001519160066000526020600020906020601f840160051c83019310620005b757601f0160051c01906200055f565b90601f8211620006c8575050565b620001519160166000526020600020906020601f840160051c83019310620005b757601f0160051c01906200055f565b90601f821162000706575050565b620001519160176000526020600020906020601f840160051c83019310620005b757601f0160051c01906200055f565b90601f821162000744575050565b620001519160186000526020600020906020601f840160051c83019310620005b757601f0160051c01906200055f565b90601f821162000782575050565b620001519160156000526020600020906020601f840160051c83019310620005b757601f0160051c01906200055f565b9190601f8111620007c257505050565b62000151926000526020600020906020601f840160051c83019310620005b757601f0160051c01906200055f565b80519091906001600160401b038111620000d6576200081c816200081660045462000522565b620005c2565b602080601f83116001146200085b57508192936000926200084f575b50508160011b916000199060031b1c191617600455565b01519050388062000838565b6004600052601f198316949091907f8a35acfbc15ff81a39ae7d344fd709f28e8600b4aa8c65c6b64bfe7fe36bd19b926000905b878210620008ca575050836001959610620008b0575b505050811b01600455565b015160001960f88460031b161c19169055388080620008a5565b806001859682949686015181550195019301906200088f565b80519091906001600160401b038111620000d6576200090f8162000909600b5462000522565b62000600565b602080601f83116001146200094e575081929360009262000942575b50508160011b916000199060031b1c191617600b55565b0151905038806200092b565b600b600052601f198316949091907f0175b7a638427703f0dbe7bb9bbf987a2551717b34e79f33b5b1008d1fa01db9926000905b878210620009bd575050836001959610620009a3575b505050811b01600b55565b015160001960f88460031b161c1916905538808062000998565b8060018596829496860151815501950193019062000982565b80519091906001600160401b038111620000d65762000a0281620009fc60165462000522565b620006ba565b602080601f831160011462000a41575081929360009262000a35575b50508160011b916000199060031b1c191617601655565b01519050388062000a1e565b6016600052601f198316949091907fd833147d7dc355ba459fc788f669e58cfaf9dc25ddcd0702e87d69c7b5124289926000905b87821062000ab057505083600195961062000a96575b505050811b01601655565b015160001960f88460031b161c1916905538808062000a8b565b8060018596829496860151815501950193019062000a75565b80519091906001600160401b038111620000d65762000af58162000aef60175462000522565b620006f8565b602080601f831160011462000b34575081929360009262000b28575b50508160011b916000199060031b1c191617601755565b01519050388062000b11565b6017600052601f198316949091907fc624b66cc0138b8fabc209247f72d758e1cf3343756d543badbf24212bed8c15926000905b87821062000ba357505083600195961062000b89575b505050811b01601755565b015160001960f88460031b161c1916905538808062000b7e565b8060018596829496860151815501950193019062000b68565b80519091906001600160401b038111620000d65762000be88162000be260185462000522565b62000736565b602080601f831160011462000c27575081929360009262000c1b575b50508160011b916000199060031b1c191617601855565b01519050388062000c04565b6018600052601f198316949091907fb13d2d76d1f4b7be834882e410b3e3a8afaf69f83600ae24db354391d2378d2e926000905b87821062000c9657505083600195961062000c7c575b505050811b01601855565b015160001960f88460031b161c1916905538808062000c71565b8060018596829496860151815501950193019062000c5b565b81519192916001600160401b038111620000d65762000cdb8162000cd4845462000522565b84620007b2565b602080601f831160011462000d1a57508192939460009262000d0e575b50508160011b916000199060031b1c1916179055565b01519050388062000cf8565b90601f1983169562000d3185600052602060002090565b926000905b88821062000d715750508360019596971062000d57575b505050811b019055565b015160001960f88460031b161c1916905538808062000d4d565b8060018596829496860151815501950193019062000d36565b634e487b7160e01b600052601160045260246000fd5b805190680100000000000000008211620000d657601b5482601b5580831062000e12575b50601b600052602090810190600080516020620091038339815191526000925b84841062000df3575050505050565b6001838262000e058394518662000caf565b0192019301929062000de4565b601b6000908152600080516020620091038339815191529182019184015b82811062000e4057505062000dc4565b8062000e4f6001925462000522565b8062000e5e575b500162000e30565b601f90818111841462000e785750508281555b3862000e56565b8362000e9d9262000e8e85600052602060002090565b920160051c820191016200055f565b6000818152602081208183555562000e71565b805180516001600160401b038111620000d65762000edb8162000ed560155462000522565b62000774565b6020918290601f831160011462000f9c5762000f7e93836101209462000151979462000f299460009262000f90575b50508160011b916000199060031b1c1916176015555b820151620009d6565b62000f38604082015162000ac9565b62000f47606082015162000bbc565b608081015160195560a0810151601a5562000f6660c082015162000da0565b60e0810151601c55610100810151601d550151151590565b60ff8019601e54169115151617601e55565b01519050388062000f0a565b6015600052601f19831691907f55f448fdea98c4d29eb340757ef0a66cd03dbb9538908a6a81d96026b71ec4759260005b8181106200101f57508462000151979462000f299462000f7e9894610120986001951062001005575b505050811b0160155562000f20565b015160001960f88460031b161c1916905538808062000ff6565b92938660018192878601518155019501930162000fcd565b156200103f57565b60405162461bcd60e51b815260206004820152601660248201527f417272617973206c656e677468206d69736d61746368000000000000000000006044820152606490fd5b156200108c57565b60405162461bcd60e51b815260206004820152601360248201527f4e6f20696e697469616c20706172746e657273000000000000000000000000006044820152606490fd5b6000198114620010e15760010190565b62000d8a565b634e487b7160e01b600052603260045260246000fd5b8051821015620011125760209160051b010190565b620010e7565b156200112057565b60405162461bcd60e51b815260206004820152600c60248201526b5a65726f206164647265737360a01b6044820152606490fd5b156200115c57565b60405162461bcd60e51b815260206004820152600b60248201526a16995c9bc8185b5bdd5b9d60aa1b6044820152606490fd5b6040810190604081528251809252606081019160208094019060005b818110620011f0575050508281830391015281808451928381520193019160005b828110620011db575050505090565b835185529381019392810192600101620011cc565b82516001600160a01b031685529385019391850191600101620011ab565b90602091620012298151809281855285808601910162000153565b601f01601f1916010190565b98969592620012829062001273620012629a9e9d9c9a620012919597948d6101609081815201906200120e565b6020978d898184039101526200120e565b908b820360408d01526200120e565b9089820360608b01526200120e565b92608088015260a087015285820360c08701528251908183528083019281808460051b8301019501936000915b848310620012fc57505050505060e08501979097526001600160a01b0391821661010085015291811661012084015292909216610140909101529150565b90919293949584806200131c600193601f198682030187528a516200120e565b9801930193019194939290620012be565b90916200137f6101608301516200134e61010085015165ffffffffffff1690565b61012085015163ffffffff166101408601518651602088015194909384939130906001600160a01b038c1662001591565b6200138f60ff1960265416602655565b620014008251602084015160408501516060860151608087015160a08801519160c08901519360e08a015195620013c562000121565b978852602088015260408701526060860152608085015260a084015260c083015260e082015242610100820152600161012082015262000eb0565b6200140f610160830151602555565b610180820192835151916200142d6101a08501938451511462001037565b6200143c855151151562001084565b60005b85518051821015620014d957906200148962001481620014756200146884620014d396620010fd565b516001600160a01b031690565b6001600160a01b031690565b151562001118565b620014a36200149a828751620010fd565b51151562001154565b620014cd620014b862001468838a51620010fd565b620014c5838851620010fd565b519062001994565b620010d1565b6200143f565b5050937f5cc2d55798cee8f02a1864e506ff754519b7fbe25d3bd5258441c00b83b7bb0493927ff9e7aa11bcdcbb8ac33b5dba92fca799ef091e54c29270822065501d8edea1a59162001534600160ff196026541617602655565b5190519062001549604051928392836200118f565b0390a16200158c82519160208401519060408501519360608601519560808101519060a081015160e060c083015192015192604051998a99309830978c62001235565b0390a1565b969897959095949392919460405190620015ab82620000ba565b6001808352603160f81b60208401528b51906001600160401b038211620000d657620015e482620015de60035462000522565b62000578565b60209c601f8311600114620016c55794620016a0979462001640620001519e9f958580620016b39f9e9d9b976200168e97620016949a6200169a9d600094620016b9575b50501b916000199060031b1c191617600355620007f0565b6200164b8262001a62565b610120526200165a8162001b72565b610140528151602083012060e05260208151910120610100524660a0526200168162001cd7565b6080523060c052620008e3565b62001779565b620017c7565b6200184b565b6001600160a01b031661016052620018d3565b62001884565b01519250388062001628565b6003600052929c9092907fc2575a0e9e593c00f959f8c92f12db2869c3395a3b0502d05e2516446f71f85b9160005b601f19851681106200176257509462001640620001519e9f620016949686620016b39f9e9d9b97966200169a9b96620016a09e9b6200168e99601f1981161062001748575b505050811b01600355620007f0565b015160001960f88460031b161c1916905538808062001739565b8183015184559285019260209283019201620016f4565b6010547fc565b045403dc03c2eea82b81a0465edad9e2e7fc4d97e11421c209da93d7a93604080519365ffffffffffff9081851686521693846020820152a165ffffffffffff191617601055565b63ffffffff80821691821562001832577f7e3f7f0708a84de9203036abaa450dccc85ad5ff52f78c170f3edb55cf5e8828604069ffffffff00000000000093601054958251918760301c1682526020820152a160301b169069ffffffff000000000000191617601055565b60405163f1cfbf0560e01b815260006004820152602490fd5b600f5460408051918252602082018390527fccb45da8d5717e6c4544694297c4ba5cf151d455c9bb0ed4fc7a38411bc0546191a1600f55565b6013547f08f74ea46ef7894f65eabfb5e6e695de773a000b47c529ab559178069b226401604060018060a01b038094169381519084168152846020820152a16001600160a01b03191617601355565b606481116200197557601254600091908062001943575060008051602062009123833981519152915060005b6200191d6200190e8362001d43565b65ffffffffffff431662001f0f565b5050604080516001600160d01b039092168252602082019290925290819081016200158c565b600019908082810111620010e15760208460126000805160206200912383398151915296522001015460301c620018ff565b6044906040519063243e544560e01b8252600482015260646024820152fd5b91906001600160a01b038316801562001a4957600254828101809111620010e1576002556001600160a01b038416600090815260208181526040808320805486019055518481527fddf252ad1be2c89b69c2b068fc378daa952ba7f163c4a11628f55a4df523b3ef9190a3600254926001600160d01b03841162001a1f5762000151929350620021a1565b604051630e58ae9360e11b8152600481018590526001600160d01b036024820152604490fd5b0390fd5b60405163ec442f0560e01b815260006004820152602490fd5b908151602080821060001462001a8057505090620001d09062001c82565b6001600160401b038211620000d65762001aa78262001aa160055462000522565b6200063e565b80601f831160011462001ae7575081929360009262001adb575b50508160011b916000199060031b1c19161760055560ff90565b01519050388062001ac1565b6005600052601f198316949091907f036b6384b5eca791c62761152d0c79bb0604c104a5fb6f4eb0703f3154bb3db0926000905b87821062001b5957505083600195961062001b3f575b505050811b0160055560ff90565b015160001960f88460031b161c1916905538808062001b31565b8060018596829496860151815501950193019062001b1b565b908151602080821060001462001b9057505090620001d09062001c82565b6001600160401b038211620000d65762001bb78262001bb160065462000522565b6200067c565b80601f831160011462001bf7575081929360009262001beb575b50508160011b916000199060031b1c19161760065560ff90565b01519050388062001bd1565b6006600052601f198316949091907ff652222313e28459528d920b65115c16c04f3efc82aaedc97be59f3f377c0d3f926000905b87821062001c6957505083600195961062001c4f575b505050811b0160065560ff90565b015160001960f88460031b161c1916905538808062001c41565b8060018596829496860151815501950193019062001c2b565b601f81511162001cb057602081519101516020821062001ca0571790565b6000198260200360031b1b161790565b60405163305a27a960e01b81526020600482015290819062001a459060248301906200120e565b60e051610100516040519060208201927f8b73c3c69bb8fe3d512ecc4cf759cc79239f7b179b0ffacaa9a75d522b39400f8452604083015260608201524660808201523060a082015260a0815260c0810181811060018060401b03821117620000d65760405251902090565b6001600160d01b039081811162001d58571690565b604490604051906306dfcc6560e41b825260d060048301526024820152fd5b600019810191908211620010e157565b600a546000908062001d9a575050600090565b600019918183810111620010e157600a905201600080516020620090e3833981519152015460301c90565b80546000918162001dd857505050600090565b600019928284810111620010e15760209181522001015460301c90565b6012549068010000000000000000821015620000d65760018201806012558210156200111257601260005280516020919091015160301b65ffffffffffff191665ffffffffffff9190911617600080516020620090c383398151915290910155565b600a549068010000000000000000821015620000d6576001820180600a558210156200111257600a60005280516020919091015160301b65ffffffffffff191665ffffffffffff9190911617600080516020620090e383398151915290910155565b90815468010000000000000000811015620000d65760018101808455811015620011125760009283526020928390208251929093015160301b65ffffffffffff191665ffffffffffff9290921691909117910155565b601254919291801562001fdc5762001f2b62001f449162001d77565b6012600052600080516020620090c38339815191520190565b9081549165ffffffffffff9081841691831680831162001fca5786920362001f8c5762001f8592509065ffffffffffff82549181199060301b169116179055565b60301c9190565b505062001fc49062001faf62001fa162000142565b65ffffffffffff9092168252565b6001600160d01b038516602082015262001df5565b62001f85565b604051632520601d60e01b8152600490fd5b50620020059062001ff062001fa162000142565b6001600160d01b038416602082015262001df5565b60009190565b600a549192918015620020ab5762002027620020409162001d77565b600a600052600080516020620090e38339815191520190565b9081549165ffffffffffff9081841691831680831162001fca57869203620020815762001f8592509065ffffffffffff82549181199060301b169116179055565b505062001fc4906200209662001fa162000142565b6001600160d01b038516602082015262001e57565b506200200590620020bf62001fa162000142565b6001600160d01b038416602082015262001e57565b805492939280156200217757620020ef620020fc9162001d77565b8260005260206000200190565b9182549265ffffffffffff9182851692811680841162001fca578793036200213e575062001f8592509065ffffffffffff82549181199060301b169116179055565b91505062001fc491620021626200215462000142565b65ffffffffffff9093168352565b6001600160d01b038616602083015262001eb9565b509062002005916200218c6200215462000142565b6001600160d01b038516602083015262001eb9565b90620021ad8162001d43565b4365ffffffffffff16926001600160d01b03918280620021cc62001d87565b16911601828111620010e157620021e490856200200b565b50506001600160a01b0390811690811562002345575b60086020527f5eff886ea0ce6ca488a3d6e336d6c0f75f46d19b42c06ce5ee98e42c96d256c754600092835260409092205481169491169084821415806200233b575b6200224a575b5050505050565b81620022cf575b50508262002262575b808062002243565b620022c3620022aa6000805160206200914383398151915293620022a36200229c8760018060a01b03166000526009602052604060002090565b9162001d43565b906200237d565b6040805192851683529316602082015291829190820190565b0390a23880806200225a565b6001600160a01b038216600090815260096020526040902090620022f38562001d43565b8480620023008562001dc5565b169116900390848211620010e157620022aa859262002330926000805160206200914383398151915295620020d4565b0390a2388062002251565b508315156200223d565b620023508462001d43565b83806200235c62001d87565b1691169003838111620010e1576200237590866200200b565b5050620021fa565b906001600160d01b03908180620023948562001dc5565b16911601908111620010e157620023b59165ffffffffffff431690620020d4565b909156fe60806040526004361015610023575b361561001957600080fd5b610021613877565b005b60003560e01c80627e637e14610582578063013cf08b1461057d57806301ffc9a71461057857806302a251a31461057357806306f3f9e61461056e57806306fdde0314610569578063095ea7b3146105645780630965211e1461055f5780630c0512e91461055a5780630eb1259614610555578063108b4e0714610550578063143489d01461054b578063150b7a0214610546578063160cbed71461054157806318160ddd1461053c578063194a94fc146105375780631b470faf146105325780631c0f4d8d1461052d57806323b872dd146105285780632656227d146105235780632d63f6931461051e5780632fe3e26114610519578063313ce5671461051457806335c4364f1461050f5780633932abb11461050a5780633a46b1a8146105055780633e4f49e61461050057806343859632146104fb578063452115d6146104f65780634bf5d7e9146104f15780634fa76ec9146104ec578063544ffc9c146104e757806354fd4d50146104e257806356781388146104dd578063587cde1e146104d85780635b8d0e0d146104d35780635c19a95c146104ce5780635f398a14146104c957806360c4247f146104c45780636fcfff45146104bf57806370a08231146104ba57806379051887146104b55780637b3c71d3146104b05780637d5e81e2146104ab5780637e63b733146104a65780637ecebe00146104a1578063823081581461049c57806384b0196e146104975780638e539e8c146104925780638ff262e31461048d57806391ddadf41461048857806395d89b411461048357806396e973fb1461047e57806397c3d334146104795780639a802a6d146104745780639ab24eb01461046f5780639be65b401461046a578063a7713a7014610465578063a890c91014610460578063a9059cbb1461045b578063a9a9529414610456578063ab27301614610451578063ab58fb8e1461044c578063b493193614610447578063b58131b014610442578063bc197c811461043d578063c01f9e3714610438578063c0e58a0e14610433578063c28bc2fa1461042e578063c3cda52014610429578063c59057e414610424578063d1fad4cd1461041f578063d33219b41461041a578063dd4e2ba514610415578063dd62ed3e14610410578063deaaa7cc1461040b578063e540d01d14610406578063eb9019d414610401578063ec4a59d9146103fc578063ece40cc1146103f7578063f1127ed8146103f2578063f23a6e61146103ed578063f2c26a47146103e8578063f8ce560a146103e3578063fc0c546a146103de5763fd5c4be70361000e57613859565b613814565b61375a565b61362a565b613550565b613499565b613444565b613426565b6133c4565b61331d565b6132cf565b61326c565b61320e565b6131e5565b6130b4565b613098565b612fcb565b612f5f565b612e93565b612e75565b612dd5565b612db7565b612d90565b612d59565b612c2c565b612c10565b612bdb565b612b67565b612b44565b612b26565b612ad4565b6129f1565b6129d5565b612998565b6128f1565b6128ce565b6127b6565b6126e7565b61261d565b612577565b612502565b6123d6565b61234e565b6122f9565b612288565b61224b565b612200565b6121e2565b612173565b61214d565b6120c5565b612059565b612009565b611fa7565b611f5a565b611f3c565b611ede565b611e20565b611dc7565b611d9a565b611c7c565b611c56565b611c0c565b611bf0565b611bb5565b611b7e565b611a29565b611970565b6117cb565b611671565b6115e8565b6115ca565b611380565b611221565b6111ed565b61106c565b610e75565b610bc5565b610ba2565b610ad4565b6109de565b61091e565b6108f7565b61087e565b6107ea565b346105ee5760203660031901126105ee576100216004358060005260216020526040600020600160058201916105e28354916105c160ff841615615e15565b6105d1600282015442101561629d565b600660078201549101541115615fa3565b60ff191617905561654d565b600080fd5b90600182811c92168015610623575b602083101461060d57565b634e487b7160e01b600052602260045260246000fd5b91607f1691610602565b634e487b7160e01b600052604160045260246000fd5b6001600160401b03811161065657604052565b61062d565b604081019081106001600160401b0382111761065657604052565b602081019081106001600160401b0382111761065657604052565b60c081019081106001600160401b0382111761065657604052565b60a081019081106001600160401b0382111761065657604052565b61010081019081106001600160401b0382111761065657604052565b90601f801991011681019081106001600160401b0382111761065657604052565b9060405191826000825492610718846105f3565b9081845260019485811690816000146107875750600114610744575b5050610742925003836106e3565b565b9093915060005260209081600020936000915b81831061076f57505061074293508201013880610734565b85548884018501529485019487945091830191610757565b91505061074294506020925060ff191682840152151560051b8201013880610734565b919082519283825260005b8481106107d6575050826000602080949584010152601f8019910116010190565b6020818301810151848301820152016107b5565b346105ee5760203660031901126105ee57600435600052601f602052610859604060002061081781610704565b9060028101549060038101549060018060a01b0360048201541660ff60068301541690600860078401549301549360405197889760e0895260e08901906107aa565b956020880152604087015260608601521515608085015260a084015260c08301520390f35b346105ee5760203660031901126105ee5760043563ffffffff60e01b81168091036105ee576020906332a2ad4360e11b81149081156108db575b81156108ca575b506040519015158152f35b6301ffc9a760e01b149050386108bf565b630271189760e51b811491506108b8565b60009103126105ee57565b346105ee5760003660031901126105ee57602063ffffffff60105460301c16604051908152f35b346105ee5760203660031901126105ee5760043561093a614111565b606481116109ab577f0553476bf02ef2726e8ce5ced78d63e26e602e4a2257b1f559418e24b4633997906001600160d01b036109746152c0565b1661098f610981836150e0565b65ffffffffffff43166154c4565b505060408051918252602082019290925290819081015b0390a1005b6044906040519063243e544560e01b8252600482015260646024820152fd5b9060206109db9281815201906107aa565b90565b346105ee57600080600319360112610ac0576040519080600b54610a01816105f3565b80855291600191808316908115610a965750600114610a3b575b610a3785610a2b818703826106e3565b604051918291826109ca565b0390f35b9250600b83527f0175b7a638427703f0dbe7bb9bbf987a2551717b34e79f33b5b1008d1fa01db95b828410610a7e575050508101602001610a2b82610a37610a1b565b80546020858701810191909152909301928101610a63565b869550610a3796935060209250610a2b94915060ff191682840152151560051b8201019293610a1b565b80fd5b6001600160a01b038116036105ee57565b346105ee5760403660031901126105ee57600435610af181610ac3565b6024353315610b89576001600160a01b038216918215610b70573360009081526001602052604090208291610b38915b9060018060a01b0316600052602052604060002090565b556040519081527f8c5be1e5ebec7d5bd14f71427d1e84f3dd0314c0f7b2291e5b200ac8c7c3b92560203392a3602060405160018152f35b604051634a1406b160e11b815260006004820152602490fd5b60405163e602df0560e01b815260006004820152602490fd5b346105ee5760003660031901126105ee57602060ff602654166040519015158152f35b346105ee5760003660031901126105ee576020602254604051908152f35b60165460009291610bf3826105f3565b80825291600190818116908115610c6a5750600114610c1157505050565b9192935060166000527fd833147d7dc355ba459fc788f669e58cfaf9dc25ddcd0702e87d69c7b5124289916000925b848410610c5257505060209250010190565b80546020858501810191909152909301928101610c40565b915050602093945060ff929192191683830152151560051b010190565b60175460009291610c97826105f3565b80825291600190818116908115610c6a5750600114610cb557505050565b9192935060176000527fc624b66cc0138b8fabc209247f72d758e1cf3343756d543badbf24212bed8c15916000925b848410610cf657505060209250010190565b80546020858501810191909152909301928101610ce4565b60185460009291610d1e826105f3565b80825291600190818116908115610c6a5750600114610d3c57505050565b9192935060186000527fb13d2d76d1f4b7be834882e410b3e3a8afaf69f83600ae24db354391d2378d2e916000925b848410610d7d57505060209250010190565b80546020858501810191909152909301928101610d6b565b9060009291805491610da6836105f3565b918282526001938481169081600014610e085750600114610dc8575b50505050565b90919394506000526020928360002092846000945b838610610df4575050505001019038808080610dc2565b805485870183015294019385908201610ddd565b9294505050602093945060ff191683830152151560051b01019038808080610dc2565b95939091926109db9897959360018060a01b038094168852602088015260408701521660608501521515608084015260a083015260c0820152610100908160e082015201906107aa565b346105ee5760203660031901126105ee576004356000526021602052604060002060018060a01b0390610a376008838354169260018101549460028201549060038301541660ff60058401541690600684015492610ee9600786015495610ee26040518099819301610d95565b03876106e3565b60405198899889610e2b565b6040519061012082018281106001600160401b0382111761065657604052565b604051906107428261065b565b6001600160401b0381116106565760051b60200190565b81601f820112156105ee57803591610f5083610f22565b92610f5e60405194856106e3565b808452602092838086019260051b8201019283116105ee578301905b828210610f88575050505090565b8380918335610f9681610ac3565b815201910190610f7a565b81601f820112156105ee57803591610fb883610f22565b92610fc660405194856106e3565b808452602092838086019260051b8201019283116105ee578301905b828210610ff0575050505090565b81358152908301908301610fe2565b6001600160401b03811161065657601f01601f191660200190565b92919261102682610fff565b9161103460405193846106e3565b8294818452818301116105ee578281602093846000960137010152565b9080601f830112156105ee578160206109db9335910161101a565b346105ee5760803660031901126105ee576001600160401b036004358181116105ee5761109d903690600401610f39565b906024358181116105ee576110b6903690600401610fa1565b90604435916064359182116105ee57610a37936111da6110fb7f8fd808cdcd18f44b7f33c61fb97b83154c1d653ef4a9a2d236b290644edd6c83943690600401611051565b6111088351855114615906565b6111148351151561594b565b61111f428711615986565b33600090815260208190526040902061113b905b5415156159c5565b6111cc6023549661115361114e89613e12565b602355565b61115b615a1d565b61117461116d60025460255490614a1a565b6064900490565b9061117d610ef5565b8781526020810189905260408101939093523360608401526080830152600060a083015260c0820152600060e0820152826101008201526111c78860005260208052604060002090565b615d20565b604051938493338886615dd8565b0390a16040519081529081906020820190565b346105ee5760203660031901126105ee57600435600052600c602052602060018060a01b0360406000205416604051908152f35b346105ee5760803660031901126105ee5761123d600435610ac3565b611248602435610ac3565b6064356001600160401b0381116105ee57611267903690600401611051565b506013546001600160a01b0316300361128c57604051630a85bd0160e11b8152602090f35b604051637485328f60e11b8152600490fd5b9080601f830112156105ee578135906112b682610f22565b926112c460405194856106e3565b828452602092838086019160051b830101928084116105ee57848301915b8483106112f25750505050505090565b82356001600160401b0381116105ee57869161131384848094890101611051565b8152019201916112e2565b60806003198201126105ee576001600160401b03916004358381116105ee578261134a91600401610f39565b926024358181116105ee578361136291600401610fa1565b926044359182116105ee576113799160040161129e565b9060643590565b346105ee5761138e3661131e565b61139c818385879697613930565b926113a6846141a2565b506013546113c4906001600160a01b03165b6001600160a01b031690565b9260409586519363793d064960e11b855260209081866004818a5afa958615611579576000966115ab575b506bffffffffffffffffffffffff193060601b161895818951809263b1c5f42760e01b825281806114268c8a8a8d60048601616b77565b03915afa9182156115795760009261157e575b505061144f876000526014602052604060002090565b55601354611465906001600160a01b03166113b8565b90813b156105ee5760008094611491878b51998a97889687956308f2a0bb60e41b875260048701616bbd565b03925af1908115611579576114b5926114b092611560575b5042613b2e565b615113565b65ffffffffffff81161561154f57917f9a2e42fd6722813d69113e7d0079d3d940171428df7373df9c7f7617cfda289261153e84611520610a3796600161150688600052600c602052604060002090565b019065ffffffffffff1665ffffffffffff19825416179055565b835185815265ffffffffffff90911660208201529081906040820190565b0390a1519081529081906020820190565b8251634844252360e11b8152600490fd5b8061156d61157392610643565b806108ec565b386114a9565b6143a8565b61159d9250803d106115a4575b61159581836106e3565b810190614399565b3880611439565b503d61158b565b6115c3919650823d84116115a45761159581836106e3565b94386113ef565b346105ee5760003660031901126105ee576020600254604051908152f35b346105ee5760403660031901126105ee576004356001600160401b0381116105ee5761165c61163c7f5c84c0144a4e16e610c6c44c3571a58af67ce17b61280f57e6feeb2c363eaa60923690600401611051565b60243561164881610ac3565b6040519283926040845260408401906107aa565b6001600160a01b0390911660208301520390a1005b346105ee5760803660031901126105ee5760043561168e81610ac3565b6044356064356024356001600160401b0382116105ee57610a37936111da6116db7ff80f5ce91f7d79d29fd2bd635816739c0fae47505f5a30a820e49ace80884165943690600401611051565b6116ef6001600160a01b0384161515615fe5565b6116fa84151561642c565b611708602854851115616478565b611713428711615986565b33600090815260208190526040902061172b90611133565b6117bd6024549661174361173e89613e12565b602455565b61174b615a1d565b61175d61116d60025460255490614a1a565b90611766610ef5565b6001600160a01b0388168152926020840189905260408401523360608401526080830152600060a083015260c0820152600060e0820152826101008201526117b8886000526021602052604060002090565b6164c4565b604051938493338886616516565b346105ee576020806003193601126105ee576004356117f4816000526021602052604060002090565b600581019261181361180e61180a865460ff1690565b1590565b615e15565b61182260028301544210615e61565b33600090815260208190526040902061183e905b541515615ea0565b60009060048301918254905b8181106118fe5750506040513360601b6001600160601b03191691810191825261188d9290916118889083906014015b03601f1981018452836106e3565b615f32565b6006600782019161189e8354613e12565b92839055604080518581523360208201529081018490527fc5fb6601ac4858dba31868a09f1646a3bfe4638f325353bb142719b81e3645a190606090a1015411156118e557005b6118f961002192600160ff19825416179055565b61654d565b8061191661190f61192c9387614440565b50546105f3565b158015611931575b61192790615ef5565b613e12565b61184a565b506119276119486119428388614440565b50610704565b805133916001600160a01b0391611966919081018901908901615ee0565b161415905061191e565b346105ee5760603660031901126105ee5760043561198d81610ac3565b60243561199981610ac3565b6001600160a01b038216600090815260016020908152604080832033845290915290206044359190549260001984106119e3575b6119d79350614809565b60405160018152602090f35b8284106119ff576119fa836119d79503338361491b565b6119cd565b604051637dc7a0d960e11b81523360048201526024810185905260448101849052606490fd5b0390fd5b611a323661131e565b611a40818385879597613930565b92611a4a846141f4565b50611a75611a6285600052600c602052604060002090565b805460ff60f01b1916600160f01b179055565b6013546001600160a01b03939084163003611b19575b94611a9b9291610a379686616c0b565b6013543091166001600160a01b0316141580611af8575b611ae9575b6040518181527f712ae1383f79ac853f8d882153778e0260ef8f03b504e2866e0593e04d2b291f9080602081016111da565b611af36000600d55565b611ab7565b50611b1461180a600d546001600160801b0381169060801c1490565b611ab2565b9290939160005b8451811015611b7457611b559030611b4b6113b8611b3e848a613e37565b516001600160a01b031690565b14611b5a57613e12565b611b20565b611927611b67828a613e37565b5160208151910120615853565b5091939092611a8b565b346105ee5760203660031901126105ee57600435600052600c602052602065ffffffffffff60406000205460a01c16604051908152f35b346105ee5760003660031901126105ee5760206040517f3e83946653575f9a39005e1545185629e92736b7528ab20ca3816f315424a8118152f35b346105ee5760003660031901126105ee57602060405160128152f35b346105ee5760203660031901126105ee576100216004358060005260208052604060002060016005820191611c4a8354916105c160ff841615615e15565b60ff19161790556160e4565b346105ee5760003660031901126105ee57602065ffffffffffff60105416604051908152f35b346105ee5760403660031901126105ee57600435611c9981610ac3565b6001600160a01b0316600090815260096020526040812090611cbc602435614568565b91805482938160058111611d0e575b5090602094611cda92846157f2565b80611cf45750505b6040516001600160d01b039091168152f35b91611d00849293614431565b92815220015460301c611ce2565b94611d1886615195565b8603958611611d6357602095611cda9385875265ffffffffffff80838a8a2001541690851610600014611d515750915b91925094611ccb565b929150611d5d90613b20565b90611d48565b613994565b634e487b7160e01b600052602160045260246000fd5b60081115611d8857565b611d68565b906008821015611d885752565b346105ee5760203660031901126105ee576020611db860043561676f565b611dc56040518092611d8d565bf35b346105ee5760403660031901126105ee57602060ff611e14602435611deb81610ac3565b6004356000526011845260036040600020019060018060a01b0316600052602052604060002090565b54166040519015158152f35b346105ee57611e2e3661131e565b90611e3d828285879697613930565b611e468161676f565b6008811015611d885760018060ff83161b1615611eb157506000908152600c60205260409020546001600160a01b03163303611e9957610a3793611e8993616a36565b6040519081529081906020820190565b60405163233d98e360e01b8152336004820152602490fd5b90611ed5606492604051926331b75e4d60e01b845260048401526024830190611d8d565b60016044820152fd5b346105ee5760003660031901126105ee57610a37604051611efe8161065b565b601d81527f6d6f64653d626c6f636b6e756d6265722666726f6d3d64656661756c7400000060208201526040519182916020835260208301906107aa565b346105ee5760003660031901126105ee576020602554604051908152f35b346105ee5760203660031901126105ee57600435600052601160205260406000208054610a3760026001840154930154604051938493846040919493926060820195825260208201520152565b346105ee5760003660031901126105ee57610a37604051611fc78161065b565b60018152603160f81b60208201526040519182916020835260208301906107aa565b6024359060ff821682036105ee57565b6064359060ff821682036105ee57565b346105ee5760403660031901126105ee576020612051612027611fe9565b60405161203381610676565b600081526040519161204483610676565b6000835233600435613fc2565b604051908152f35b346105ee5760203660031901126105ee57602060043561207881610ac3565b60018060a01b038091166000526008825260406000205416604051908152f35b9181601f840112156105ee578235916001600160401b0383116105ee57602083818601950101116105ee57565b346105ee5760c03660031901126105ee576120de611fe9565b604435906120eb82610ac3565b6001600160401b03906064358281116105ee5761210c903690600401612098565b6084358481116105ee57612124903690600401611051565b9160a4359485116105ee57610a3795612144611e89963690600401611051565b94600435613e50565b346105ee5760203660031901126105ee5761002160043561216d81610ac3565b336145a1565b346105ee5760803660031901126105ee5761218c611fe9565b6001600160401b03906044358281116105ee576121ad903690600401612098565b90916064359384116105ee576121d8612051936121d06020963690600401611051565b93369161101a565b9033600435613fc2565b346105ee5760203660031901126105ee576020612051600435614458565b346105ee5760203660031901126105ee5760043561221d81610ac3565b60018060a01b03166000526009602052602061223d604060002054615145565b63ffffffff60405191168152f35b346105ee5760203660031901126105ee57602061205160043561226d81610ac3565b6001600160a01b031660009081526020819052604090205490565b346105ee5760203660031901126105ee5760043565ffffffffffff8082168092036105ee576122b5614111565b7fc565b045403dc03c2eea82b81a0465edad9e2e7fc4d97e11421c209da93d7a9360406010549281519084168152846020820152a165ffffffffffff191617601055005b346105ee5760603660031901126105ee57612312611fe9565b6044356001600160401b0381116105ee5760209161234161233a612051933690600401612098565b369161101a565b6040519161204483610676565b346105ee5760803660031901126105ee576001600160401b036004358181116105ee5761237f903690600401610f39565b906024358181116105ee57612398903690600401610fa1565b916044358281116105ee576123b190369060040161129e565b6064359283116105ee57610a37936123d0611e89943690600401611051565b926139dc565b346105ee576020806003193601126105ee576004356123fe8160005260208052604060002090565b600581019261241461180e61180a865460ff1690565b61242360028301544210615e61565b33600090815260208190526040902061243b90611836565b60009060048301918254905b8181106124ec5750506040513360601b6001600160601b03191691810191825261247b92909161188890839060140161187a565b6006600782019161248c8354613e12565b92839055604080518581523360208201529081018490527f77c69d1b59f862d9677ac552a49c26ba3fe18ccc64ad8da630a5343c306dea6190606090a1015411156124d357005b6124e761002192600160ff19825416179055565b6160e4565b8061191661190f6124fd9387614440565b612447565b346105ee5760203660031901126105ee5760043561251f81610ac3565b60018060a01b031660005260076020526020604060002054604051908152f35b926109db96959260c09592855260018060a01b0316602085015215156040840152606083015260808201528160a082015201906107aa565b346105ee5760203660031901126105ee576004356000526020805260406000206002810154610a37600860018060a01b036003850154169360ff6005820154166006820154906125dd6007840154936125d66040518097819301610d95565b03856106e3565b6040519687968761253f565b90815180825260208080930193019160005b828110612609575050505090565b8351855293810193928101926001016125fb565b346105ee5760003660031901126105ee576126b861265a7f0000000000000000000000000000000000000000000000000000000000000000614e4f565b610a376126867f0000000000000000000000000000000000000000000000000000000000000000614f48565b6126c66040519161269683610676565b60008352604051958695600f60f81b875260e0602088015260e08701906107aa565b9085820360408701526107aa565b90466060850152306080850152600060a085015283820360c08501526125e9565b346105ee5760203660031901126105ee57612703600435614568565b600a5490600082916005841161275b575b61271e9350615720565b60008161273357505060405160008152602090f35b600a612740602093614431565b9152600080516020616cb4833981519152015460301c611ce2565b919261276681615195565b8103908111611d635761271e93600a835265ffffffffffff8083600080516020616cb4833981519152015416908516106000146127a4575091612714565b9291506127b090613b20565b90612714565b346105ee5760803660031901126105ee576004356127d2611fe9565b90604435916127e083610ac3565b6064356001600160401b0381116105ee5761180a612805612892923690600401611051565b6001600160a01b038616600090815260076020526040902080546001810190915561288c9060405160208101917ff2aad550cf55f045cb27e9c559f9889fdfb6e6cdaa032301d6ea397784ae51d7835288604083015260ff8816606083015260018060a01b038a16608083015260a082015260a0815261288481610691565b519020614d15565b86615002565b6128ad5790611e8991610a37936128a761388b565b92613f46565b6040516394ab6c0760e01b81526001600160a01b0384166004820152602490fd5b346105ee5760003660031901126105ee57602060405165ffffffffffff43168152f35b346105ee57600080600319360112610ac0576040519080600454612914816105f3565b80855291600191808316908115610a96575060011461293d57610a3785610a2b818703826106e3565b9250600483527f8a35acfbc15ff81a39ae7d344fd709f28e8600b4aa8c65c6b64bfe7fe36bd19b5b828410612980575050508101602001610a2b82610a37610a1b565b80546020858701810191909152909301928101612965565b346105ee5760203660031901126105ee576004356129b581610ac3565b60018060a01b031660005260276020526020604060002054604051908152f35b346105ee5760003660031901126105ee57602060405160648152f35b346105ee5760603660031901126105ee57600435612a0e81610ac3565b6044356001600160401b0381116105ee57612a6591612a336020923690600401611051565b50604051630748d63560e31b81526001600160a01b039091166004820152602480359082015291829081906044820190565b03817f00000000000000000000000000000000000000000000000000000000000000006001600160a01b03165afa801561157957610a3791600091612ab6575b506040519081529081906020820190565b612ace915060203d81116115a45761159581836106e3565b38612aa5565b346105ee5760203660031901126105ee57600435612af181610ac3565b6001600160a01b031660009081526009602090815260409091206001600160d01b0390612b1d90615354565b16604051908152f35b346105ee5760003660031901126105ee576020602454604051908152f35b346105ee5760003660031901126105ee5760206001600160d01b03612b1d6152c0565b346105ee5760203660031901126105ee57600435612b8481610ac3565b612b8c614111565b6013547f08f74ea46ef7894f65eabfb5e6e695de773a000b47c529ab559178069b226401604060018060a01b038094169381519084168152846020820152a16001600160a01b03191617601355005b346105ee5760403660031901126105ee57612c05600435612bfb81610ac3565b6024359033614809565b602060405160018152f35b346105ee5760203660031901126105ee57602060405160018152f35b346105ee5760203660031901126105ee57600435612c5481600052601f602052604060002090565b6006810190612c6a61180e61180a845460ff1690565b612c7960028201544210615e61565b336000908152602081905260409020612c9190611836565b6040513360601b6001600160601b0319166020820152612ccb90612cc281603481015b03601f1981018352826106e3565b60058301615f32565b60076008820191612cdc8354613e12565b92839055604080518681523360208201529081018490527f9f1b808ccd95cfad6377948752267d2ad18cbd81217ec7abd183a497d47c81d190606090a101541115612d2357005b805460ff191660011790557f712ae1383f79ac853f8d882153778e0260ef8f03b504e2866e0593e04d2b291f906109a690611e89565b346105ee5760203660031901126105ee57600435600052600c602052602065ffffffffffff60016040600020015416604051908152f35b346105ee5760203660031901126105ee576020612051600435612db281610ac3565b616620565b346105ee5760003660031901126105ee576020600f54604051908152f35b346105ee5760a03660031901126105ee57612df1600435610ac3565b612dfc602435610ac3565b6001600160401b036044358181116105ee57612e1c903690600401610fa1565b506064358181116105ee57612e35903690600401610fa1565b506084359081116105ee57612e4e903690600401611051565b50610a37612e5a614185565b6040516001600160e01b031990911681529081906020820190565b346105ee5760203660031901126105ee5760206120516004356139aa565b346105ee5760203660031901126105ee57600435612eb281151561642c565b3360005260006020528060406000205410612f23576109a681612ef77fbd67ec2db294b72ed21ac12cf37aa44775b63ea7ab9345652a1d28be069c4100933033614809565b612f0b612f0682602854613b2e565b602855565b60408051338152602081019290925290918291820190565b60405162461bcd60e51b8152602060048201526014602482015273496e73756666696369656e742062616c616e636560601b6044820152606490fd5b60603660031901126105ee57600435612f7781610ac3565b604435906001600160401b0382116105ee5760008091612f9e610021943690600401612098565b90612fa7614111565b81604051928392833781018481520391602435905af1612fc56140e1565b9061496e565b346105ee5760c03660031901126105ee57600435612fe881610ac3565b60443590602435612ff7611ff9565b83421161307f576130736100219461307a926040519060208201927fe48329057bfd03d55e49b547132e39cffd9c1820ad7b9d4c5307691425d15adf845260018060a01b038816604084015286606084015260808301526080825261305b826106ac565b61306e60a4359360843593519020614d15565b614be2565b9182614997565b6145a1565b604051632341d78760e11b815260048101859052602490fd5b346105ee5760206120516130ab3661131e565b92919091613930565b346105ee5760803660031901126105ee576001600160401b036004358181116105ee576130e5903690600401611051565b6024359182116105ee577f2de0b4ad2878fff8e0328d13d59576e6595e750e974aec7069bd4e182d2d5aaf6111da613124610a37943690600401610fa1565b926131d760443594613138835115156162e0565b6131448151151561631e565b61314f428711615986565b6022549561316461315f88613e12565b602255565b61316c615a1d565b61317e61116d60025460255490614a1a565b91613187610ef5565b86815260208101949094526040840152606435606084015233608084015260a0830152600060c083015260e082015260006101008201526131d286600052601f602052604060002090565b616360565b604051918291338684616404565b346105ee5760003660031901126105ee576013546040516001600160a01b039091168152602090f35b346105ee5760003660031901126105ee57610a3760405161322e8161065b565b602081527f737570706f72743d627261766f2671756f72756d3d666f722c6162737461696e60208201526040519182916020835260208301906107aa565b346105ee5760403660031901126105ee5760206132c660043561328e81610ac3565b6024359061329b82610ac3565b60018060a01b03166000526001835260406000209060018060a01b0316600052602052604060002090565b54604051908152f35b346105ee5760003660031901126105ee5760206040517ff2aad550cf55f045cb27e9c559f9889fdfb6e6cdaa032301d6ea397784ae51d78152f35b6004359063ffffffff821682036105ee57565b346105ee5760203660031901126105ee5761333661330a565b61333e614111565b63ffffffff8082169182156133ab577f7e3f7f0708a84de9203036abaa450dccc85ad5ff52f78c170f3edb55cf5e8828604069ffffffff00000000000093601054958251918760301c1682526020820152a160301b169069ffffffff000000000000191617601055600080f35b60405163f1cfbf0560e01b815260006004820152602490fd5b346105ee5760403660031901126105ee57612a6560206004356133e681610ac3565b60006040516133f481610676565b52604051630748d63560e31b81526001600160a01b039091166004820152602480359082015291829081906044820190565b346105ee5760003660031901126105ee576020602854604051908152f35b346105ee5760203660031901126105ee57600435613460614111565b600f5460408051918252602082018390527fccb45da8d5717e6c4544694297c4ba5cf151d455c9bb0ed4fc7a38411bc0546191a1600f55005b346105ee5760403660031901126105ee576004356134b681610ac3565b6024359063ffffffff821682036105ee57610a3791613506916134d7614955565b506134e0614955565b506001600160a01b03166000908152600960205260409020613500614955565b50614440565b50604051906135148261065b565b5465ffffffffffff811680835260309190911c60209283019081526040805192835290516001600160d01b031692820192909252918291820190565b346105ee5760a03660031901126105ee5761356c600435610ac3565b613577602435610ac3565b6084356001600160401b0381116105ee57613596903690600401611051565b506013546001600160a01b0316300361128c5760405163f23a6e6160e01b8152602090f35b979499989592613600906135f261360e946135e46101009b98958d6101209081815201906107aa565b8c810360208e0152906107aa565b908a820360408c01526107aa565b9088820360608a01526107aa565b97608087015260a086015260c085015260e08401521515910152565b346105ee57600080600319360112610ac05760405190818160155461364e816105f3565b8084529360019180831690811561373657506001146136d9575b5050613676925003826106e3565b6040519061368e8261368781610be3565b03836106e3565b610a376040516136a8816136a181610c87565b03826106e3565b6040516136b8816136a181610d0e565b601954601a54601c5491601d549360ff601e541695604051998a998a6135bb565b9150601582527f55f448fdea98c4d29eb340757ef0a66cd03dbb9538908a6a81d96026b71ec4755b84831061371b575061367693505081016020013880613668565b81935090816020925483858901015201910190918492613701565b9150506020925061367694915060ff191682840152151560051b8201013880613668565b346105ee5760203660031901126105ee57604051632394e7a360e21b8152600480359082018190526020826024817f00000000000000000000000000000000000000000000000000000000000000006001600160a01b03165afa91821561157957610a37926064926137de926000926137f0575b506137d890614458565b90614a1a565b04604051918291829190602083019252565b6137d891925061380d9060203d81116115a45761159581836106e3565b91906137ce565b346105ee5760003660031901126105ee576040517f00000000000000000000000000000000000000000000000000000000000000006001600160a01b03168152602090f35b346105ee5760003660031901126105ee576020602354604051908152f35b6013546001600160a01b0316300361128c57565b6040519061389882610676565b60008252565b90815180825260208080930193019160005b8281106138be575050505090565b83516001600160a01b0316855293810193928101926001016138b0565b90815180825260208092019182818360051b85019501936000915b8483106139065750505050505090565b909192939495848061392083856001950387528a516107aa565b98019301930191949392906138f6565b929061397c9261398e9260405194859261396c613959602086019960808b5260a087019061389e565b601f1996878783030160408801526125e9565b90858583030160608601526138db565b906080830152039081018352826106e3565b51902090565b634e487b7160e01b600052601160045260246000fd5b600052600c60205260406000205465ffffffffffff908163ffffffff8260d01c169160a01c1601818111611d63571690565b91939290936139eb8233614246565b15613ae857600f549485613a07575b6109db9495503393613c53565b65ffffffffffff43811660001901818111611d6357613a58916020916000604051613a3181610676565b52604051630748d63560e31b81523360048201529116602482015291829081906044820190565b03817f00000000000000000000000000000000000000000000000000000000000000006001600160a01b03165afa90811561157957600091613aca575b50868110613aa357506139fa565b604051636121770b60e11b8152336004820152602481019190915260448101879052606490fd5b613ae2915060203d81116115a45761159581836106e3565b38613a95565b60405163d9b3955760e01b8152336004820152602490fd5b604090613b1c6000939594606083019683526020830190611d8d565b0152565b9060018201809211611d6357565b91908201809211611d6357565b90613b4582610f22565b613b5260405191826106e3565b8281528092613b63601f1991610f22565b019060005b828110613b7457505050565b806060602080938501015201613b68565b9592613bb890613bc6939b9a9899969592885260209b60018060a01b03168c8901526101208060408a015288019061389e565b9086820360608801526125e9565b9784890360808601528251808a52818a019180808360051b8d01019501926000905b838210613c255750505050506109db96975090613c0c9184820360a08601526138db565b9360c083015260e08201526101008184039101526107aa565b90919293958380613c448f93600194601f199082030186528a516107aa565b98019201920190939291613be8565b919493909294613c6b86516020880120828686613930565b958351855190818114801590613e07575b8015613dff575b613dd657505065ffffffffffff9485613cb8613ca98a600052600c602052604060002090565b5460a01c65ffffffffffff1690565b16613daf577f7d84a6263ae0d98d3329bd7b46bb4e8d6f98cd35a7adb45c274c8b7fd5ebd5e095613daa9363ffffffff613cfa60105493808516904316613b2e565b9260301c16613d88613d168c600052600c602052604060002090565b80546001600160a01b0319166001600160a01b038a16178155613d5f613d3b86615113565b825465ffffffffffff60a01b191660a09190911b65ffffffffffff60a01b16178255565b613d6883615145565b815463ffffffff60d01b191660d09190911b63ffffffff60d01b16179055565b613d9c613d958951613b3b565b9184613b2e565b936040519889988d8a613b85565b0390a1565b87613db98161676f565b6040516331b75e4d60e01b8152918291611a259160048401613b00565b8351604051630447b05d60e41b8152600481019290925260248201526044810191909152606490fd5b508015613c83565b508351811415613c7c565b6000198114611d635760010190565b634e487b7160e01b600052603260045260246000fd5b8051821015613e4b5760209160051b010190565b613e21565b93909291969561180a613f0a91613f048a613e868160018060a01b03166000526007602052604060002080549060018201905590565b613e9136888a61101a565b602081519101208b5160208d0120906040519260208401947f3e83946653575f9a39005e1545185629e92736b7528ab20ca3816f315424a81186528d604086015260ff8d16606086015260018060a01b0316608085015260a084015260c083015260e082015260e08152612884816106c7565b8a615002565b613f25576109db959691613f1f91369161101a565b92613fc2565b6040516394ab6c0760e01b81526001600160a01b0388166004820152602490fd5b916109db939160405193613f5985610676565b60008552613fc2565b93909260ff613f8e936109db97958752166020860152604085015260a0606085015260a08401906107aa565b9160808184039101526107aa565b909260ff6080936109db96958452166020830152604082015281606082015201906107aa565b929190613fce8461676f565b6008811015611d88576002600160ff83161b16156140b3575083600052600c60205261402a61402261401c614011604060002065ffffffffffff905460a01c1690565b65ffffffffffff1690565b836143b4565b8383876142ae565b9480511560001461407757506140717fb8e138887d0aa13bab447e82de9d5c1777041ecd21ca36ba824ff1e6c07ddda4938660405194859460018060a01b03169785613f9c565b0390a290565b614071907fe2babfbac5889a709b63bb7f598b324e08bc5a4fb9ec647fb3cbc9ec07eb8712948760405195869560018060a01b03169886613f62565b6040516331b75e4d60e01b8152600481018690526064916140d8906024830190611d8d565b60026044820152fd5b3d1561410c573d906140f282610fff565b9161410060405193846106e3565b82523d6000602084013e565b606090565b6013546001600160a01b031633810361416d57300361412c57565b61413536610fff565b61414260405191826106e3565b368152602081019036600083376000602036830101525190205b806141656158ae565b0361415c5750565b6040516347096e4760e01b8152336004820152602490fd5b6013546001600160a01b0316300361128c5763bc197c8160e01b90565b6141ab8161676f565b906008821015611d88576010600160ff84161b16156141c8575090565b6141eb606492604051926331b75e4d60e01b845260048401526024830190611d8d565b60106044820152fd5b6141fd8161676f565b906008821015611d88576030600160ff84161b161561421a575090565b61423d606492604051926331b75e4d60e01b845260048401526024830190611d8d565b60306044820152fd5b908051603481106142a65760131981830101516001600160b01b03191669dc8f8d908f908c9a8dc360b01b016142a65761428591602919820190614a2d565b901591821561429357505090565b6001600160a01b03918216911614919050565b505050600190565b6142c5909291926000526011602052604060002090565b91600383016142f06142e983839060018060a01b0316600052602052604060002090565b5460ff1690565b6143785761431660ff9392614323929060018060a01b0316600052602052604060002090565b805460ff19166001179055565b168061433a5750614335828254613b2e565b905590565b600181036143515750600101614335828254613b2e565b60020361436657600201614335828254613b2e565b6040516303599be160e11b8152600490fd5b6040516371c6af4960e01b81526001600160a01b0383166004820152602490fd5b908160209103126105ee575190565b6040513d6000823e3d90fd5b604051630748d63560e31b81526001600160a01b0391821660048201526024810192909252602090829060449082907f0000000000000000000000000000000000000000000000000000000000000000165afa90811561157957600091614419575090565b6109db915060203d81116115a45761159581836106e3565b600019810191908211611d6357565b8054821015613e4b5760005260206000200190600090565b601254906000198201828111611d6357821115613e4b57600091601283527fbb8a6a4669ba250d26cd7a459eca9d215f8307e33aebe50379bc5a3617ec34438101549165ffffffffffff9281848216111561455d57506144b790615113565b83908260058111614507575b506144ce9350615789565b806144e157505b6001600160d01b031690565b6144ec601291614431565b9152600080516020616c94833981519152015460301c6144d5565b909261451282615195565b8203918211611d63576144ce94601287528083600080516020616c948339815191520154169085161060001461454b5750915b386144c3565b92915061455790613b20565b90614545565b935050505060301c90565b65ffffffffffff43168082101561458357506109db90615113565b6044925060405191637669fc0f60e11b835260048301526024820152fd5b6001600160a01b03818116600081815260086020526040812080548685166001600160a01b0319821681179092556107429694169461461e9390928691907f3134e8a2e6d97e929a7e54011ea5485d7d196dd5f0ba4d4ef95803e8e3fc257f9080a46001600160a01b031660009081526020819052604090205490565b915b6001600160a01b03808316939291908116908185141580614768575b614648575b5050505050565b816146cd575b50508261465d575b8080614641565b6001600160a01b031660009081526009602052604090207fdec2bacdd2f05b59de34da9b523dff8be42e5e38e818c82fdb0bae774387a724916146aa916146a490916150e0565b90614771565b604080516001600160d01b039384168152919092166020820152a2388080614656565b6001600160a01b031660009081526009602052604090206146ed846150e0565b6001600160d01b0390818061470185615354565b1691169003818111611d635761474561475e917fdec2bacdd2f05b59de34da9b523dff8be42e5e38e818c82fdb0bae774387a7249465ffffffffffff431690615664565b6040805192851683529316602082015291829190820190565b0390a2388061464e565b5083151561463c565b906001600160d01b0390818061478685615354565b16911601908111611d63576147a49165ffffffffffff431690615664565b9091565b6001600160d01b039081806147bb61530a565b16911601908111611d63576147a49065ffffffffffff43166155ad565b6001600160d01b039081806147eb61530a565b1691169003908111611d63576147a49065ffffffffffff43166155ad565b6001600160a01b038082169493929190851561490257821680156148e9576001600160a01b038216600090815260208190526040902054958487106148ba578461074296970361486b8460018060a01b03166000526000602052604060002090565b556001600160a01b0384166000908152602081815260409182902080548801905590518681527fddf252ad1be2c89b69c2b068fc378daa952ba7f163c4a11628f55a4df523b3ef9190a36166ec565b60405163391434e360e21b81526001600160a01b03841660048201526024810188905260448101869052606490fd5b60405163ec442f0560e01b815260006004820152602490fd5b604051634b637e8f60e11b815260006004820152602490fd5b906001600160a01b0380831615610b8957811615610b7057610b216149529260018060a01b03166000526001602052604060002090565b55565b604051906149628261065b565b60006020838281520152565b909190610742575080511561498557805190602001fd5b60405163d6bda27560e01b8152600490fd5b6001600160a01b03811660009081526007602052604090208054600181019091558092036149c3575050565b6040516301d4b62360e61b81526001600160a01b039190911660048201526024810191909152604490fd5b908160011b9180830460021490151715611d6357565b908160041b9180830460101490151715611d6357565b81810292918115918404141715611d6357565b9190825182118015614ab6575b614a8d57614a4781613b20565b821180614a98575b614a5a9015156149ee565b60280180602811611d6357818303838111611d635703614a8d57614a7d92614abf565b90916001600160a01b0390911690565b505050600090600090565b50828101602001516001600160f01b03191661060f60f31b14614a4f565b50818111614a3a565b929092614acb84613b20565b831180614b52575b614ade9015156149ee565b936000948101809111611d63579192905b818310614aff5750505060019190565b9092919360ff614b20614b1b6020888601015160ff60f81b1690565b614b70565b1690600f8211614b465790614b37614b3e92614a04565b0194613e12565b919290614aef565b50600094508493505050565b50808401602001516001600160f01b03191661060f60f31b14614ad3565b60f81c602f811180614bd8575b15614b8c57602f190160ff1690565b6060811180614bce575b15614ba5576056190160ff1690565b6040811180614bc4575b15614bbe576036190160ff1690565b5060ff90565b5060478110614baf565b5060678110614b96565b50603a8110614b7d565b916109db9391614bf193614bfa565b90929192614c88565b91907f7fffffffffffffffffffffffffffffff5d576e7357a4501ddfe92f46681b20a08411614c7257926020929160ff608095604051948552168484015260408301526060820152600092839182805260015afa156115795780516001600160a01b03811615614c6957918190565b50809160019190565b50505060009160039190565b60041115611d8857565b614c9181614c7e565b80614c9a575050565b614ca381614c7e565b60018103614cbd5760405163f645eedf60e01b8152600490fd5b614cc681614c7e565b60028103614ce75760405163fce698f760e01b815260048101839052602490fd5b80614cf3600392614c7e565b14614cfb5750565b6040516335e2f38360e21b81526004810191909152602490fd5b604290614d20614d3b565b906040519161190160f01b8352600283015260228201522090565b307f00000000000000000000000000000000000000000000000000000000000000006001600160a01b03161480614e26575b15614d96577f000000000000000000000000000000000000000000000000000000000000000090565b60405160208101907f8b73c3c69bb8fe3d512ecc4cf759cc79239f7b179b0ffacaa9a75d522b39400f82527f000000000000000000000000000000000000000000000000000000000000000060408201527f000000000000000000000000000000000000000000000000000000000000000060608201524660808201523060a082015260a0815261398e81610691565b507f00000000000000000000000000000000000000000000000000000000000000004614614d6d565b60ff8114614e8d5760ff811690601f8211614e7b5760405191614e718361065b565b8252602082015290565b604051632cd44ac360e21b8152600490fd5b50604051600554816000614ea0836105f3565b80835292600190818116908115614f265750600114614ec7575b506109db925003826106e3565b6005600090815291507f036b6384b5eca791c62761152d0c79bb0604c104a5fb6f4eb0703f3154bb3db05b848310614f0b57506109db935050810160200138614eba565b81935090816020925483858901015201910190918492614ef2565b9050602092506109db94915060ff191682840152151560051b82010138614eba565b60ff8114614f6a5760ff811690601f8211614e7b5760405191614e718361065b565b50604051600654816000614f7d836105f3565b80835292600190818116908115614f265750600114614fa357506109db925003826106e3565b6006600090815291507ff652222313e28459528d920b65115c16c04f3efc82aaedc97be59f3f377c0d3f5b848310614fe757506109db935050810160200138614eba565b81935090816020925483858901015201910190918492614fce565b9091813b61502a5761501491926150a4565b5061501e81614c7e565b15918261429357505090565b600091829160405161506081612cb46020820194630b135d3f60e11b998a875260248401526040604484015260648301906107aa565b51915afa9061506d6140e1565b82615096575b8261507d57505090565b61509291925060208082518301019101614399565b1490565b915060208251101591615073565b81519190604183036150d5576150ce92506020820151906060604084015193015160001a90614bfa565b9192909190565b505060009160029190565b6001600160d01b03908181116150f4571690565b604490604051906306dfcc6560e41b825260d060048301526024820152fd5b65ffffffffffff90818111615126571690565b604490604051906306dfcc6560e41b8252603060048301526024820152fd5b63ffffffff90818111615156571690565b604490604051906306dfcc6560e41b8252602060048301526024820152fd5b811561517f570490565b634e487b7160e01b600052601260045260246000fd5b60018111156109db57600181600160801b8110156152ae575b61525661524c61524261523861522e61522461526297600488600160401b61525d9a10156152a1575b640100000000811015615294575b62010000811015615287575b61010081101561527b575b601081101561526f575b1015615267575b60030260011c61521d818b615175565b0160011c90565b61521d818a615175565b61521d8189615175565b61521d8188615175565b61521d8187615175565b61521d8186615175565b8093615175565b821190565b900390565b60011b61520d565b811c9160021b91615206565b60081c91811b916151fc565b60101c9160081b916151f1565b60201c9160101b916151e5565b60401c9160201b916151d7565b50600160401b9050608082901c6151ae565b601254600090806152d2575050600090565b80600019810111611d635760127fbb8a6a4669ba250d26cd7a459eca9d215f8307e33aebe50379bc5a3617ec34439252015460301c90565b600a546000908061531c575050600090565b80600019810111611d6357600a7fc65a7bb8d6351c1cf70c95a316cc6a92839c986682d98bc35f958f4883f9d2a79252015460301c90565b80546000918161536657505050600090565b600019928284810111611d635760209181522001015460301c90565b634e487b7160e01b600052600060045260246000fd5b60125490600160401b821015610656576001820180601255821015613e4b57610742916012600052600080516020616c9483398151915201906153f865ffffffffffff825116839065ffffffffffff1665ffffffffffff19825416179055565b60200151815465ffffffffffff1660309190911b65ffffffffffff1916179055565b600a5490600160401b821015610656576001820180600a55821015613e4b5761074291600a600052600080516020616cb483398151915201906153f865ffffffffffff825116839065ffffffffffff1665ffffffffffff19825416179055565b8054600160401b8110156106565761549791600182018155614440565b6154bf578151815465ffffffffffff191665ffffffffffff91909116178155610742916153f8565b615382565b6012549192918015615583576154dc6154f491614431565b6012600052600080516020616c948339815191520190565b9081549165ffffffffffff90818416918316808311615571578692036155395761553292509065ffffffffffff82549181199060301b169116179055565b60301c9190565b505061556c9061555861554a610f15565b65ffffffffffff9092168252565b6001600160d01b0385166020820152615398565b615532565b604051632520601d60e01b8152600490fd5b506155a79061559361554a610f15565b6001600160d01b0384166020820152615398565b60009190565b600a549192918015615640576155c56155dd91614431565b600a600052600080516020616cb48339815191520190565b9081549165ffffffffffff908184169183168083116155715786920361561b5761553292509065ffffffffffff82549181199060301b169116179055565b505061556c9061562c61554a610f15565b6001600160d01b038516602082015261541a565b506155a79061565061554a610f15565b6001600160d01b038416602082015261541a565b805492939280156156fb5761567b61568891614431565b8260005260206000200190565b9182549265ffffffffffff91828516928116808411615571578793036156c7575061553292509065ffffffffffff82549181199060301b169116179055565b91505061556c916156e76156d9610f15565b65ffffffffffff9093168352565b6001600160d01b038616602083015261547a565b50906155a79161570c6156d9610f15565b6001600160d01b038516602083015261547a565b905b82811061572e57505090565b90918082169080831860011c8201809211611d6357600a60005265ffffffffffff8083600080516020616cb4833981519152015416908516106000146157775750915b90615722565b92915061578390613b20565b90615771565b905b82811061579757505090565b90918082169080831860011c8201809211611d6357601260005265ffffffffffff8083600080516020616c94833981519152015416908516106000146157e05750915b9061578b565b9291506157ec90613b20565b906157da565b91905b8382106158025750505090565b9091928083169080841860011c8201809211611d635760008581526020902082015465ffffffffffff90811690841610156158415750925b91906157f5565b93925061584d90613b20565b9161583a565b600d548060801c9160018301926001600160801b038093168385161461589b57600052600e602052604060002055600d54916001600160801b03199060801b16911617600d55565b634e487b7160005260416020526024601cfd5b600d54906001600160801b038083169260801c83146158f35782600052600e602052600160406000209360008554955501166001600160801b0319600d541617600d55565b634e487b7160005260316020526024601cfd5b1561590d57565b60405162461bcd60e51b8152602060048201526016602482015275082e4e4c2f2e640d8cadccee8d040dad2e6dac2e8c6d60531b6044820152606490fd5b1561595257565b60405162461bcd60e51b815260206004820152600c60248201526b456d7074792061727261797360a01b6044820152606490fd5b1561598d57565b60405162461bcd60e51b815260206004820152601060248201526f496e76616c69642074696d656c6f636b60801b6044820152606490fd5b156159cc57565b60405162461bcd60e51b815260206004820152602360248201527f4d75737420686f6c6420746f6b656e7320746f206372656174652070726f706f6044820152621cd85b60ea1b6064820152608490fd5b604051615a2981610676565b6000815290565b818110615a3b575050565b60008155600101615a30565b91818110615a5457505050565b6107429260005260206000209182019101615a30565b8151916001600160401b03831161065657600160401b831161065657615a9583835481855584615a47565b602080910191600052806000209060005b848110615ab4575050505050565b83516001600160a01b03168382015592810192600101615aa6565b8151916001600160401b03831161065657600160401b831161065657615afa83835481855584615a47565b602080910191600052806000209060005b848110615b19575050505050565b83518382015592810192600101615b0b565b9190601f8111615b3a57505050565b610742926000526020600020906020601f840160051c83019310615b66575b601f0160051c0190615a30565b9091508190615b59565b91909182516001600160401b03811161065657615b9781615b9184546105f3565b84615b2b565b602080601f8311600114615bd3575081929394600092615bc8575b50508160011b916000199060031b1c1916179055565b015190503880615bb2565b90601f19831695615be985600052602060002090565b926000905b888210615c2657505083600195969710615c0d575b505050811b019055565b015160001960f88460031b161c19169055388080615c03565b80600185968294968601518155019501930190615bee565b815191600160401b8311610656578154838355808410615c9c575b50615c6e602080920192600052602060002090565b6000925b848410615c80575050505050565b60018382615c9083945186615b70565b01920193019290615c72565b6000838152846020822092830192015b828110615cba575050615c59565b80615cc7600192546105f3565b80615cd4575b5001615cac565b601f908181118414615cec5750508281555b38615ccd565b83615d0e92615d0085600052602060002090565b920160051c82019101615a30565b60008181526020812081835555615ce6565b600861010061074293615d34815185615a6a565b615d45602082015160018601615acf565b604081015160028501556060810151615d85906001600160a01b03165b6003860180546001600160a01b0319166001600160a01b03909216919091179055565b615d96608082015160048601615c3e565b615dbb615da660a0830151151590565b600586019060ff801983541691151516179055565b60c0810151600685015560e0810151600785015501519101615b70565b93906109db9593613f8e93615e0792875260018060a01b0316602087015260a0604087015260a086019061389e565b9084820360608601526125e9565b15615e1c57565b60405162461bcd60e51b815260206004820152601960248201527f50726f706f73616c20616c7265616479206578656375746564000000000000006044820152606490fd5b15615e6857565b60405162461bcd60e51b815260206004820152601060248201526f141c9bdc1bdcd85b08195e1c1a5c995960821b6044820152606490fd5b15615ea757565b60405162461bcd60e51b81526020600482015260116024820152702737903a37b5b2b739903a379039b4b3b760791b6044820152606490fd5b908160209103126105ee57516109db81610ac3565b15615efc57565b60405162461bcd60e51b815260206004820152600e60248201526d105b1c9958591e481cda59db995960921b6044820152606490fd5b8054600160401b81101561065657615f4f91600182018155614440565b9190916154bf5761074291615b70565b15615f6657565b60405162461bcd60e51b8152602060048201526015602482015274141c9bdc1bdcd85b081b9bdd08195e1958dd5d1959605a1b6044820152606490fd5b15615faa57565b60405162461bcd60e51b8152602060048201526013602482015272496e73756666696369656e742071756f72756d60681b6044820152606490fd5b15615fec57565b60405162461bcd60e51b815260206004820152600c60248201526b5a65726f206164647265737360a01b6044820152606490fd5b1561602757565b60405162461bcd60e51b815260206004820152600b60248201526a16995c9bc8185b5bdd5b9d60aa1b6044820152606490fd5b6060810191815260209060608282015283548093526080810192600094855282852090855b8181106160c7575050506040818403910152808454928381520193835280832092905b8282106160b0575050505090565b8354855293840193600193840193909101906160a2565b82546001600160a01b03168652948401946001928301920161607f565b906160f88260005260208052604060002090565b61610e616109600583015460ff1690565b615f5f565b616122600782015460068301541115615fa3565b600181810193906000815b616166575b5050613daa7fe8585c604452fcb59bc021fce36eb8241ffc18bd81b50ce6cd5cea81ceeaa58d93946040519384938461605a565b83548110156161ec57806161a261619b6113b86161866161e69589614440565b905460039190911b1c6001600160a01b031690565b1515615fe5565b6161c36161bc6161b2838a614440565b90549060031b1c90565b1515616020565b6119276161d36161868388614440565b6161e06161b2848b614440565b906161f1565b8161612d565b616132565b91906001600160a01b03831680156148e957600254828101809111611d63576002556001600160a01b038416600090815260208181526040808320805486019055518481527fddf252ad1be2c89b69c2b068fc378daa952ba7f163c4a11628f55a4df523b3ef9190a3600254926001600160d01b0384116162775761074292935061666e565b604051630e58ae9360e11b8152600481018590526001600160d01b036024820152604490fd5b156162a457565b60405162461bcd60e51b8152602060048201526014602482015273151a5b595b1bd8dac81b9bdd08195e1c1a5c995960621b6044820152606490fd5b156162e757565b60405162461bcd60e51b815260206004820152600f60248201526e22b6b83a3c9037b832b930ba34b7b760891b6044820152606490fd5b1561632557565b60405162461bcd60e51b8152602060048201526013602482015272456d7074792074617267657420636861696e7360681b6044820152606490fd5b90610100600891616372815185615b70565b616383602082015160018601615acf565b604081015160028501556060810151600385015560808101516004850180546001600160a01b0319166001600160a01b039092169190911790556163ce60a082015160058601615c3e565b6163f36163de60c0830151151590565b600686019060ff801983541691151516179055565b60e081015160078501550151910155565b9081526001600160a01b0390911660208201526060604082018190526109db929101906107aa565b1561643357565b60405162461bcd60e51b815260206004820152601d60248201527f416d6f756e74206d7573742062652067726561746572207468616e20300000006044820152606490fd5b1561647f57565b60405162461bcd60e51b815260206004820152601d60248201527f496e73756666696369656e742074726561737572792062616c616e63650000006044820152606490fd5b815181546001600160a01b0319166001600160a01b03909116178155610742916008906101009060208101516001850155604081015160028501556060810151615d85906001600160a01b0316615d62565b9081526001600160a01b03918216602082015291166040820152606081019190915260a0608082018190526109db929101906107aa565b80600052602160205260406000209061656c60ff600584015416615f5f565b616580600783015460068401541115615fa3565b60018201908154926028549361659885821115616478565b8403938411611d63576165f6613daa916165d27f0bb768aa97fa4e8a8f73bfa7bc210f1a29f29c765d44f0c29acc04a549e32e4396602855565b805485546165e9916001600160a01b031630614809565b546001600160a01b031690565b9254604080519384526001600160a01b039094166020840152928201929092529081906060820190565b6001600160a01b031660009081526020819052604090205480158015616664575b61665e576166556109db9160285490614a1a565b60025490615175565b50600090565b5060285415616641565b906107429161668461667f836150e0565b6147a8565b50506001600160a01b039081169081156166d4575b60086020527f5eff886ea0ce6ca488a3d6e336d6c0f75f46d19b42c06ce5ee98e42c96d256c754600092835260409092205481169116614620565b6166e56166e0846150e0565b6147d8565b5050616699565b61074292916001600160a01b03918216919081908315616744575b16918215616731575b60005260086020528060406000205416916000526040600020541690614620565b61673d6166e0856150e0565b5050616710565b61675061667f866150e0565b5050616707565b908160209103126105ee575180151581036105ee5790565b61677881616881565b9061678282611d7e565b6005820361687d5761679f91506000526014602052604060002090565b546013546167b5906001600160a01b03166113b8565b604051632c258a9f60e11b81526004810183905260209291908381602481855afa90811561157957600091616860575b50156167f357505050600590565b604051632ab0f52960e01b815260048101929092528290829060249082905afa91821561157957600092616833575b50501561682e57600790565b600290565b6168529250803d10616859575b61684a81836106e3565b810190616757565b3880616822565b503d616840565b6168779150843d86116168595761684a81836106e3565b386167e5565b5090565b61689581600052600c602052604060002090565b5460ff8160f01c1661698d5760f81c616987576168c2614011613ca983600052600c602052604060002090565b801561696e5765ffffffffffff431680911015616967576168e2826139aa565b106168ed5750600190565b6168f961180a82616994565b8015616942575b1561690b5750600390565b614011600161692761693493600052600c602052604060002090565b015465ffffffffffff1690565b61693d57600490565b600590565b5061696261180a8260005260116020526040600020600181015490541090565b616900565b5050600090565b604051636ad0607560e01b815260048101839052602490fd5b50600290565b5050600790565b60005260116020526040600020600c60205265ffffffffffff60406000205460a01c1660405190632394e7a360e21b825280600483015260208260248160018060a01b037f0000000000000000000000000000000000000000000000000000000000000000165afa91821561157957616a3192606492616a1f926000926137f057506137d890614458565b04916002600182015491015490613b2e565b101590565b90616a42939291613930565b616a4b8161676f565b6008811015611d8857603b600160ff83161b1615616b4a5750616a90616a7b82600052600c602052604060002090565b80546001600160f81b0316600160f81b179055565b6040518181527f789cf55be980739dad1d0699b93b58e806b51c9d96619bfa8fe0a28abaa7b30c90602090a1616ad0816000526014602052604060002090565b5480616ada575090565b601354616aef906001600160a01b03166113b8565b803b156105ee5760405163c4d252f560e01b815260048101929092526000908290602490829084905af1801561157957616b37575b5060008181526014602052604081205590565b8061156d616b4492610643565b38616b24565b90616b6e606492604051926331b75e4d60e01b845260048401526024830190611d8d565b603b6044820152fd5b949392616ba3608093616b95616bb19460a08a5260a08a019061389e565b9088820360208a01526125e9565b9086820360408801526138db565b93600060608201520152565b9192616bec60a094616bde616bfa949998979960c0875260c087019061389e565b9085820360208701526125e9565b9083820360408501526138db565b946000606083015260808201520152565b9290939160018060a01b036013541690813b156105ee57600093616c5a6040519788958694859463e38335e560e01b86526bffffffffffffffffffffffff193060601b16189260048601616b77565b039134905af19081156115795760009261495292616c84575b506000526014602052604060002090565b616c8d90610643565b38616c7356febb8a6a4669ba250d26cd7a459eca9d215f8307e33aebe50379bc5a3617ec3444c65a7bb8d6351c1cf70c95a316cc6a92839c986682d98bc35f958f4883f9d2a8a26469706673582212209a5de699f7aefb288e8394e1a1967891a7fa659845a380ec582ae5c3dad15a8264736f6c63430008140033bb8a6a4669ba250d26cd7a459eca9d215f8307e33aebe50379bc5a3617ec3444c65a7bb8d6351c1cf70c95a316cc6a92839c986682d98bc35f958f4883f9d2a83ad8aa4f87544323a9d1e5dd902f40c356527a7955687113db5f9a85ad579dc10553476bf02ef2726e8ce5ced78d63e26e602e4a2257b1f559418e24b4633997dec2bacdd2f05b59de34da9b523dff8be42e5e38e818c82fdb0bae774387a724",
  "linkReferences": {},
  "deployedLinkReferences": {}
}